{
  "address": "0x6AFa41b6266430DAefec207B767C0C7083382bc4",
  "abi": [
    {
      "inputs": [
        {
          "internalType": "string",
          "name": "_name",
          "type": "string"
        },
        {
          "internalType": "contract ERC20",
          "name": "_baseToken",
          "type": "address"
        },
        {
          "internalType": "contract AggregationRouterV5Interface",
          "name": "_router",
          "type": "address"
        },
        {
          "components": [
            {
              "internalType": "contract ERC20",
              "name": "token",
              "type": "address"
            },
            {
              "internalType": "contract AggregatorV3Interface",
              "name": "priceFeed",
              "type": "address"
            },
            {
              "internalType": "uint256",
              "name": "amount",
              "type": "uint256"
            },
            {
              "internalType": "uint256",
              "name": "weight",
              "type": "uint256"
            }
          ],
          "internalType": "struct InzenFunds.Assets[]",
          "name": "_portfolio",
          "type": "tuple[]"
        }
      ],
      "stateMutability": "nonpayable",
      "type": "constructor"
    },
    {
      "anonymous": false,
      "inputs": [
        {
          "indexed": true,
          "internalType": "contract ERC20",
          "name": "token",
          "type": "address"
        },
        {
          "indexed": false,
          "internalType": "contract AggregatorV3Interface",
          "name": "priceFeed",
          "type": "address"
        }
      ],
      "name": "AddAsset",
      "type": "event"
    },
    {
      "anonymous": false,
      "inputs": [
        {
          "indexed": true,
          "internalType": "address",
          "name": "owner",
          "type": "address"
        },
        {
          "indexed": true,
          "internalType": "address",
          "name": "spender",
          "type": "address"
        },
        {
          "indexed": false,
          "internalType": "uint256",
          "name": "value",
          "type": "uint256"
        }
      ],
      "name": "Approval",
      "type": "event"
    },
    {
      "anonymous": false,
      "inputs": [
        {
          "indexed": true,
          "internalType": "address",
          "name": "delegator",
          "type": "address"
        },
        {
          "indexed": true,
          "internalType": "address",
          "name": "fromDelegate",
          "type": "address"
        },
        {
          "indexed": true,
          "internalType": "address",
          "name": "toDelegate",
          "type": "address"
        }
      ],
      "name": "DelegateChanged",
      "type": "event"
    },
    {
      "anonymous": false,
      "inputs": [
        {
          "indexed": true,
          "internalType": "address",
          "name": "delegate",
          "type": "address"
        },
        {
          "indexed": false,
          "internalType": "uint256",
          "name": "previousBalance",
          "type": "uint256"
        },
        {
          "indexed": false,
          "internalType": "uint256",
          "name": "newBalance",
          "type": "uint256"
        }
      ],
      "name": "DelegateVotesChanged",
      "type": "event"
    },
    {
      "anonymous": false,
      "inputs": [
        {
          "indexed": true,
          "internalType": "address",
          "name": "user",
          "type": "address"
        },
        {
          "indexed": false,
          "internalType": "uint256",
          "name": "baseAmount",
          "type": "uint256"
        },
        {
          "indexed": false,
          "internalType": "uint256",
          "name": "mintAmount",
          "type": "uint256"
        }
      ],
      "name": "Deposit",
      "type": "event"
    },
    {
      "anonymous": false,
      "inputs": [
        {
          "indexed": true,
          "internalType": "contract ERC20",
          "name": "fromToken",
          "type": "address"
        },
        {
          "indexed": true,
          "internalType": "contract ERC20",
          "name": "toToken",
          "type": "address"
        },
        {
          "indexed": false,
          "internalType": "uint256",
          "name": "fromAmount",
          "type": "uint256"
        },
        {
          "indexed": false,
          "internalType": "uint256",
          "name": "toAmount",
          "type": "uint256"
        }
      ],
      "name": "Rebalance",
      "type": "event"
    },
    {
      "anonymous": false,
      "inputs": [
        {
          "indexed": false,
          "internalType": "uint256[]",
          "name": "weights",
          "type": "uint256[]"
        }
      ],
      "name": "Reconfigure",
      "type": "event"
    },
    {
      "anonymous": false,
      "inputs": [
        {
          "indexed": true,
          "internalType": "bytes32",
          "name": "role",
          "type": "bytes32"
        },
        {
          "indexed": true,
          "internalType": "bytes32",
          "name": "previousAdminRole",
          "type": "bytes32"
        },
        {
          "indexed": true,
          "internalType": "bytes32",
          "name": "newAdminRole",
          "type": "bytes32"
        }
      ],
      "name": "RoleAdminChanged",
      "type": "event"
    },
    {
      "anonymous": false,
      "inputs": [
        {
          "indexed": true,
          "internalType": "bytes32",
          "name": "role",
          "type": "bytes32"
        },
        {
          "indexed": true,
          "internalType": "address",
          "name": "account",
          "type": "address"
        },
        {
          "indexed": true,
          "internalType": "address",
          "name": "sender",
          "type": "address"
        }
      ],
      "name": "RoleGranted",
      "type": "event"
    },
    {
      "anonymous": false,
      "inputs": [
        {
          "indexed": true,
          "internalType": "bytes32",
          "name": "role",
          "type": "bytes32"
        },
        {
          "indexed": true,
          "internalType": "address",
          "name": "account",
          "type": "address"
        },
        {
          "indexed": true,
          "internalType": "address",
          "name": "sender",
          "type": "address"
        }
      ],
      "name": "RoleRevoked",
      "type": "event"
    },
    {
      "anonymous": false,
      "inputs": [
        {
          "indexed": true,
          "internalType": "address",
          "name": "from",
          "type": "address"
        },
        {
          "indexed": true,
          "internalType": "address",
          "name": "to",
          "type": "address"
        },
        {
          "indexed": false,
          "internalType": "uint256",
          "name": "value",
          "type": "uint256"
        }
      ],
      "name": "Transfer",
      "type": "event"
    },
    {
      "anonymous": false,
      "inputs": [
        {
          "indexed": true,
          "internalType": "address",
          "name": "user",
          "type": "address"
        },
        {
          "indexed": false,
          "internalType": "uint256",
          "name": "baseAmount",
          "type": "uint256"
        },
        {
          "indexed": false,
          "internalType": "uint256",
          "name": "burnAmount",
          "type": "uint256"
        }
      ],
      "name": "Withdraw",
      "type": "event"
    },
    {
      "inputs": [],
      "name": "DEFAULT_ADMIN_ROLE",
      "outputs": [
        {
          "internalType": "bytes32",
          "name": "",
          "type": "bytes32"
        }
      ],
      "stateMutability": "view",
      "type": "function"
    },
    {
      "inputs": [],
      "name": "DOMAIN_SEPARATOR",
      "outputs": [
        {
          "internalType": "bytes32",
          "name": "",
          "type": "bytes32"
        }
      ],
      "stateMutability": "view",
      "type": "function"
    },
    {
      "inputs": [],
      "name": "PORTFOLIO_ENGINEER_ROLE",
      "outputs": [
        {
          "internalType": "bytes32",
          "name": "",
          "type": "bytes32"
        }
      ],
      "stateMutability": "view",
      "type": "function"
    },
    {
      "inputs": [
        {
          "internalType": "contract ERC20",
          "name": "_token",
          "type": "address"
        },
        {
          "internalType": "contract AggregatorV3Interface",
          "name": "_priceFeed",
          "type": "address"
        }
      ],
      "name": "addAsset",
      "outputs": [],
      "stateMutability": "nonpayable",
      "type": "function"
    },
    {
      "inputs": [
        {
          "internalType": "address",
          "name": "owner",
          "type": "address"
        },
        {
          "internalType": "address",
          "name": "spender",
          "type": "address"
        }
      ],
      "name": "allowance",
      "outputs": [
        {
          "internalType": "uint256",
          "name": "",
          "type": "uint256"
        }
      ],
      "stateMutability": "view",
      "type": "function"
    },
    {
      "inputs": [
        {
          "internalType": "address",
          "name": "spender",
          "type": "address"
        },
        {
          "internalType": "uint256",
          "name": "amount",
          "type": "uint256"
        }
      ],
      "name": "approve",
      "outputs": [
        {
          "internalType": "bool",
          "name": "",
          "type": "bool"
        }
      ],
      "stateMutability": "nonpayable",
      "type": "function"
    },
    {
      "inputs": [
        {
          "internalType": "address",
          "name": "account",
          "type": "address"
        }
      ],
      "name": "balanceOf",
      "outputs": [
        {
          "internalType": "uint256",
          "name": "",
          "type": "uint256"
        }
      ],
      "stateMutability": "view",
      "type": "function"
    },
    {
      "inputs": [],
      "name": "baseToken",
      "outputs": [
        {
          "internalType": "contract ERC20",
          "name": "",
          "type": "address"
        }
      ],
      "stateMutability": "view",
      "type": "function"
    },
    {
      "inputs": [
        {
          "internalType": "address",
          "name": "account",
          "type": "address"
        },
        {
          "internalType": "uint32",
          "name": "pos",
          "type": "uint32"
        }
      ],
      "name": "checkpoints",
      "outputs": [
        {
          "components": [
            {
              "internalType": "uint32",
              "name": "fromBlock",
              "type": "uint32"
            },
            {
              "internalType": "uint224",
              "name": "votes",
              "type": "uint224"
            }
          ],
          "internalType": "struct ERC20Votes.Checkpoint",
          "name": "",
          "type": "tuple"
        }
      ],
      "stateMutability": "view",
      "type": "function"
    },
    {
      "inputs": [],
      "name": "decimals",
      "outputs": [
        {
          "internalType": "uint8",
          "name": "",
          "type": "uint8"
        }
      ],
      "stateMutability": "view",
      "type": "function"
    },
    {
      "inputs": [
        {
          "internalType": "address",
          "name": "spender",
          "type": "address"
        },
        {
          "internalType": "uint256",
          "name": "subtractedValue",
          "type": "uint256"
        }
      ],
      "name": "decreaseAllowance",
      "outputs": [
        {
          "internalType": "bool",
          "name": "",
          "type": "bool"
        }
      ],
      "stateMutability": "nonpayable",
      "type": "function"
    },
    {
      "inputs": [
        {
          "internalType": "address",
          "name": "delegatee",
          "type": "address"
        }
      ],
      "name": "delegate",
      "outputs": [],
      "stateMutability": "nonpayable",
      "type": "function"
    },
    {
      "inputs": [
        {
          "internalType": "address",
          "name": "delegatee",
          "type": "address"
        },
        {
          "internalType": "uint256",
          "name": "nonce",
          "type": "uint256"
        },
        {
          "internalType": "uint256",
          "name": "expiry",
          "type": "uint256"
        },
        {
          "internalType": "uint8",
          "name": "v",
          "type": "uint8"
        },
        {
          "internalType": "bytes32",
          "name": "r",
          "type": "bytes32"
        },
        {
          "internalType": "bytes32",
          "name": "s",
          "type": "bytes32"
        }
      ],
      "name": "delegateBySig",
      "outputs": [],
      "stateMutability": "nonpayable",
      "type": "function"
    },
    {
      "inputs": [
        {
          "internalType": "address",
          "name": "account",
          "type": "address"
        }
      ],
      "name": "delegates",
      "outputs": [
        {
          "internalType": "address",
          "name": "",
          "type": "address"
        }
      ],
      "stateMutability": "view",
      "type": "function"
    },
    {
      "inputs": [
        {
          "internalType": "uint256",
          "name": "_amount",
          "type": "uint256"
        },
        {
          "internalType": "bytes[]",
          "name": "_swapdata",
          "type": "bytes[]"
        }
      ],
      "name": "deposit",
      "outputs": [],
      "stateMutability": "nonpayable",
      "type": "function"
    },
    {
      "inputs": [
        {
          "internalType": "uint256",
          "name": "blockNumber",
          "type": "uint256"
        }
      ],
      "name": "getPastTotalSupply",
      "outputs": [
        {
          "internalType": "uint256",
          "name": "",
          "type": "uint256"
        }
      ],
      "stateMutability": "view",
      "type": "function"
    },
    {
      "inputs": [
        {
          "internalType": "address",
          "name": "account",
          "type": "address"
        },
        {
          "internalType": "uint256",
          "name": "blockNumber",
          "type": "uint256"
        }
      ],
      "name": "getPastVotes",
      "outputs": [
        {
          "internalType": "uint256",
          "name": "",
          "type": "uint256"
        }
      ],
      "stateMutability": "view",
      "type": "function"
    },
    {
      "inputs": [
        {
          "internalType": "bytes32",
          "name": "role",
          "type": "bytes32"
        }
      ],
      "name": "getRoleAdmin",
      "outputs": [
        {
          "internalType": "bytes32",
          "name": "",
          "type": "bytes32"
        }
      ],
      "stateMutability": "view",
      "type": "function"
    },
    {
      "inputs": [
        {
          "internalType": "bytes32",
          "name": "role",
          "type": "bytes32"
        },
        {
          "internalType": "uint256",
          "name": "index",
          "type": "uint256"
        }
      ],
      "name": "getRoleMember",
      "outputs": [
        {
          "internalType": "address",
          "name": "",
          "type": "address"
        }
      ],
      "stateMutability": "view",
      "type": "function"
    },
    {
      "inputs": [
        {
          "internalType": "bytes32",
          "name": "role",
          "type": "bytes32"
        }
      ],
      "name": "getRoleMemberCount",
      "outputs": [
        {
          "internalType": "uint256",
          "name": "",
          "type": "uint256"
        }
      ],
      "stateMutability": "view",
      "type": "function"
    },
    {
      "inputs": [
        {
          "internalType": "address",
          "name": "account",
          "type": "address"
        }
      ],
      "name": "getVotes",
      "outputs": [
        {
          "internalType": "uint256",
          "name": "",
          "type": "uint256"
        }
      ],
      "stateMutability": "view",
      "type": "function"
    },
    {
      "inputs": [
        {
          "internalType": "bytes32",
          "name": "role",
          "type": "bytes32"
        },
        {
          "internalType": "address",
          "name": "account",
          "type": "address"
        }
      ],
      "name": "grantRole",
      "outputs": [],
      "stateMutability": "nonpayable",
      "type": "function"
    },
    {
      "inputs": [
        {
          "internalType": "bytes32",
          "name": "role",
          "type": "bytes32"
        },
        {
          "internalType": "address",
          "name": "account",
          "type": "address"
        }
      ],
      "name": "hasRole",
      "outputs": [
        {
          "internalType": "bool",
          "name": "",
          "type": "bool"
        }
      ],
      "stateMutability": "view",
      "type": "function"
    },
    {
      "inputs": [
        {
          "internalType": "address",
          "name": "spender",
          "type": "address"
        },
        {
          "internalType": "uint256",
          "name": "addedValue",
          "type": "uint256"
        }
      ],
      "name": "increaseAllowance",
      "outputs": [
        {
          "internalType": "bool",
          "name": "",
          "type": "bool"
        }
      ],
      "stateMutability": "nonpayable",
      "type": "function"
    },
    {
      "inputs": [],
      "name": "name",
      "outputs": [
        {
          "internalType": "string",
          "name": "",
          "type": "string"
        }
      ],
      "stateMutability": "view",
      "type": "function"
    },
    {
      "inputs": [
        {
          "internalType": "address",
          "name": "owner",
          "type": "address"
        }
      ],
      "name": "nonces",
      "outputs": [
        {
          "internalType": "uint256",
          "name": "",
          "type": "uint256"
        }
      ],
      "stateMutability": "view",
      "type": "function"
    },
    {
      "inputs": [
        {
          "internalType": "address",
          "name": "account",
          "type": "address"
        }
      ],
      "name": "numCheckpoints",
      "outputs": [
        {
          "internalType": "uint32",
          "name": "",
          "type": "uint32"
        }
      ],
      "stateMutability": "view",
      "type": "function"
    },
    {
      "inputs": [],
      "name": "overview",
      "outputs": [
        {
          "internalType": "string",
          "name": "fundName",
          "type": "string"
        },
        {
          "internalType": "uint256",
          "name": "usdValue",
          "type": "uint256"
        },
        {
          "internalType": "uint256",
          "name": "tokenSupply",
          "type": "uint256"
        },
        {
          "components": [
            {
              "internalType": "contract ERC20",
              "name": "token",
              "type": "address"
            },
            {
              "internalType": "contract AggregatorV3Interface",
              "name": "priceFeed",
              "type": "address"
            },
            {
              "internalType": "uint256",
              "name": "amount",
              "type": "uint256"
            },
            {
              "internalType": "uint256",
              "name": "weight",
              "type": "uint256"
            }
          ],
          "internalType": "struct InzenFunds.Assets[]",
          "name": "assets",
          "type": "tuple[]"
        }
      ],
      "stateMutability": "view",
      "type": "function"
    },
    {
      "inputs": [
        {
          "internalType": "address",
          "name": "owner",
          "type": "address"
        },
        {
          "internalType": "address",
          "name": "spender",
          "type": "address"
        },
        {
          "internalType": "uint256",
          "name": "value",
          "type": "uint256"
        },
        {
          "internalType": "uint256",
          "name": "deadline",
          "type": "uint256"
        },
        {
          "internalType": "uint8",
          "name": "v",
          "type": "uint8"
        },
        {
          "internalType": "bytes32",
          "name": "r",
          "type": "bytes32"
        },
        {
          "internalType": "bytes32",
          "name": "s",
          "type": "bytes32"
        }
      ],
      "name": "permit",
      "outputs": [],
      "stateMutability": "nonpayable",
      "type": "function"
    },
    {
      "inputs": [
        {
          "internalType": "uint256",
          "name": "",
          "type": "uint256"
        }
      ],
      "name": "portfolio",
      "outputs": [
        {
          "internalType": "contract ERC20",
          "name": "token",
          "type": "address"
        },
        {
          "internalType": "contract AggregatorV3Interface",
          "name": "priceFeed",
          "type": "address"
        },
        {
          "internalType": "uint256",
          "name": "amount",
          "type": "uint256"
        },
        {
          "internalType": "uint256",
          "name": "weight",
          "type": "uint256"
        }
      ],
      "stateMutability": "view",
      "type": "function"
    },
    {
      "inputs": [
        {
          "internalType": "bytes[]",
          "name": "_swapdata",
          "type": "bytes[]"
        }
      ],
      "name": "rebalance",
      "outputs": [],
      "stateMutability": "nonpayable",
      "type": "function"
    },
    {
      "inputs": [
        {
          "internalType": "uint256[]",
          "name": "_weights",
          "type": "uint256[]"
        }
      ],
      "name": "reconfigure",
      "outputs": [],
      "stateMutability": "nonpayable",
      "type": "function"
    },
    {
      "inputs": [
        {
          "internalType": "bytes32",
          "name": "role",
          "type": "bytes32"
        },
        {
          "internalType": "address",
          "name": "account",
          "type": "address"
        }
      ],
      "name": "renounceRole",
      "outputs": [],
      "stateMutability": "nonpayable",
      "type": "function"
    },
    {
      "inputs": [
        {
          "internalType": "bytes32",
          "name": "role",
          "type": "bytes32"
        },
        {
          "internalType": "address",
          "name": "account",
          "type": "address"
        }
      ],
      "name": "revokeRole",
      "outputs": [],
      "stateMutability": "nonpayable",
      "type": "function"
    },
    {
      "inputs": [],
      "name": "router",
      "outputs": [
        {
          "internalType": "contract AggregationRouterV5Interface",
          "name": "",
          "type": "address"
        }
      ],
      "stateMutability": "view",
      "type": "function"
    },
    {
      "inputs": [
        {
          "internalType": "bytes4",
          "name": "interfaceId",
          "type": "bytes4"
        }
      ],
      "name": "supportsInterface",
      "outputs": [
        {
          "internalType": "bool",
          "name": "",
          "type": "bool"
        }
      ],
      "stateMutability": "view",
      "type": "function"
    },
    {
      "inputs": [],
      "name": "symbol",
      "outputs": [
        {
          "internalType": "string",
          "name": "",
          "type": "string"
        }
      ],
      "stateMutability": "view",
      "type": "function"
    },
    {
      "inputs": [],
      "name": "totalSupply",
      "outputs": [
        {
          "internalType": "uint256",
          "name": "",
          "type": "uint256"
        }
      ],
      "stateMutability": "view",
      "type": "function"
    },
    {
      "inputs": [],
      "name": "totalValue",
      "outputs": [
        {
          "internalType": "uint256",
          "name": "total",
          "type": "uint256"
        }
      ],
      "stateMutability": "view",
      "type": "function"
    },
    {
      "inputs": [
        {
          "internalType": "address",
          "name": "to",
          "type": "address"
        },
        {
          "internalType": "uint256",
          "name": "amount",
          "type": "uint256"
        }
      ],
      "name": "transfer",
      "outputs": [
        {
          "internalType": "bool",
          "name": "",
          "type": "bool"
        }
      ],
      "stateMutability": "nonpayable",
      "type": "function"
    },
    {
      "inputs": [
        {
          "internalType": "address",
          "name": "from",
          "type": "address"
        },
        {
          "internalType": "address",
          "name": "to",
          "type": "address"
        },
        {
          "internalType": "uint256",
          "name": "amount",
          "type": "uint256"
        }
      ],
      "name": "transferFrom",
      "outputs": [
        {
          "internalType": "bool",
          "name": "",
          "type": "bool"
        }
      ],
      "stateMutability": "nonpayable",
      "type": "function"
    },
    {
      "inputs": [
        {
          "internalType": "uint256",
          "name": "_burnAmount",
          "type": "uint256"
        },
        {
          "internalType": "contract IUniswapV2Router01",
          "name": "_uniRouter",
          "type": "address"
        }
      ],
      "name": "uniWithdraw",
      "outputs": [],
      "stateMutability": "nonpayable",
      "type": "function"
    },
    {
      "inputs": [
        {
          "internalType": "address",
          "name": "user",
          "type": "address"
        }
      ],
      "name": "userInfo",
      "outputs": [
        {
          "internalType": "uint256",
          "name": "usdValue",
          "type": "uint256"
        },
        {
          "internalType": "uint256",
          "name": "tokenBalance",
          "type": "uint256"
        },
        {
          "internalType": "bool",
          "name": "isPorfolioEngineer",
          "type": "bool"
        }
      ],
      "stateMutability": "view",
      "type": "function"
    },
    {
      "inputs": [
        {
          "internalType": "uint256",
          "name": "_burnAmount",
          "type": "uint256"
        }
      ],
      "name": "withdraw",
      "outputs": [],
      "stateMutability": "nonpayable",
      "type": "function"
    }
  ],
  "transactionHash": "0x72d5d026eff7370d5fb677ac7604719cbee29037b04b75046f59d709557d2311",
  "args": [
    "Inzen: DeFi",
    "0x2791Bca1f2de4661ED88A30C99A7a9449Aa84174",
    "0x1111111254EEB25477B68fb85Ed929f73A960582",
    [
      [
        "0xb33EaAd8d922B1083446DC23f610c2567fB5180f",
        "0xdf0Fb4e4F928d2dCB76f438575fDD8682386e13C",
        0,
        10
      ],
      [
        "0xD6DF932A45C0f255f85145f286eA0b292B21C90B",
        "0x72484B12719E23115761D5DA1646945632979bB6",
        0,
        10
      ],
      [
        "0x172370d5Cd63279eFa6d502DAB29171933a610AF",
        "0x336584C8E6Dc19637A5b36206B1c79923111b405",
        0,
        10
      ],
      [
        "0x50B728D8D964fd00C2d0AAD81718b71311feF68a",
        "0xbF90A5D9B6EE9019028dbFc2a9E50056d5252894",
        0,
        10
      ],
      [
        "0x9c2C5fd7b07E95EE044DDeba0E97a665F142394f",
        "0x443C5116CdF663Eb387e72C688D276e702135C87",
        0,
        20
      ],
      [
        "0x8505b9d2254A7Ae468c0E9dd10Ccea3A837aef5c",
        "0x2A8758b7257102461BC958279054e372C2b1bDE6",
        0,
        10
      ],
      [
        "0x9a71012B13CA4d3D0Cdc72A177DF3ef03b0E76A3",
        "0xD106B538F2A868c28Ca1Ec7E298C3325E0251d66",
        0,
        10
      ],
      [
        "0x0b3F868E0BE5597D5DB7fEB59E1CADBb0fdDa50a",
        "0x49B0c695039243BBfEb8EcD054EB70061fd54aa0",
        0,
        10
      ],
      [
        "0xDA537104D6A5edd53c6fBba9A898708E465260b6",
        "0x9d3A43c111E7b2C6601705D9fcF7a70c95b1dc55",
        0,
        10
      ]
    ]
  ],
  "solcInputHash": "e29fecaa1f4ab5c7c2f3a018911be6e2",
  "bytecode": "0x6101406040523480156200001257600080fd5b506040516200533c3803806200533c83398101604081905262000035916200071a565b8380604051806040016040528060018152602001603160f81b815250866040518060400160405280600381526020016224ad2360e91b81525081600590816200007f9190620008a8565b5060066200008e8282620008a8565b5050825160208085019190912083518483012060e08290526101008190524660a0818152604080517f8b73c3c69bb8fe3d512ecc4cf759cc79239f7b179b0ffacaa9a75d522b39400f81880181905281830187905260608201869052608082019490945230818401528151808203909301835260c0019052805194019390932091935091906080523060c0526101205250506001600c555050601080546001600160a01b038681166001600160a01b031992831617909255600f805492861692909116919091179055506000805b8251811015620003a657600e60008483815181106200017f576200017f62000974565b6020026020010151600001516001600160a01b03166001600160a01b0316815260200190815260200160002054600014620001f45760405162461bcd60e51b815260206004820152601060248201526f111d5c1b1a58d85d195908185cdcd95d60821b60448201526064015b60405180910390fd5b82818151811062000209576200020962000974565b6020908102919091010151516010546001600160a01b0390811691161480159062000254575082818151811062000244576200024462000974565b6020026020010151604001516000145b620002925760405162461bcd60e51b815260206004820152600d60248201526c125b9d985b1a5908185cdcd95d609a1b6044820152606401620001eb565b600d838281518110620002a957620002a962000974565b6020908102919091018101518254600181810185556000948552838520835160049093020180546001600160a01b039384166001600160a01b031991821617825594840151918101805492909316919094161790556040810151600283015560600151600390910155600d5484519091600e9186908590811062000331576200033162000974565b6020026020010151600001516001600160a01b03166001600160a01b031681526020019081526020016000208190555082818151811062000376576200037662000974565b602002602001015160600151826200038f9190620009a0565b9150806200039d81620009b6565b9150506200015c565b5080606414620003f95760405162461bcd60e51b815260206004820152601560248201527f496e76616c6964206173736574207765696768747300000000000000000000006044820152606401620001eb565b620004066000336200043d565b620004327ff00a4aad659dcbba275531a9827c18764184cf52c4475f08eb707c13f0854c0d336200043d565b5050505050620009d2565b6200044982826200044d565b5050565b6200046482826200049060201b6200222d1760201c565b60008281526001602090815260409091206200048b918390620022b162000530821b17901c565b505050565b6000828152602081815260408083206001600160a01b038516845290915290205460ff1662000449576000828152602081815260408083206001600160a01b03851684529091529020805460ff19166001179055620004ec3390565b6001600160a01b0316816001600160a01b0316837f2f8788117e7eff1d82e926ec794901d17c78024a50270940304540a733656f0d60405160405180910390a45050565b600062000547836001600160a01b03841662000550565b90505b92915050565b600081815260018301602052604081205462000599575081546001818101845560008481526020808220909301849055845484825282860190935260409020919091556200054a565b5060006200054a565b634e487b7160e01b600052604160045260246000fd5b604051608081016001600160401b0381118282101715620005dd57620005dd620005a2565b60405290565b604051601f8201601f191681016001600160401b03811182821017156200060e576200060e620005a2565b604052919050565b6001600160a01b03811681146200062c57600080fd5b50565b80516200063c8162000616565b919050565b600082601f8301126200065357600080fd5b815160206001600160401b03821115620006715762000671620005a2565b62000681818360051b01620005e3565b82815260079290921b84018101918181019086841115620006a157600080fd5b8286015b848110156200070f5760808189031215620006c05760008081fd5b620006ca620005b8565b8151620006d78162000616565b815281850151620006e88162000616565b818601526040828101519082015260608083015190820152835291830191608001620006a5565b509695505050505050565b600080600080608085870312156200073157600080fd5b84516001600160401b03808211156200074957600080fd5b818701915087601f8301126200075e57600080fd5b815181811115620007735762000773620005a2565b602062000789601f8301601f19168201620005e3565b8281528a828487010111156200079e57600080fd5b60005b83811015620007be578581018301518282018401528201620007a1565b5060008184018301529750620007d68982016200062f565b96505050620007e8604088016200062f565b93506060870151915080821115620007ff57600080fd5b506200080e8782880162000641565b91505092959194509250565b600181811c908216806200082f57607f821691505b6020821081036200085057634e487b7160e01b600052602260045260246000fd5b50919050565b601f8211156200048b57600081815260208120601f850160051c810160208610156200087f5750805b601f850160051c820191505b81811015620008a0578281556001016200088b565b505050505050565b81516001600160401b03811115620008c457620008c4620005a2565b620008dc81620008d584546200081a565b8462000856565b602080601f831160018114620009145760008415620008fb5750858301515b600019600386901b1c1916600185901b178555620008a0565b600085815260208120601f198616915b82811015620009455788860151825594840194600190910190840162000924565b5085821015620009645787850151600019600388901b60f8161c191681555b5050505050600190811b01905550565b634e487b7160e01b600052603260045260246000fd5b634e487b7160e01b600052601160045260246000fd5b808201808211156200054a576200054a6200098a565b600060018201620009cb57620009cb6200098a565b5060010190565b60805160a05160c05160e051610100516101205161491a62000a2260003960006127d401526000612823015260006127fe0152600061275701526000612781015260006127ab015261491a6000f3fe608060405234801561001057600080fd5b50600436106102745760003560e01c80637ecebe0011610151578063ca15c873116100c3578063dd62ed3e11610087578063dd62ed3e146105ec578063ef1c48e3146105ff578063f1127ed814610612578063f3a730af1461064f578063f887ea4014610676578063ffab85731461068957600080fd5b8063ca15c87314610598578063d4c3eea0146105ab578063d505accf146105b3578063d547741f146105c6578063da489997146105d957600080fd5b80639ab24eb0116101155780639ab24eb014610531578063a217fddf14610544578063a457c2d71461054c578063a9059cbb1461055f578063c3cda52014610572578063c55dae631461058557600080fd5b80637ecebe00146104dd5780638e539e8c146104f05780639010d07c1461050357806391d148541461051657806395d89b411461052957600080fd5b80633644e515116101ea5780633a46b1a8116101ae5780633a46b1a81461040f57806343106bff14610422578063587cde1e146104355780635c19a95c146104795780636fcfff451461048c57806370a08231146104b457600080fd5b80633644e515146103b657806336568abe146103be578063392179c6146103d157806339509351146103e45780633a2056f1146103f757600080fd5b806323b872dd1161023c57806323b872dd1461030b578063248a9ca31461031e5780632e1a7d4d146103415780632e63a156146103565780632f2ff15d14610394578063313ce567146103a757600080fd5b806301ffc9a71461027957806306fdde03146102a1578063095ea7b3146102b657806318160ddd146102c95780631959a002146102db575b600080fd5b61028c610287366004613c3f565b61069c565b60405190151581526020015b60405180910390f35b6102a96106c7565b6040516102989190613cb9565b61028c6102c4366004613ce1565b610759565b6004545b604051908152602001610298565b6102ee6102e9366004613d0d565b610771565b604080519384526020840192909252151590820152606001610298565b61028c610319366004613d2a565b6107f2565b6102cd61032c366004613d6b565b60009081526020819052604090206001015490565b61035461034f366004613d6b565b610816565b005b610369610364366004613d6b565b61094d565b604080516001600160a01b039586168152949093166020850152918301526060820152608001610298565b6103546103a2366004613d84565b610993565b60405160128152602001610298565b6102cd6109bd565b6103546103cc366004613d84565b6109cc565b6103546103df366004613dff565b610a4f565b61028c6103f2366004613ce1565b610dd0565b6103ff610df2565b6040516102989493929190613e40565b6102cd61041d366004613ce1565b610f2e565b610354610430366004613d84565b610fa8565b610461610443366004613d0d565b6001600160a01b039081166000908152600960205260409020541690565b6040516001600160a01b039091168152602001610298565b610354610487366004613d0d565b611238565b61049f61049a366004613d0d565b611242565b60405163ffffffff9091168152602001610298565b6102cd6104c2366004613d0d565b6001600160a01b031660009081526002602052604090205490565b6102cd6104eb366004613d0d565b611264565b6102cd6104fe366004613d6b565b611282565b610461610511366004613ed0565b6112de565b61028c610524366004613d84565b6112f6565b6102a961131f565b6102cd61053f366004613d0d565b61132e565b6102cd600081565b61028c61055a366004613ce1565b6113b5565b61028c61056d366004613ce1565b611430565b610354610580366004613f01565b61143e565b601054610461906001600160a01b031681565b6102cd6105a6366004613d6b565b611574565b6102cd61158b565b6103546105c1366004613f5d565b611813565b6103546105d4366004613d84565b611977565b6103546105e7366004613fce565b61199c565b6102cd6105fa366004613fce565b611b43565b61035461060d36600461408d565b611b6e565b610625610620366004614117565b611cc9565b60408051825163ffffffff1681526020928301516001600160e01b03169281019290925201610298565b6102cd7ff00a4aad659dcbba275531a9827c18764184cf52c4475f08eb707c13f0854c0d81565b600f54610461906001600160a01b031681565b61035461069736600461414e565b611d4d565b60006001600160e01b03198216635a05180f60e01b14806106c157506106c1826122c6565b92915050565b6060600580546106d690614199565b80601f016020809104026020016040519081016040528092919081815260200182805461070290614199565b801561074f5780601f106107245761010080835404028352916020019161074f565b820191906000526020600020905b81548152906001019060200180831161073257829003601f168201915b5050505050905090565b6000336107678185856122fb565b5060019392505050565b6000806000610795846001600160a01b031660009081526002602052604090205490565b915081156107c057600454826107a961158b565b6107b391906141e3565b6107bd9190614210565b92505b6107ea7ff00a4aad659dcbba275531a9827c18764184cf52c4475f08eb707c13f0854c0d856112f6565b929491935050565b60003361080085828561241f565b61080b858585612499565b506001949350505050565b61081e61264a565b60005b600d548110156108f957600061083660045490565b83600d848154811061084a5761084a614232565b90600052602060002090600402016002015461086691906141e3565b6108709190614210565b905080600d838154811061088657610886614232565b906000526020600020906004020160020160008282546108a69190614248565b925050819055506108e63382600d85815481106108c5576108c5614232565b60009182526020909120600490910201546001600160a01b031691906126a3565b50806108f18161425b565b915050610821565b506109043382612706565b60408051600081526020810183905233917ff279e6a1f5e320cca91135676d9cb6e44ca8a08c0b88342bcdb1144f6511b568910160405180910390a261094a6001600c55565b50565b600d818154811061095d57600080fd5b600091825260209091206004909102018054600182015460028301546003909301546001600160a01b0392831694509116919084565b6000828152602081905260409020600101546109ae8161271e565b6109b88383612728565b505050565b60006109c761274a565b905090565b6001600160a01b0381163314610a415760405162461bcd60e51b815260206004820152602f60248201527f416363657373436f6e74726f6c3a2063616e206f6e6c792072656e6f756e636560448201526e103937b632b9903337b91039b2b63360891b60648201526084015b60405180910390fd5b610a4b8282612871565b5050565b7ff00a4aad659dcbba275531a9827c18764184cf52c4475f08eb707c13f0854c0d610a798161271e565b610a8161264a565b6040805160e081018252600080825260208201819052918101829052606081018290526080810182905260a0810182905260c0810182905260608060005b86811015610dc157878782818110610ad957610ad9614232565b9050602002810190610aeb9190614274565b610af99160049082906142ba565b810190610b069190614353565b6060830151939850919650945092506001600160a01b03163014610b5f5760405162461bcd60e51b815260206004820152601060248201526f24b73b30b634b2103932b1b2b4bb32b960811b6044820152606401610a38565b83516001600160a01b03166000908152600e602052604090205415801590610ba357506020808501516001600160a01b03166000908152600e909152604090205415155b610be45760405162461bcd60e51b815260206004820152601260248201527124b73b30b634b21039bbb0b8103a37b5b2b760711b6044820152606401610a38565b600f5460808501518551610c06926001600160a01b0391821692911690612893565b600f546040516312aa3caf60e01b815260009182916001600160a01b03909116906312aa3caf90610c41908a908a908a908a90600401614457565b60408051808303816000875af1158015610c5f573d6000803e3d6000fd5b505050506040513d601f19601f82011682018060405250810190610c8391906144dc565b87516001600160a01b03166000908152600e602052604090205491935091508190600d90610cb390600190614248565b81548110610cc357610cc3614232565b90600052602060002090600402016002016000828254610ce39190614248565b90915550506020808701516001600160a01b03166000908152600e90915260409020548290600d90610d1790600190614248565b81548110610d2757610d27614232565b90600052602060002090600402016002016000828254610d479190614500565b9250508190555085602001516001600160a01b031686600001516001600160a01b03167ffea7a9a6e25cd0bbbfa80ce0c7646e61ee5e0551b3fdaaff0642e6f6adcc72e28385604051610da4929190918252602082015260400190565b60405180910390a350508080610db99061425b565b915050610abf565b50505050506109b86001600c55565b600033610767818585610de38383611b43565b610ded9190614500565b6122fb565b60606000806060610e016106c7565b9350610e0b61158b565b9250610e1660045490565b600d549092506001600160401b03811115610e3357610e33613ffc565b604051908082528060200260200182016040528015610e8557816020015b604080516080810182526000808252602080830182905292820181905260608201528252600019909201910181610e515790505b50905060005b600d54811015610f2757600d8181548110610ea857610ea8614232565b600091825260209182902060408051608081018252600490930290910180546001600160a01b0390811684526001820154169383019390935260028301549082015260039091015460608201528251839083908110610f0957610f09614232565b60200260200101819052508080610f1f9061425b565b915050610e8b565b5090919293565b6000438210610f7f5760405162461bcd60e51b815260206004820152601f60248201527f4552433230566f7465733a20626c6f636b206e6f7420796574206d696e6564006044820152606401610a38565b6001600160a01b0383166000908152600a60205260409020610fa190836129a8565b9392505050565b610fb061264a565b604080516002808252606082018352600092602083019080368337505060105482519293506001600160a01b0316918391506001908110610ff357610ff3614232565b60200260200101906001600160a01b031690816001600160a01b0316815250506000805b600d548110156111e657600061102c60045490565b86600d848154811061104057611040614232565b90600052602060002090600402016002015461105c91906141e3565b6110669190614210565b905080600d838154811061107c5761107c614232565b9060005260206000209060040201600201600082825461109c9190614248565b925050819055506110dc8582600d85815481106110bb576110bb614232565b60009182526020909120600490910201546001600160a01b03169190612893565b600d82815481106110ef576110ef614232565b6000918252602082206004909102015485516001600160a01b0390911691869161111b5761111b614232565b6001600160a01b0392831660209182029290920101526040516338ed173960e01b81526000918716906338ed17399061116090859085908a9033904290600401614513565b6000604051808303816000875af115801561117f573d6000803e3d6000fd5b505050506040513d6000823e601f3d908101601f191682016040526111a79190810190614584565b9050806000815181106111bc576111bc614232565b6020026020010151846111cf9190614500565b9350505080806111de9061425b565b915050611017565b506111f13385612706565b604080518281526020810186905233917ff279e6a1f5e320cca91135676d9cb6e44ca8a08c0b88342bcdb1144f6511b568910160405180910390a25050610a4b6001600c55565b61094a3382612a9f565b6001600160a01b0381166000908152600a60205260408120546106c190612b19565b6001600160a01b0381166000908152600760205260408120546106c1565b60004382106112d35760405162461bcd60e51b815260206004820152601f60248201527f4552433230566f7465733a20626c6f636b206e6f7420796574206d696e6564006044820152606401610a38565b6106c1600b836129a8565b6000828152600160205260408120610fa19083612b7e565b6000918252602082815260408084206001600160a01b0393909316845291905290205460ff1690565b6060600680546106d690614199565b6001600160a01b0381166000908152600a602052604081205480156113a2576001600160a01b0383166000908152600a60205260409020611370600183614248565b8154811061138057611380614232565b60009182526020909120015464010000000090046001600160e01b03166113a5565b60005b6001600160e01b03169392505050565b600033816113c38286611b43565b9050838110156114235760405162461bcd60e51b815260206004820152602560248201527f45524332303a2064656372656173656420616c6c6f77616e63652062656c6f77604482015264207a65726f60d81b6064820152608401610a38565b61080b82868684036122fb565b600033610767818585612499565b8342111561148e5760405162461bcd60e51b815260206004820152601d60248201527f4552433230566f7465733a207369676e617475726520657870697265640000006044820152606401610a38565b604080517fe48329057bfd03d55e49b547132e39cffd9c1820ad7b9d4c5307691425d15adf60208201526001600160a01b038816918101919091526060810186905260808101859052600090611508906115009060a00160405160208183030381529060405280519060200120612b8a565b858585612bd8565b905061151381612c02565b86146115615760405162461bcd60e51b815260206004820152601960248201527f4552433230566f7465733a20696e76616c6964206e6f6e6365000000000000006044820152606401610a38565b61156b8188612a9f565b50505050505050565b60008181526001602052604081206106c190612c2a565b6000805b600d5481101561180f57600d81815481106115ac576115ac614232565b906000526020600020906004020160020154600003156117fd576000600d82815481106115db576115db614232565b906000526020600020906004020160010160009054906101000a90046001600160a01b03166001600160a01b031663feaf968c6040518163ffffffff1660e01b815260040160a060405180830381865afa15801561163d573d6000803e3d6000fd5b505050506040513d601f19601f820116820180604052508101906116619190614628565b5050509150506000600d838154811061167c5761167c614232565b906000526020600020906004020160010160009054906101000a90046001600160a01b03166001600160a01b031663313ce5676040518163ffffffff1660e01b8152600401602060405180830381865afa1580156116de573d6000803e3d6000fd5b505050506040513d601f19601f820116820180604052508101906117029190614678565b90506000600d848154811061171957611719614232565b6000918252602091829020600491820201546040805163313ce56760e01b815290516001600160a01b039092169363313ce567938281019391928290030181865afa15801561176c573d6000803e3d6000fd5b505050506040513d601f19601f820116820180604052508101906117909190614678565b9050600661179e8284614695565b6117a891906146ae565b6117b390600a6147ab565b600d85815481106117c6576117c6614232565b906000526020600020906004020160020154846117e391906141e3565b6117ed9190614210565b6117f79086614500565b94505050505b806118078161425b565b91505061158f565b5090565b834211156118635760405162461bcd60e51b815260206004820152601d60248201527f45524332305065726d69743a206578706972656420646561646c696e650000006044820152606401610a38565b60007f6e71edae12b1b97f4d1f60370fef10105fa2faae0126114a169c64845d6126c98888886118928c612c02565b6040805160208101969096526001600160a01b0394851690860152929091166060840152608083015260a082015260c0810186905260e00160405160208183030381529060405280519060200120905060006118ed82612b8a565b905060006118fd82878787612bd8565b9050896001600160a01b0316816001600160a01b0316146119605760405162461bcd60e51b815260206004820152601e60248201527f45524332305065726d69743a20696e76616c6964207369676e617475726500006044820152606401610a38565b61196b8a8a8a6122fb565b50505050505050505050565b6000828152602081905260409020600101546119928161271e565b6109b88383612871565b60006119a78161271e565b6001600160a01b0383166000908152600e602052604090205415611a005760405162461bcd60e51b815260206004820152601060248201526f111d5c1b1a58d85d195908185cdcd95d60821b6044820152606401610a38565b604080516080810182526001600160a01b038581168083528582166020808501828152600086880181815260608801828152600d805460018101825581855299516004909a027fd7b6990105719101dabeb77144f2a3385c8033acd3af97e9423a695e81ad1eb5810180549b8b166001600160a01b03199c8d1617905594517fd7b6990105719101dabeb77144f2a3385c8033acd3af97e9423a695e81ad1eb68601805491909a169a1699909917909755517fd7b6990105719101dabeb77144f2a3385c8033acd3af97e9423a695e81ad1eb783015594517fd7b6990105719101dabeb77144f2a3385c8033acd3af97e9423a695e81ad1eb8909101559354828452600e8552928590209290925592519081527fb9e746ec3f52799088442f71f6fe7c9c3c113f3077abc2b47a0db8d5e3ee8259910160405180910390a2505050565b6001600160a01b03918216600090815260036020908152604080832093909416825291909152205490565b6000611b798161271e565b600d54825114611bbc5760405162461bcd60e51b815260206004820152600e60248201526d092dcecc2d8d2c840d8cadccee8d60931b6044820152606401610a38565b6000805b8351811015611c4457838181518110611bdb57611bdb614232565b6020026020010151600d8281548110611bf657611bf6614232565b906000526020600020906004020160030181905550838181518110611c1d57611c1d614232565b602002602001015182611c309190614500565b915080611c3c8161425b565b915050611bc0565b5080606414611c8d5760405162461bcd60e51b8152602060048201526015602482015274496e76616c6964206173736574207765696768747360581b6044820152606401610a38565b7fdce71683d515dfcb7f5ac18efdc693992823198f99ece398a4e31cfe98a96c6e83604051611cbc91906147ba565b60405180910390a1505050565b60408051808201909152600080825260208201526001600160a01b0383166000908152600a60205260409020805463ffffffff8416908110611d0d57611d0d614232565b60009182526020918290206040805180820190915291015463ffffffff8116825264010000000090046001600160e01b0316918101919091529392505050565b611d5561264a565b600d548114611d9a5760405162461bcd60e51b8152602060048201526011602482015270496e76616c69642073776170206461746160781b6044820152606401610a38565b6000611da461158b565b601054909150611dbf906001600160a01b0316333087612c34565b600f54601054611ddc916001600160a01b03918216911686612893565b6040805160e081018252600080825260208201819052918101829052606081018290526080810182905260a0810182905260c08101829052819060608060005b878110156120af57888882818110611e3657611e36614232565b9050602002810190611e489190614274565b611e569160049082906142ba565b810190611e639190614353565b6060830151939850919650945092506001600160a01b03163014611ebc5760405162461bcd60e51b815260206004820152601060248201526f24b73b30b634b2103932b1b2b4bb32b960811b6044820152606401610a38565b60105484516001600160a01b039081169116148015611f0e5750600d8181548110611ee957611ee9614232565b600091825260209182902060049091020154908501516001600160a01b039081169116145b611f4f5760405162461bcd60e51b815260206004820152601260248201527124b73b30b634b21039bbb0b8103a37b5b2b760711b6044820152606401610a38565b60648a600d8381548110611f6557611f65614232565b906000526020600020906004020160030154611f8191906141e3565b611f8b9190614210565b846080015114611fd35760405162461bcd60e51b8152602060048201526013602482015272125b9d985b1a59081cddd85c08185b5bdd5b9d606a1b6044820152606401610a38565b600f546040516312aa3caf60e01b815260009182916001600160a01b03909116906312aa3caf9061200e908a908a908a908a90600401614457565b60408051808303816000875af115801561202c573d6000803e3d6000fd5b505050506040513d601f19601f8201168201806040525081019061205091906144dc565b9150915081600d848154811061206857612068614232565b906000526020600020906004020160020160008282546120889190614500565b9091555061209890508189614500565b9750505080806120a79061425b565b915050611e1c565b50888511156121005760405162461bcd60e51b815260206004820152601760248201527f5370656e74206d6f7265207468616e206465706f7369740000000000000000006044820152606401610a38565b888510156121295761212933612116878c614248565b6010546001600160a01b031691906126a3565b600061213361158b565b90508087106121925760405162461bcd60e51b815260206004820152602560248201527f4e65772076616c75652063616e206e6f74206c657373207468616e206f6c642060448201526476616c756560d81b6064820152608401610a38565b60006121a38264e8d4a510006141e3565b905087156121d657876121b560045490565b6121bf8a85614248565b6121c991906141e3565b6121d39190614210565b90505b6121e03382612c6c565b604080518881526020810183905233917f90890809c654f11d6e72a28fa60149770a0d11ec6c92319d6ceb2bb0a4ea1a15910160405180910390a250505050505050506109b86001600c55565b61223782826112f6565b610a4b576000828152602081815260408083206001600160a01b03851684529091529020805460ff1916600117905561226d3390565b6001600160a01b0316816001600160a01b0316837f2f8788117e7eff1d82e926ec794901d17c78024a50270940304540a733656f0d60405160405180910390a45050565b6000610fa1836001600160a01b038416612cf6565b60006001600160e01b03198216637965db0b60e01b14806106c157506301ffc9a760e01b6001600160e01b03198316146106c1565b6001600160a01b03831661235d5760405162461bcd60e51b8152602060048201526024808201527f45524332303a20617070726f76652066726f6d20746865207a65726f206164646044820152637265737360e01b6064820152608401610a38565b6001600160a01b0382166123be5760405162461bcd60e51b815260206004820152602260248201527f45524332303a20617070726f766520746f20746865207a65726f206164647265604482015261737360f01b6064820152608401610a38565b6001600160a01b0383811660008181526003602090815260408083209487168084529482529182902085905590518481527f8c5be1e5ebec7d5bd14f71427d1e84f3dd0314c0f7b2291e5b200ac8c7c3b925910160405180910390a3505050565b600061242b8484611b43565b9050600019811461249357818110156124865760405162461bcd60e51b815260206004820152601d60248201527f45524332303a20696e73756666696369656e7420616c6c6f77616e63650000006044820152606401610a38565b61249384848484036122fb565b50505050565b6001600160a01b0383166124fd5760405162461bcd60e51b815260206004820152602560248201527f45524332303a207472616e736665722066726f6d20746865207a65726f206164604482015264647265737360d81b6064820152608401610a38565b6001600160a01b03821661255f5760405162461bcd60e51b815260206004820152602360248201527f45524332303a207472616e7366657220746f20746865207a65726f206164647260448201526265737360e81b6064820152608401610a38565b6001600160a01b038316600090815260026020526040902054818110156125d75760405162461bcd60e51b815260206004820152602660248201527f45524332303a207472616e7366657220616d6f756e7420657863656564732062604482015265616c616e636560d01b6064820152608401610a38565b6001600160a01b0380851660008181526002602052604080822086860390559286168082529083902080548601905591517fddf252ad1be2c89b69c2b068fc378daa952ba7f163c4a11628f55a4df523b3ef906126379086815260200190565b60405180910390a3612493848484612d45565b6002600c540361269c5760405162461bcd60e51b815260206004820152601f60248201527f5265656e7472616e637947756172643a207265656e7472616e742063616c6c006044820152606401610a38565b6002600c55565b6040516001600160a01b0383166024820152604481018290526109b890849063a9059cbb60e01b906064015b60408051601f198184030181529190526020810180516001600160e01b03166001600160e01b031990931692909217909152612d77565b6127108282612e49565b612493600b612f8483612f90565b61094a81336130e4565b612732828261222d565b60008281526001602052604090206109b890826122b1565b6000306001600160a01b037f0000000000000000000000000000000000000000000000000000000000000000161480156127a357507f000000000000000000000000000000000000000000000000000000000000000046145b156127cd57507f000000000000000000000000000000000000000000000000000000000000000090565b50604080517f00000000000000000000000000000000000000000000000000000000000000006020808301919091527f0000000000000000000000000000000000000000000000000000000000000000828401527f000000000000000000000000000000000000000000000000000000000000000060608301524660808301523060a0808401919091528351808403909101815260c0909201909252805191012090565b61287b828261313d565b60008281526001602052604090206109b890826131a2565b80158061290d5750604051636eb1769f60e11b81523060048201526001600160a01b03838116602483015284169063dd62ed3e90604401602060405180830381865afa1580156128e7573d6000803e3d6000fd5b505050506040513d601f19601f8201168201806040525081019061290b91906147fe565b155b6129785760405162461bcd60e51b815260206004820152603660248201527f5361666545524332303a20617070726f76652066726f6d206e6f6e2d7a65726f60448201527520746f206e6f6e2d7a65726f20616c6c6f77616e636560501b6064820152608401610a38565b6040516001600160a01b0383166024820152604481018290526109b890849063095ea7b360e01b906064016126cf565b815460009081816005811115612a025760006129c3846131b7565b6129cd9085614248565b600088815260209020909150869082015463ffffffff1611156129f257809150612a00565b6129fd816001614500565b92505b505b80821015612a4f576000612a16838361329f565b600088815260209020909150869082015463ffffffff161115612a3b57809150612a49565b612a46816001614500565b92505b50612a02565b8015612a8957612a7286612a64600184614248565b600091825260209091200190565b5464010000000090046001600160e01b0316612a8c565b60005b6001600160e01b03169695505050505050565b6001600160a01b03828116600081815260096020818152604080842080546002845282862054949093528787166001600160a01b03198416811790915590519190951694919391928592917f3134e8a2e6d97e929a7e54011ea5485d7d196dd5f0ba4d4ef95803e8e3fc257f9190a46124938284836132ba565b600063ffffffff82111561180f5760405162461bcd60e51b815260206004820152602660248201527f53616665436173743a2076616c756520646f65736e27742066697420696e203360448201526532206269747360d01b6064820152608401610a38565b6000610fa183836133f7565b60006106c1612b9761274a565b8360405161190160f01b6020820152602281018390526042810182905260009060620160405160208183030381529060405280519060200120905092915050565b6000806000612be987878787613421565b91509150612bf6816134e5565b5090505b949350505050565b6001600160a01b03811660009081526007602052604090208054600181018255905b50919050565b60006106c1825490565b6040516001600160a01b03808516602483015283166044820152606481018290526124939085906323b872dd60e01b906084016126cf565b612c76828261362f565b6004546001600160e01b031015612ce85760405162461bcd60e51b815260206004820152603060248201527f4552433230566f7465733a20746f74616c20737570706c79207269736b73206f60448201526f766572666c6f77696e6720766f74657360801b6064820152608401610a38565b612493600b6136f883612f90565b6000818152600183016020526040812054612d3d575081546001818101845560008481526020808220909301849055845484825282860190935260409020919091556106c1565b5060006106c1565b6001600160a01b038381166000908152600960205260408082205485841683529120546109b8929182169116836132ba565b6000612dcc826040518060400160405280602081526020017f5361666545524332303a206c6f772d6c6576656c2063616c6c206661696c6564815250856001600160a01b03166137049092919063ffffffff16565b8051909150156109b85780806020019051810190612dea9190614817565b6109b85760405162461bcd60e51b815260206004820152602a60248201527f5361666545524332303a204552433230206f7065726174696f6e20646964206e6044820152691bdd081cdd58d8d9595960b21b6064820152608401610a38565b6001600160a01b038216612ea95760405162461bcd60e51b815260206004820152602160248201527f45524332303a206275726e2066726f6d20746865207a65726f206164647265736044820152607360f81b6064820152608401610a38565b6001600160a01b03821660009081526002602052604090205481811015612f1d5760405162461bcd60e51b815260206004820152602260248201527f45524332303a206275726e20616d6f756e7420657863656564732062616c616e604482015261636560f01b6064820152608401610a38565b6001600160a01b03831660008181526002602090815260408083208686039055600480548790039055518581529192917fddf252ad1be2c89b69c2b068fc378daa952ba7f163c4a11628f55a4df523b3ef910160405180910390a36109b883600084612d45565b6000610fa18284614248565b82546000908190818115612fdd57612fad87612a64600185614248565b60408051808201909152905463ffffffff8116825264010000000090046001600160e01b03166020820152612ff2565b60408051808201909152600080825260208201525b905080602001516001600160e01b0316935061301284868863ffffffff16565b925060008211801561302a5750805163ffffffff1643145b1561306f5761303883613713565b61304788612a64600186614248565b80546001600160e01b03929092166401000000000263ffffffff9092169190911790556130da565b86604051806040016040528061308443612b19565b63ffffffff16815260200161309886613713565b6001600160e01b0390811690915282546001810184556000938452602093849020835194909301519091166401000000000263ffffffff909316929092179101555b5050935093915050565b6130ee82826112f6565b610a4b576130fb8161377c565b61310683602061378e565b604051602001613117929190614839565b60408051601f198184030181529082905262461bcd60e51b8252610a3891600401613cb9565b61314782826112f6565b15610a4b576000828152602081815260408083206001600160a01b0385168085529252808320805460ff1916905551339285917ff6391f5c32d9c69d2a47ea670b442974b53935d1edc7fd64eb21e047a839171b9190a45050565b6000610fa1836001600160a01b038416613929565b6000816000036131c957506000919050565b600060016131d684613a1c565b901c6001901b905060018184816131ef576131ef6141fa565b048201901c90506001818481613207576132076141fa565b048201901c9050600181848161321f5761321f6141fa565b048201901c90506001818481613237576132376141fa565b048201901c9050600181848161324f5761324f6141fa565b048201901c90506001818481613267576132676141fa565b048201901c9050600181848161327f5761327f6141fa565b048201901c9050610fa181828581613299576132996141fa565b04613ab0565b60006132ae6002848418614210565b610fa190848416614500565b816001600160a01b0316836001600160a01b0316141580156132dc5750600081115b156109b8576001600160a01b0383161561336a576001600160a01b0383166000908152600a60205260408120819061331790612f8485612f90565b91509150846001600160a01b03167fdec2bacdd2f05b59de34da9b523dff8be42e5e38e818c82fdb0bae774387a724838360405161335f929190918252602082015260400190565b60405180910390a250505b6001600160a01b038216156109b8576001600160a01b0382166000908152600a6020526040812081906133a0906136f885612f90565b91509150836001600160a01b03167fdec2bacdd2f05b59de34da9b523dff8be42e5e38e818c82fdb0bae774387a72483836040516133e8929190918252602082015260400190565b60405180910390a25050505050565b600082600001828154811061340e5761340e614232565b9060005260206000200154905092915050565b6000807f7fffffffffffffffffffffffffffffff5d576e7357a4501ddfe92f46681b20a083111561345857506000905060036134dc565b6040805160008082526020820180845289905260ff881692820192909252606081018690526080810185905260019060a0016020604051602081039080840390855afa1580156134ac573d6000803e3d6000fd5b5050604051601f1901519150506001600160a01b0381166134d5576000600192509250506134dc565b9150600090505b94509492505050565b60008160048111156134f9576134f96148ae565b036135015750565b6001816004811115613515576135156148ae565b036135625760405162461bcd60e51b815260206004820152601860248201527f45434453413a20696e76616c6964207369676e617475726500000000000000006044820152606401610a38565b6002816004811115613576576135766148ae565b036135c35760405162461bcd60e51b815260206004820152601f60248201527f45434453413a20696e76616c6964207369676e6174757265206c656e677468006044820152606401610a38565b60038160048111156135d7576135d76148ae565b0361094a5760405162461bcd60e51b815260206004820152602260248201527f45434453413a20696e76616c6964207369676e6174757265202773272076616c604482015261756560f01b6064820152608401610a38565b6001600160a01b0382166136855760405162461bcd60e51b815260206004820152601f60248201527f45524332303a206d696e7420746f20746865207a65726f2061646472657373006044820152606401610a38565b80600460008282546136979190614500565b90915550506001600160a01b0382166000818152600260209081526040808320805486019055518481527fddf252ad1be2c89b69c2b068fc378daa952ba7f163c4a11628f55a4df523b3ef910160405180910390a3610a4b60008383612d45565b6000610fa18284614500565b6060612bfa8484600085613ac6565b60006001600160e01b0382111561180f5760405162461bcd60e51b815260206004820152602760248201527f53616665436173743a2076616c756520646f65736e27742066697420696e20326044820152663234206269747360c81b6064820152608401610a38565b60606106c16001600160a01b03831660145b6060600061379d8360026141e3565b6137a8906002614500565b6001600160401b038111156137bf576137bf613ffc565b6040519080825280601f01601f1916602001820160405280156137e9576020820181803683370190505b509050600360fc1b8160008151811061380457613804614232565b60200101906001600160f81b031916908160001a905350600f60fb1b8160018151811061383357613833614232565b60200101906001600160f81b031916908160001a90535060006138578460026141e3565b613862906001614500565b90505b60018111156138da576f181899199a1a9b1b9c1cb0b131b232b360811b85600f166010811061389657613896614232565b1a60f81b8282815181106138ac576138ac614232565b60200101906001600160f81b031916908160001a90535060049490941c936138d3816148c4565b9050613865565b508315610fa15760405162461bcd60e51b815260206004820181905260248201527f537472696e67733a20686578206c656e67746820696e73756666696369656e746044820152606401610a38565b60008181526001830160205260408120548015613a1257600061394d600183614248565b855490915060009061396190600190614248565b90508181146139c657600086600001828154811061398157613981614232565b90600052602060002001549050808760000184815481106139a4576139a4614232565b6000918252602080832090910192909255918252600188019052604090208390555b85548690806139d7576139d76148db565b6001900381819060005260206000200160009055905585600101600086815260200190815260200160002060009055600193505050506106c1565b60009150506106c1565b600080608083901c15613a3157608092831c92015b604083901c15613a4357604092831c92015b602083901c15613a5557602092831c92015b601083901c15613a6757601092831c92015b600883901c15613a7957600892831c92015b600483901c15613a8b57600492831c92015b600283901c15613a9d57600292831c92015b600183901c156106c15760010192915050565b6000818310613abf5781610fa1565b5090919050565b606082471015613b275760405162461bcd60e51b815260206004820152602660248201527f416464726573733a20696e73756666696369656e742062616c616e636520666f6044820152651c8818d85b1b60d21b6064820152608401610a38565b600080866001600160a01b03168587604051613b4391906148f1565b60006040518083038185875af1925050503d8060008114613b80576040519150601f19603f3d011682016040523d82523d6000602084013e613b85565b606091505b5091509150613b9687838387613ba1565b979650505050505050565b60608315613c10578251600003613c09576001600160a01b0385163b613c095760405162461bcd60e51b815260206004820152601d60248201527f416464726573733a2063616c6c20746f206e6f6e2d636f6e74726163740000006044820152606401610a38565b5081612bfa565b612bfa8383815115613c255781518083602001fd5b8060405162461bcd60e51b8152600401610a389190613cb9565b600060208284031215613c5157600080fd5b81356001600160e01b031981168114610fa157600080fd5b60005b83811015613c84578181015183820152602001613c6c565b50506000910152565b60008151808452613ca5816020860160208601613c69565b601f01601f19169290920160200192915050565b602081526000610fa16020830184613c8d565b6001600160a01b038116811461094a57600080fd5b60008060408385031215613cf457600080fd5b8235613cff81613ccc565b946020939093013593505050565b600060208284031215613d1f57600080fd5b8135610fa181613ccc565b600080600060608486031215613d3f57600080fd5b8335613d4a81613ccc565b92506020840135613d5a81613ccc565b929592945050506040919091013590565b600060208284031215613d7d57600080fd5b5035919050565b60008060408385031215613d9757600080fd5b823591506020830135613da981613ccc565b809150509250929050565b60008083601f840112613dc657600080fd5b5081356001600160401b03811115613ddd57600080fd5b6020830191508360208260051b8501011115613df857600080fd5b9250929050565b60008060208385031215613e1257600080fd5b82356001600160401b03811115613e2857600080fd5b613e3485828601613db4565b90969095509350505050565b60006080808352613e5381840188613c8d565b60208781860152604087818701526060868403818801528388518086528486019150848a01955060005b81811015613ebe57865180516001600160a01b0390811685528782015116878501528581015186850152840151848401529585019591870191600101613e7d565b50909c9b505050505050505050505050565b60008060408385031215613ee357600080fd5b50508035926020909101359150565b60ff8116811461094a57600080fd5b60008060008060008060c08789031215613f1a57600080fd5b8635613f2581613ccc565b955060208701359450604087013593506060870135613f4381613ef2565b9598949750929560808101359460a0909101359350915050565b600080600080600080600060e0888a031215613f7857600080fd5b8735613f8381613ccc565b96506020880135613f9381613ccc565b955060408801359450606088013593506080880135613fb181613ef2565b9699959850939692959460a0840135945060c09093013592915050565b60008060408385031215613fe157600080fd5b8235613fec81613ccc565b91506020830135613da981613ccc565b634e487b7160e01b600052604160045260246000fd5b60405160e081016001600160401b038111828210171561403457614034613ffc565b60405290565b604051601f8201601f191681016001600160401b038111828210171561406257614062613ffc565b604052919050565b60006001600160401b0382111561408357614083613ffc565b5060051b60200190565b600060208083850312156140a057600080fd5b82356001600160401b038111156140b657600080fd5b8301601f810185136140c757600080fd5b80356140da6140d58261406a565b61403a565b81815260059190911b820183019083810190878311156140f957600080fd5b928401925b82841015613b96578335825292840192908401906140fe565b6000806040838503121561412a57600080fd5b823561413581613ccc565b9150602083013563ffffffff81168114613da957600080fd5b60008060006040848603121561416357600080fd5b8335925060208401356001600160401b0381111561418057600080fd5b61418c86828701613db4565b9497909650939450505050565b600181811c908216806141ad57607f821691505b602082108103612c2457634e487b7160e01b600052602260045260246000fd5b634e487b7160e01b600052601160045260246000fd5b80820281158282048414176106c1576106c16141cd565b634e487b7160e01b600052601260045260246000fd5b60008261422d57634e487b7160e01b600052601260045260246000fd5b500490565b634e487b7160e01b600052603260045260246000fd5b818103818111156106c1576106c16141cd565b60006001820161426d5761426d6141cd565b5060010190565b6000808335601e1984360301811261428b57600080fd5b8301803591506001600160401b038211156142a557600080fd5b602001915036819003821315613df857600080fd5b600080858511156142ca57600080fd5b838611156142d757600080fd5b5050820193919092039150565b600082601f8301126142f557600080fd5b81356001600160401b0381111561430e5761430e613ffc565b614321601f8201601f191660200161403a565b81815284602083860101111561433657600080fd5b816020850160208301376000918101602001919091529392505050565b60008060008084860361014081121561436b57600080fd5b853561437681613ccc565b945060e0601f198201121561438a57600080fd5b50614393614012565b60208601356143a181613ccc565b815260408601356143b181613ccc565b602082015260608601356143c481613ccc565b604082015260808601356143d781613ccc565b8060608301525060a0860135608082015260c086013560a082015260e086013560c0820152809350506101008501356001600160401b038082111561441b57600080fd5b614427888389016142e4565b935061012087013591508082111561443e57600080fd5b5061444b878288016142e4565b91505092959194509250565b600061014060018060a01b03808816845280875116602085015280602088015116604085015280604088015116606085015280606088015116608085015250608086015160a084015260a086015160c084015260c086015160e0840152806101008401526144c781840186613c8d565b9050828103610120840152613b968185613c8d565b600080604083850312156144ef57600080fd5b505080516020909101519092909150565b808201808211156106c1576106c16141cd565b600060a082018783526020878185015260a0604085015281875180845260c086019150828901935060005b818110156145635784516001600160a01b03168352938301939183019160010161453e565b50506001600160a01b03969096166060850152505050608001529392505050565b6000602080838503121561459757600080fd5b82516001600160401b038111156145ad57600080fd5b8301601f810185136145be57600080fd5b80516145cc6140d58261406a565b81815260059190911b820183019083810190878311156145eb57600080fd5b928401925b82841015613b96578351825292840192908401906145f0565b805169ffffffffffffffffffff8116811461462357600080fd5b919050565b600080600080600060a0868803121561464057600080fd5b61464986614609565b945060208601519350604086015192506060860151915061466c60808701614609565b90509295509295909350565b60006020828403121561468a57600080fd5b8151610fa181613ef2565b60ff81811683821601908111156106c1576106c16141cd565b60ff82811682821603908111156106c1576106c16141cd565b600181815b808511156147025781600019048211156146e8576146e86141cd565b808516156146f557918102915b93841c93908002906146cc565b509250929050565b600082614719575060016106c1565b81614726575060006106c1565b816001811461473c576002811461474657614762565b60019150506106c1565b60ff841115614757576147576141cd565b50506001821b6106c1565b5060208310610133831016604e8410600b8410161715614785575081810a6106c1565b61478f83836146c7565b80600019048211156147a3576147a36141cd565b029392505050565b6000610fa160ff84168361470a565b6020808252825182820181905260009190848201906040850190845b818110156147f2578351835292840192918401916001016147d6565b50909695505050505050565b60006020828403121561481057600080fd5b5051919050565b60006020828403121561482957600080fd5b81518015158114610fa157600080fd5b7f416363657373436f6e74726f6c3a206163636f756e7420000000000000000000815260008351614871816017850160208801613c69565b7001034b99036b4b9b9b4b733903937b6329607d1b60179184019182015283516148a2816028840160208801613c69565b01602801949350505050565b634e487b7160e01b600052602160045260246000fd5b6000816148d3576148d36141cd565b506000190190565b634e487b7160e01b600052603160045260246000fd5b60008251614903818460208701613c69565b919091019291505056fea164736f6c6343000811000a",
  "devdoc": {
    "kind": "dev",
    "methods": {
      "DOMAIN_SEPARATOR()": {
        "details": "See {IERC20Permit-DOMAIN_SEPARATOR}."
      },
      "addAsset(address,address)": {
        "params": {
          "_priceFeed": ": chainlink price feed",
          "_token": ": token address"
        }
      },
      "allowance(address,address)": {
        "details": "See {IERC20-allowance}."
      },
      "approve(address,uint256)": {
        "details": "See {IERC20-approve}. NOTE: If `amount` is the maximum `uint256`, the allowance is not updated on `transferFrom`. This is semantically equivalent to an infinite approval. Requirements: - `spender` cannot be the zero address."
      },
      "balanceOf(address)": {
        "details": "See {IERC20-balanceOf}."
      },
      "checkpoints(address,uint32)": {
        "details": "Get the `pos`-th checkpoint for `account`."
      },
      "constructor": {
        "params": {
          "_baseToken": ": deposit token",
          "_name": ": Fund name",
          "_portfolio": ": desired asset allocation",
          "_router": ": 1inch aggregation router"
        }
      },
      "decimals()": {
        "details": "Returns the number of decimals used to get its user representation. For example, if `decimals` equals `2`, a balance of `505` tokens should be displayed to a user as `5.05` (`505 / 10 ** 2`). Tokens usually opt for a value of 18, imitating the relationship between Ether and Wei. This is the value {ERC20} uses, unless this function is overridden; NOTE: This information is only used for _display_ purposes: it in no way affects any of the arithmetic of the contract, including {IERC20-balanceOf} and {IERC20-transfer}."
      },
      "decreaseAllowance(address,uint256)": {
        "details": "Atomically decreases the allowance granted to `spender` by the caller. This is an alternative to {approve} that can be used as a mitigation for problems described in {IERC20-approve}. Emits an {Approval} event indicating the updated allowance. Requirements: - `spender` cannot be the zero address. - `spender` must have allowance for the caller of at least `subtractedValue`."
      },
      "delegate(address)": {
        "details": "Delegate votes from the sender to `delegatee`."
      },
      "delegateBySig(address,uint256,uint256,uint8,bytes32,bytes32)": {
        "details": "Delegates votes from signer to `delegatee`"
      },
      "delegates(address)": {
        "details": "Get the address `account` is currently delegating to."
      },
      "deposit(uint256,bytes[])": {
        "details": "call `https://api.1inch.io/v5.0/${chainId}/swap?fromTokenAddress=${baseToken}&toTokenAddress=${toToken}&amount=${amount}&fromAddress=${poolAddress}&slippage=1&disableEstimate=true`",
        "params": {
          "_amount": ": amount of base token to deposit",
          "_swapdata": ": tx.data from 1inch api for swap base token to each asset in porfolio"
        }
      },
      "getPastTotalSupply(uint256)": {
        "details": "Retrieve the `totalSupply` at the end of `blockNumber`. Note, this value is the sum of all balances. It is but NOT the sum of all the delegated votes! Requirements: - `blockNumber` must have been already mined"
      },
      "getPastVotes(address,uint256)": {
        "details": "Retrieve the number of votes for `account` at the end of `blockNumber`. Requirements: - `blockNumber` must have been already mined"
      },
      "getRoleAdmin(bytes32)": {
        "details": "Returns the admin role that controls `role`. See {grantRole} and {revokeRole}. To change a role's admin, use {_setRoleAdmin}."
      },
      "getRoleMember(bytes32,uint256)": {
        "details": "Returns one of the accounts that have `role`. `index` must be a value between 0 and {getRoleMemberCount}, non-inclusive. Role bearers are not sorted in any particular way, and their ordering may change at any point. WARNING: When using {getRoleMember} and {getRoleMemberCount}, make sure you perform all queries on the same block. See the following https://forum.openzeppelin.com/t/iterating-over-elements-on-enumerableset-in-openzeppelin-contracts/2296[forum post] for more information."
      },
      "getRoleMemberCount(bytes32)": {
        "details": "Returns the number of accounts that have `role`. Can be used together with {getRoleMember} to enumerate all bearers of a role."
      },
      "getVotes(address)": {
        "details": "Gets the current votes balance for `account`"
      },
      "grantRole(bytes32,address)": {
        "details": "Grants `role` to `account`. If `account` had not been already granted `role`, emits a {RoleGranted} event. Requirements: - the caller must have ``role``'s admin role. May emit a {RoleGranted} event."
      },
      "hasRole(bytes32,address)": {
        "details": "Returns `true` if `account` has been granted `role`."
      },
      "increaseAllowance(address,uint256)": {
        "details": "Atomically increases the allowance granted to `spender` by the caller. This is an alternative to {approve} that can be used as a mitigation for problems described in {IERC20-approve}. Emits an {Approval} event indicating the updated allowance. Requirements: - `spender` cannot be the zero address."
      },
      "name()": {
        "details": "Returns the name of the token."
      },
      "nonces(address)": {
        "details": "See {IERC20Permit-nonces}."
      },
      "numCheckpoints(address)": {
        "details": "Get number of checkpoints for `account`."
      },
      "permit(address,address,uint256,uint256,uint8,bytes32,bytes32)": {
        "details": "See {IERC20Permit-permit}."
      },
      "rebalance(bytes[])": {
        "details": "call `https://api.1inch.io/v5.0/${chainId}/swap?fromTokenAddress=${fromToken}&toTokenAddress=${toToken}&amount=${amount}&fromAddress=${poolAddress}&slippage=1&disableEstimate=true`",
        "params": {
          "_swapdata": ": tx.data from 1inch api for swap assets in porfolio"
        }
      },
      "reconfigure(uint256[])": {
        "params": {
          "_weights": ": weights of each asset"
        }
      },
      "renounceRole(bytes32,address)": {
        "details": "Revokes `role` from the calling account. Roles are often managed via {grantRole} and {revokeRole}: this function's purpose is to provide a mechanism for accounts to lose their privileges if they are compromised (such as when a trusted device is misplaced). If the calling account had been revoked `role`, emits a {RoleRevoked} event. Requirements: - the caller must be `account`. May emit a {RoleRevoked} event."
      },
      "revokeRole(bytes32,address)": {
        "details": "Revokes `role` from `account`. If `account` had been granted `role`, emits a {RoleRevoked} event. Requirements: - the caller must have ``role``'s admin role. May emit a {RoleRevoked} event."
      },
      "supportsInterface(bytes4)": {
        "details": "See {IERC165-supportsInterface}."
      },
      "symbol()": {
        "details": "Returns the symbol of the token, usually a shorter version of the name."
      },
      "totalSupply()": {
        "details": "See {IERC20-totalSupply}."
      },
      "transfer(address,uint256)": {
        "details": "See {IERC20-transfer}. Requirements: - `to` cannot be the zero address. - the caller must have a balance of at least `amount`."
      },
      "transferFrom(address,address,uint256)": {
        "details": "See {IERC20-transferFrom}. Emits an {Approval} event indicating the updated allowance. This is not required by the EIP. See the note at the beginning of {ERC20}. NOTE: Does not update the allowance if the current allowance is the maximum `uint256`. Requirements: - `from` and `to` cannot be the zero address. - `from` must have a balance of at least `amount`. - the caller must have allowance for ``from``'s tokens of at least `amount`."
      },
      "uniWithdraw(uint256,address)": {
        "params": {
          "_burnAmount": ": amount of fund token to withdraw"
        }
      },
      "withdraw(uint256)": {
        "params": {
          "_burnAmount": ": amount of fund token to withdraw"
        }
      }
    },
    "version": 1
  },
  "userdoc": {
    "kind": "user",
    "methods": {
      "addAsset(address,address)": {
        "notice": "Add new asset with weight = 0"
      },
      "constructor": {
        "notice": "Initialize the contract"
      },
      "deposit(uint256,bytes[])": {
        "notice": "Invest in the fund to receive fund token"
      },
      "overview()": {
        "notice": "Get fund overview"
      },
      "rebalance(bytes[])": {
        "notice": "Swap token in pool to maintain the desired allocation"
      },
      "reconfigure(uint256[])": {
        "notice": "Update desired allocation"
      },
      "uniWithdraw(uint256,address)": {
        "notice": "Burn fund token to get back base token"
      },
      "userInfo(address)": {
        "notice": "Get user investment info"
      },
      "withdraw(uint256)": {
        "notice": "Burn fund token to get back assets"
      }
    },
    "version": 1
  },
  "storageLayout": {
    "storage": [
      {
        "astId": 24,
        "contract": "contracts/InzenFunds.sol:InzenFunds",
        "label": "_roles",
        "offset": 0,
        "slot": "0",
        "type": "t_mapping(t_bytes32,t_struct(RoleData)19_storage)"
      },
      {
        "astId": 334,
        "contract": "contracts/InzenFunds.sol:InzenFunds",
        "label": "_roleMembers",
        "offset": 0,
        "slot": "1",
        "type": "t_mapping(t_bytes32,t_struct(AddressSet)10488_storage)"
      },
      {
        "astId": 2803,
        "contract": "contracts/InzenFunds.sol:InzenFunds",
        "label": "_balances",
        "offset": 0,
        "slot": "2",
        "type": "t_mapping(t_address,t_uint256)"
      },
      {
        "astId": 2809,
        "contract": "contracts/InzenFunds.sol:InzenFunds",
        "label": "_allowances",
        "offset": 0,
        "slot": "3",
        "type": "t_mapping(t_address,t_mapping(t_address,t_uint256))"
      },
      {
        "astId": 2811,
        "contract": "contracts/InzenFunds.sol:InzenFunds",
        "label": "_totalSupply",
        "offset": 0,
        "slot": "4",
        "type": "t_uint256"
      },
      {
        "astId": 2813,
        "contract": "contracts/InzenFunds.sol:InzenFunds",
        "label": "_name",
        "offset": 0,
        "slot": "5",
        "type": "t_string_storage"
      },
      {
        "astId": 2815,
        "contract": "contracts/InzenFunds.sol:InzenFunds",
        "label": "_symbol",
        "offset": 0,
        "slot": "6",
        "type": "t_string_storage"
      },
      {
        "astId": 4197,
        "contract": "contracts/InzenFunds.sol:InzenFunds",
        "label": "_nonces",
        "offset": 0,
        "slot": "7",
        "type": "t_mapping(t_address,t_struct(Counter)6407_storage)"
      },
      {
        "astId": 4205,
        "contract": "contracts/InzenFunds.sol:InzenFunds",
        "label": "_PERMIT_TYPEHASH_DEPRECATED_SLOT",
        "offset": 0,
        "slot": "8",
        "type": "t_bytes32"
      },
      {
        "astId": 3478,
        "contract": "contracts/InzenFunds.sol:InzenFunds",
        "label": "_delegates",
        "offset": 0,
        "slot": "9",
        "type": "t_mapping(t_address,t_address)"
      },
      {
        "astId": 3484,
        "contract": "contracts/InzenFunds.sol:InzenFunds",
        "label": "_checkpoints",
        "offset": 0,
        "slot": "10",
        "type": "t_mapping(t_address,t_array(t_struct(Checkpoint)3469_storage)dyn_storage)"
      },
      {
        "astId": 3488,
        "contract": "contracts/InzenFunds.sol:InzenFunds",
        "label": "_totalSupplyCheckpoints",
        "offset": 0,
        "slot": "11",
        "type": "t_array(t_struct(Checkpoint)3469_storage)dyn_storage"
      },
      {
        "astId": 2703,
        "contract": "contracts/InzenFunds.sol:InzenFunds",
        "label": "_status",
        "offset": 0,
        "slot": "12",
        "type": "t_uint256"
      },
      {
        "astId": 10814,
        "contract": "contracts/InzenFunds.sol:InzenFunds",
        "label": "portfolio",
        "offset": 0,
        "slot": "13",
        "type": "t_array(t_struct(Assets)10810_storage)dyn_storage"
      },
      {
        "astId": 10819,
        "contract": "contracts/InzenFunds.sol:InzenFunds",
        "label": "tokenIdx",
        "offset": 0,
        "slot": "14",
        "type": "t_mapping(t_contract(ERC20)3374,t_uint256)"
      },
      {
        "astId": 10822,
        "contract": "contracts/InzenFunds.sol:InzenFunds",
        "label": "router",
        "offset": 0,
        "slot": "15",
        "type": "t_contract(AggregationRouterV5Interface)12477"
      },
      {
        "astId": 10825,
        "contract": "contracts/InzenFunds.sol:InzenFunds",
        "label": "baseToken",
        "offset": 0,
        "slot": "16",
        "type": "t_contract(ERC20)3374"
      }
    ],
    "types": {
      "t_address": {
        "encoding": "inplace",
        "label": "address",
        "numberOfBytes": "20"
      },
      "t_array(t_bytes32)dyn_storage": {
        "base": "t_bytes32",
        "encoding": "dynamic_array",
        "label": "bytes32[]",
        "numberOfBytes": "32"
      },
      "t_array(t_struct(Assets)10810_storage)dyn_storage": {
        "base": "t_struct(Assets)10810_storage",
        "encoding": "dynamic_array",
        "label": "struct InzenFunds.Assets[]",
        "numberOfBytes": "32"
      },
      "t_array(t_struct(Checkpoint)3469_storage)dyn_storage": {
        "base": "t_struct(Checkpoint)3469_storage",
        "encoding": "dynamic_array",
        "label": "struct ERC20Votes.Checkpoint[]",
        "numberOfBytes": "32"
      },
      "t_bool": {
        "encoding": "inplace",
        "label": "bool",
        "numberOfBytes": "1"
      },
      "t_bytes32": {
        "encoding": "inplace",
        "label": "bytes32",
        "numberOfBytes": "32"
      },
      "t_contract(AggregationRouterV5Interface)12477": {
        "encoding": "inplace",
        "label": "contract AggregationRouterV5Interface",
        "numberOfBytes": "20"
      },
      "t_contract(AggregatorV3Interface)12523": {
        "encoding": "inplace",
        "label": "contract AggregatorV3Interface",
        "numberOfBytes": "20"
      },
      "t_contract(ERC20)3374": {
        "encoding": "inplace",
        "label": "contract ERC20",
        "numberOfBytes": "20"
      },
      "t_mapping(t_address,t_address)": {
        "encoding": "mapping",
        "key": "t_address",
        "label": "mapping(address => address)",
        "numberOfBytes": "32",
        "value": "t_address"
      },
      "t_mapping(t_address,t_array(t_struct(Checkpoint)3469_storage)dyn_storage)": {
        "encoding": "mapping",
        "key": "t_address",
        "label": "mapping(address => struct ERC20Votes.Checkpoint[])",
        "numberOfBytes": "32",
        "value": "t_array(t_struct(Checkpoint)3469_storage)dyn_storage"
      },
      "t_mapping(t_address,t_bool)": {
        "encoding": "mapping",
        "key": "t_address",
        "label": "mapping(address => bool)",
        "numberOfBytes": "32",
        "value": "t_bool"
      },
      "t_mapping(t_address,t_mapping(t_address,t_uint256))": {
        "encoding": "mapping",
        "key": "t_address",
        "label": "mapping(address => mapping(address => uint256))",
        "numberOfBytes": "32",
        "value": "t_mapping(t_address,t_uint256)"
      },
      "t_mapping(t_address,t_struct(Counter)6407_storage)": {
        "encoding": "mapping",
        "key": "t_address",
        "label": "mapping(address => struct Counters.Counter)",
        "numberOfBytes": "32",
        "value": "t_struct(Counter)6407_storage"
      },
      "t_mapping(t_address,t_uint256)": {
        "encoding": "mapping",
        "key": "t_address",
        "label": "mapping(address => uint256)",
        "numberOfBytes": "32",
        "value": "t_uint256"
      },
      "t_mapping(t_bytes32,t_struct(AddressSet)10488_storage)": {
        "encoding": "mapping",
        "key": "t_bytes32",
        "label": "mapping(bytes32 => struct EnumerableSet.AddressSet)",
        "numberOfBytes": "32",
        "value": "t_struct(AddressSet)10488_storage"
      },
      "t_mapping(t_bytes32,t_struct(RoleData)19_storage)": {
        "encoding": "mapping",
        "key": "t_bytes32",
        "label": "mapping(bytes32 => struct AccessControl.RoleData)",
        "numberOfBytes": "32",
        "value": "t_struct(RoleData)19_storage"
      },
      "t_mapping(t_bytes32,t_uint256)": {
        "encoding": "mapping",
        "key": "t_bytes32",
        "label": "mapping(bytes32 => uint256)",
        "numberOfBytes": "32",
        "value": "t_uint256"
      },
      "t_mapping(t_contract(ERC20)3374,t_uint256)": {
        "encoding": "mapping",
        "key": "t_contract(ERC20)3374",
        "label": "mapping(contract ERC20 => uint256)",
        "numberOfBytes": "32",
        "value": "t_uint256"
      },
      "t_string_storage": {
        "encoding": "bytes",
        "label": "string",
        "numberOfBytes": "32"
      },
      "t_struct(AddressSet)10488_storage": {
        "encoding": "inplace",
        "label": "struct EnumerableSet.AddressSet",
        "members": [
          {
            "astId": 10487,
            "contract": "contracts/InzenFunds.sol:InzenFunds",
            "label": "_inner",
            "offset": 0,
            "slot": "0",
            "type": "t_struct(Set)10173_storage"
          }
        ],
        "numberOfBytes": "64"
      },
      "t_struct(Assets)10810_storage": {
        "encoding": "inplace",
        "label": "struct InzenFunds.Assets",
        "members": [
          {
            "astId": 10802,
            "contract": "contracts/InzenFunds.sol:InzenFunds",
            "label": "token",
            "offset": 0,
            "slot": "0",
            "type": "t_contract(ERC20)3374"
          },
          {
            "astId": 10805,
            "contract": "contracts/InzenFunds.sol:InzenFunds",
            "label": "priceFeed",
            "offset": 0,
            "slot": "1",
            "type": "t_contract(AggregatorV3Interface)12523"
          },
          {
            "astId": 10807,
            "contract": "contracts/InzenFunds.sol:InzenFunds",
            "label": "amount",
            "offset": 0,
            "slot": "2",
            "type": "t_uint256"
          },
          {
            "astId": 10809,
            "contract": "contracts/InzenFunds.sol:InzenFunds",
            "label": "weight",
            "offset": 0,
            "slot": "3",
            "type": "t_uint256"
          }
        ],
        "numberOfBytes": "128"
      },
      "t_struct(Checkpoint)3469_storage": {
        "encoding": "inplace",
        "label": "struct ERC20Votes.Checkpoint",
        "members": [
          {
            "astId": 3466,
            "contract": "contracts/InzenFunds.sol:InzenFunds",
            "label": "fromBlock",
            "offset": 0,
            "slot": "0",
            "type": "t_uint32"
          },
          {
            "astId": 3468,
            "contract": "contracts/InzenFunds.sol:InzenFunds",
            "label": "votes",
            "offset": 4,
            "slot": "0",
            "type": "t_uint224"
          }
        ],
        "numberOfBytes": "32"
      },
      "t_struct(Counter)6407_storage": {
        "encoding": "inplace",
        "label": "struct Counters.Counter",
        "members": [
          {
            "astId": 6406,
            "contract": "contracts/InzenFunds.sol:InzenFunds",
            "label": "_value",
            "offset": 0,
            "slot": "0",
            "type": "t_uint256"
          }
        ],
        "numberOfBytes": "32"
      },
      "t_struct(RoleData)19_storage": {
        "encoding": "inplace",
        "label": "struct AccessControl.RoleData",
        "members": [
          {
            "astId": 16,
            "contract": "contracts/InzenFunds.sol:InzenFunds",
            "label": "members",
            "offset": 0,
            "slot": "0",
            "type": "t_mapping(t_address,t_bool)"
          },
          {
            "astId": 18,
            "contract": "contracts/InzenFunds.sol:InzenFunds",
            "label": "adminRole",
            "offset": 0,
            "slot": "1",
            "type": "t_bytes32"
          }
        ],
        "numberOfBytes": "64"
      },
      "t_struct(Set)10173_storage": {
        "encoding": "inplace",
        "label": "struct EnumerableSet.Set",
        "members": [
          {
            "astId": 10168,
            "contract": "contracts/InzenFunds.sol:InzenFunds",
            "label": "_values",
            "offset": 0,
            "slot": "0",
            "type": "t_array(t_bytes32)dyn_storage"
          },
          {
            "astId": 10172,
            "contract": "contracts/InzenFunds.sol:InzenFunds",
            "label": "_indexes",
            "offset": 0,
            "slot": "1",
            "type": "t_mapping(t_bytes32,t_uint256)"
          }
        ],
        "numberOfBytes": "64"
      },
      "t_uint224": {
        "encoding": "inplace",
        "label": "uint224",
        "numberOfBytes": "28"
      },
      "t_uint256": {
        "encoding": "inplace",
        "label": "uint256",
        "numberOfBytes": "32"
      },
      "t_uint32": {
        "encoding": "inplace",
        "label": "uint32",
        "numberOfBytes": "4"
      }
    }
  }
}