{
  "address": "0x0f41602721aCFa7f0fE74b9232C7606642D805B1",
  "abi": [
    {
      "inputs": [
        {
          "internalType": "string",
          "name": "_name",
          "type": "string"
        },
        {
          "internalType": "contract ERC20",
          "name": "_baseToken",
          "type": "address"
        },
        {
          "internalType": "contract AggregationRouterV5Interface",
          "name": "_router",
          "type": "address"
        },
        {
          "components": [
            {
              "internalType": "contract ERC20",
              "name": "token",
              "type": "address"
            },
            {
              "internalType": "contract AggregatorV3Interface",
              "name": "priceFeed",
              "type": "address"
            },
            {
              "internalType": "uint256",
              "name": "amount",
              "type": "uint256"
            },
            {
              "internalType": "uint256",
              "name": "weight",
              "type": "uint256"
            }
          ],
          "internalType": "struct InzenFunds.Assets[]",
          "name": "_portfolio",
          "type": "tuple[]"
        }
      ],
      "stateMutability": "nonpayable",
      "type": "constructor"
    },
    {
      "anonymous": false,
      "inputs": [
        {
          "indexed": true,
          "internalType": "address",
          "name": "owner",
          "type": "address"
        },
        {
          "indexed": true,
          "internalType": "address",
          "name": "spender",
          "type": "address"
        },
        {
          "indexed": false,
          "internalType": "uint256",
          "name": "value",
          "type": "uint256"
        }
      ],
      "name": "Approval",
      "type": "event"
    },
    {
      "anonymous": false,
      "inputs": [
        {
          "indexed": true,
          "internalType": "address",
          "name": "user",
          "type": "address"
        },
        {
          "indexed": false,
          "internalType": "uint256",
          "name": "baseAmount",
          "type": "uint256"
        },
        {
          "indexed": false,
          "internalType": "uint256",
          "name": "mintAmount",
          "type": "uint256"
        }
      ],
      "name": "Deposit",
      "type": "event"
    },
    {
      "anonymous": false,
      "inputs": [
        {
          "indexed": true,
          "internalType": "address",
          "name": "previousOwner",
          "type": "address"
        },
        {
          "indexed": true,
          "internalType": "address",
          "name": "newOwner",
          "type": "address"
        }
      ],
      "name": "OwnershipTransferred",
      "type": "event"
    },
    {
      "anonymous": false,
      "inputs": [
        {
          "indexed": true,
          "internalType": "contract ERC20",
          "name": "fromToken",
          "type": "address"
        },
        {
          "indexed": true,
          "internalType": "contract ERC20",
          "name": "toToken",
          "type": "address"
        },
        {
          "indexed": false,
          "internalType": "uint256",
          "name": "fromAmount",
          "type": "uint256"
        },
        {
          "indexed": false,
          "internalType": "uint256",
          "name": "toAmount",
          "type": "uint256"
        }
      ],
      "name": "Rebalance",
      "type": "event"
    },
    {
      "anonymous": false,
      "inputs": [
        {
          "indexed": true,
          "internalType": "address",
          "name": "from",
          "type": "address"
        },
        {
          "indexed": true,
          "internalType": "address",
          "name": "to",
          "type": "address"
        },
        {
          "indexed": false,
          "internalType": "uint256",
          "name": "value",
          "type": "uint256"
        }
      ],
      "name": "Transfer",
      "type": "event"
    },
    {
      "anonymous": false,
      "inputs": [
        {
          "indexed": true,
          "internalType": "address",
          "name": "user",
          "type": "address"
        },
        {
          "indexed": false,
          "internalType": "uint256",
          "name": "burnAmount",
          "type": "uint256"
        }
      ],
      "name": "Withdraw",
      "type": "event"
    },
    {
      "inputs": [],
      "name": "DOMAIN_SEPARATOR",
      "outputs": [
        {
          "internalType": "bytes32",
          "name": "",
          "type": "bytes32"
        }
      ],
      "stateMutability": "view",
      "type": "function"
    },
    {
      "inputs": [
        {
          "internalType": "address",
          "name": "owner",
          "type": "address"
        },
        {
          "internalType": "address",
          "name": "spender",
          "type": "address"
        }
      ],
      "name": "allowance",
      "outputs": [
        {
          "internalType": "uint256",
          "name": "",
          "type": "uint256"
        }
      ],
      "stateMutability": "view",
      "type": "function"
    },
    {
      "inputs": [
        {
          "internalType": "address",
          "name": "spender",
          "type": "address"
        },
        {
          "internalType": "uint256",
          "name": "amount",
          "type": "uint256"
        }
      ],
      "name": "approve",
      "outputs": [
        {
          "internalType": "bool",
          "name": "",
          "type": "bool"
        }
      ],
      "stateMutability": "nonpayable",
      "type": "function"
    },
    {
      "inputs": [
        {
          "internalType": "address",
          "name": "account",
          "type": "address"
        }
      ],
      "name": "balanceOf",
      "outputs": [
        {
          "internalType": "uint256",
          "name": "",
          "type": "uint256"
        }
      ],
      "stateMutability": "view",
      "type": "function"
    },
    {
      "inputs": [],
      "name": "baseToken",
      "outputs": [
        {
          "internalType": "contract ERC20",
          "name": "",
          "type": "address"
        }
      ],
      "stateMutability": "view",
      "type": "function"
    },
    {
      "inputs": [],
      "name": "decimals",
      "outputs": [
        {
          "internalType": "uint8",
          "name": "",
          "type": "uint8"
        }
      ],
      "stateMutability": "view",
      "type": "function"
    },
    {
      "inputs": [
        {
          "internalType": "address",
          "name": "spender",
          "type": "address"
        },
        {
          "internalType": "uint256",
          "name": "subtractedValue",
          "type": "uint256"
        }
      ],
      "name": "decreaseAllowance",
      "outputs": [
        {
          "internalType": "bool",
          "name": "",
          "type": "bool"
        }
      ],
      "stateMutability": "nonpayable",
      "type": "function"
    },
    {
      "inputs": [
        {
          "internalType": "uint256",
          "name": "_amount",
          "type": "uint256"
        },
        {
          "internalType": "bytes[]",
          "name": "_swapdata",
          "type": "bytes[]"
        }
      ],
      "name": "deposit",
      "outputs": [],
      "stateMutability": "nonpayable",
      "type": "function"
    },
    {
      "inputs": [
        {
          "internalType": "address",
          "name": "spender",
          "type": "address"
        },
        {
          "internalType": "uint256",
          "name": "addedValue",
          "type": "uint256"
        }
      ],
      "name": "increaseAllowance",
      "outputs": [
        {
          "internalType": "bool",
          "name": "",
          "type": "bool"
        }
      ],
      "stateMutability": "nonpayable",
      "type": "function"
    },
    {
      "inputs": [],
      "name": "name",
      "outputs": [
        {
          "internalType": "string",
          "name": "",
          "type": "string"
        }
      ],
      "stateMutability": "view",
      "type": "function"
    },
    {
      "inputs": [
        {
          "internalType": "address",
          "name": "owner",
          "type": "address"
        }
      ],
      "name": "nonces",
      "outputs": [
        {
          "internalType": "uint256",
          "name": "",
          "type": "uint256"
        }
      ],
      "stateMutability": "view",
      "type": "function"
    },
    {
      "inputs": [],
      "name": "overview",
      "outputs": [
        {
          "internalType": "string",
          "name": "fundName",
          "type": "string"
        },
        {
          "internalType": "uint256",
          "name": "usdValue",
          "type": "uint256"
        },
        {
          "internalType": "uint256",
          "name": "tokenSupply",
          "type": "uint256"
        },
        {
          "components": [
            {
              "internalType": "contract ERC20",
              "name": "token",
              "type": "address"
            },
            {
              "internalType": "contract AggregatorV3Interface",
              "name": "priceFeed",
              "type": "address"
            },
            {
              "internalType": "uint256",
              "name": "amount",
              "type": "uint256"
            },
            {
              "internalType": "uint256",
              "name": "weight",
              "type": "uint256"
            }
          ],
          "internalType": "struct InzenFunds.Assets[]",
          "name": "assets",
          "type": "tuple[]"
        }
      ],
      "stateMutability": "view",
      "type": "function"
    },
    {
      "inputs": [],
      "name": "owner",
      "outputs": [
        {
          "internalType": "address",
          "name": "",
          "type": "address"
        }
      ],
      "stateMutability": "view",
      "type": "function"
    },
    {
      "inputs": [
        {
          "internalType": "address",
          "name": "owner",
          "type": "address"
        },
        {
          "internalType": "address",
          "name": "spender",
          "type": "address"
        },
        {
          "internalType": "uint256",
          "name": "value",
          "type": "uint256"
        },
        {
          "internalType": "uint256",
          "name": "deadline",
          "type": "uint256"
        },
        {
          "internalType": "uint8",
          "name": "v",
          "type": "uint8"
        },
        {
          "internalType": "bytes32",
          "name": "r",
          "type": "bytes32"
        },
        {
          "internalType": "bytes32",
          "name": "s",
          "type": "bytes32"
        }
      ],
      "name": "permit",
      "outputs": [],
      "stateMutability": "nonpayable",
      "type": "function"
    },
    {
      "inputs": [
        {
          "internalType": "uint256",
          "name": "",
          "type": "uint256"
        }
      ],
      "name": "portfolio",
      "outputs": [
        {
          "internalType": "contract ERC20",
          "name": "token",
          "type": "address"
        },
        {
          "internalType": "contract AggregatorV3Interface",
          "name": "priceFeed",
          "type": "address"
        },
        {
          "internalType": "uint256",
          "name": "amount",
          "type": "uint256"
        },
        {
          "internalType": "uint256",
          "name": "weight",
          "type": "uint256"
        }
      ],
      "stateMutability": "view",
      "type": "function"
    },
    {
      "inputs": [
        {
          "internalType": "bytes[]",
          "name": "_swapdata",
          "type": "bytes[]"
        }
      ],
      "name": "rebalance",
      "outputs": [],
      "stateMutability": "nonpayable",
      "type": "function"
    },
    {
      "inputs": [],
      "name": "renounceOwnership",
      "outputs": [],
      "stateMutability": "nonpayable",
      "type": "function"
    },
    {
      "inputs": [],
      "name": "router",
      "outputs": [
        {
          "internalType": "contract AggregationRouterV5Interface",
          "name": "",
          "type": "address"
        }
      ],
      "stateMutability": "view",
      "type": "function"
    },
    {
      "inputs": [],
      "name": "symbol",
      "outputs": [
        {
          "internalType": "string",
          "name": "",
          "type": "string"
        }
      ],
      "stateMutability": "view",
      "type": "function"
    },
    {
      "inputs": [],
      "name": "totalSupply",
      "outputs": [
        {
          "internalType": "uint256",
          "name": "",
          "type": "uint256"
        }
      ],
      "stateMutability": "view",
      "type": "function"
    },
    {
      "inputs": [],
      "name": "totalValue",
      "outputs": [
        {
          "internalType": "uint256",
          "name": "total",
          "type": "uint256"
        }
      ],
      "stateMutability": "view",
      "type": "function"
    },
    {
      "inputs": [
        {
          "internalType": "address",
          "name": "recipient",
          "type": "address"
        },
        {
          "internalType": "uint256",
          "name": "amount",
          "type": "uint256"
        }
      ],
      "name": "transfer",
      "outputs": [
        {
          "internalType": "bool",
          "name": "",
          "type": "bool"
        }
      ],
      "stateMutability": "nonpayable",
      "type": "function"
    },
    {
      "inputs": [
        {
          "internalType": "address",
          "name": "sender",
          "type": "address"
        },
        {
          "internalType": "address",
          "name": "recipient",
          "type": "address"
        },
        {
          "internalType": "uint256",
          "name": "amount",
          "type": "uint256"
        }
      ],
      "name": "transferFrom",
      "outputs": [
        {
          "internalType": "bool",
          "name": "",
          "type": "bool"
        }
      ],
      "stateMutability": "nonpayable",
      "type": "function"
    },
    {
      "inputs": [
        {
          "internalType": "address",
          "name": "newOwner",
          "type": "address"
        }
      ],
      "name": "transferOwnership",
      "outputs": [],
      "stateMutability": "nonpayable",
      "type": "function"
    },
    {
      "inputs": [
        {
          "internalType": "address",
          "name": "user",
          "type": "address"
        }
      ],
      "name": "userInfo",
      "outputs": [
        {
          "internalType": "uint256",
          "name": "usdValue",
          "type": "uint256"
        },
        {
          "internalType": "uint256",
          "name": "tokenBalance",
          "type": "uint256"
        }
      ],
      "stateMutability": "view",
      "type": "function"
    },
    {
      "inputs": [
        {
          "internalType": "uint256",
          "name": "_burnAmount",
          "type": "uint256"
        }
      ],
      "name": "withdraw",
      "outputs": [],
      "stateMutability": "nonpayable",
      "type": "function"
    },
    {
      "inputs": [
        {
          "internalType": "contract ERC20",
          "name": "_token",
          "type": "address"
        },
        {
          "internalType": "uint256",
          "name": "_amount",
          "type": "uint256"
        }
      ],
      "name": "withdrawToken",
      "outputs": [],
      "stateMutability": "nonpayable",
      "type": "function"
    }
  ],
  "transactionHash": "0xaf8bf9164a5f17576e522421af85f5906e0ed7ab120df050288f791af788d8a4",
  "args": [
    "Inzen: Test4",
    "0x2791Bca1f2de4661ED88A30C99A7a9449Aa84174",
    "0x1111111254EEB25477B68fb85Ed929f73A960582",
    [
      [
        "0x1BFD67037B42Cf73acF2047067bd4F2C47D9BfD6",
        "0xc907E116054Ad103354f2D350FD2514433D57F6f",
        0,
        25
      ],
      [
        "0x7ceB23fD6bC0adD59E62ac25578270cFf1b9f619",
        "0xF9680D99D6C9589e2a93a78A04A279e509205945",
        0,
        25
      ],
      [
        "0x2C89bbc92BD86F8075d1DEcc58C7F4E0107f286b",
        "0xe01eA2fbd8D76ee323FbEd03eB9a8625EC981A10",
        0,
        25
      ],
      [
        "0x0d500B1d8E8eF31E21C99d1Db9A6444d3ADf1270",
        "0x327e23A4855b6F663a28c5161541d69Af8973302",
        0,
        25
      ]
    ]
  ],
  "solcInputHash": "6524c43981456999004c4591af22b45b",
  "bytecode": "0x6101406040527f6e71edae12b1b97f4d1f60370fef10105fa2faae0126114a169c64845d6126c9610120523480156200003757600080fd5b50604051620038dc380380620038dc8339810160408190526200005a91620006ae565b8380604051806040016040528060018152602001603160f81b815250866040518060400160405280600381526020016224ad2360e91b815250620000ad620000a7620004c760201b60201c565b620004cb565b8151620000c29060049060208501906200051b565b508051620000d89060059060208401906200051b565b5050825160208085019190912083518483012060c082815260e08290524660a0818152604080517f8b73c3c69bb8fe3d512ecc4cf759cc79239f7b179b0ffacaa9a75d522b39400f81890181905281830188905260608201879052608082019490945230818401528151808203909301835290930190925281519190940120919350919060805261010052505060016007555050600b80546001600160a01b038087166001600160a01b031992831617909255600a805492861692909116919091179055506000805b8251811015620004695760096000848381518110620001d057634e487b7160e01b600052603260045260246000fd5b6020026020010151600001516001600160a01b03166001600160a01b0316815260200190815260200160002054600014620002455760405162461bcd60e51b815260206004820152601060248201526f111d5c1b1a58d85d195908185cdcd95d60821b60448201526064015b60405180910390fd5b8281815181106200026657634e487b7160e01b600052603260045260246000fd5b602090810291909101015151600b546001600160a01b03908116911614801590620002bd57506000838281518110620002af57634e487b7160e01b600052603260045260246000fd5b602002602001015160600151115b8015620002f65750828181518110620002e657634e487b7160e01b600052603260045260246000fd5b6020026020010151604001516000145b620003345760405162461bcd60e51b815260206004820152600d60248201526c125b9d985b1a5908185cdcd95d609a1b60448201526064016200023c565b60088382815181106200035757634e487b7160e01b600052603260045260246000fd5b6020908102919091018101518254600181810185556000948552838520835160049093020180546001600160a01b039384166001600160a01b03199182161782559484015191810180549290931691909416179055604081015160028301556060015160039091015583518291600991869084908110620003e857634e487b7160e01b600052603260045260246000fd5b6020026020010151600001516001600160a01b03166001600160a01b03168152602001908152602001600020819055508281815181106200043957634e487b7160e01b600052603260045260246000fd5b602002602001015160600151826200045291906200080f565b915080620004608162000867565b915050620001a1565b5080606414620004bc5760405162461bcd60e51b815260206004820152601560248201527f496e76616c69642061737365742077656967687473000000000000000000000060448201526064016200023c565b5050505050620008ca565b3390565b600080546001600160a01b038381166001600160a01b0319831681178455604051919092169283917f8be0079c531659141344cd1fd0a4f28419497f9722a3daafe3b4186f6b6457e09190a35050565b82805462000529906200082a565b90600052602060002090601f0160209004810192826200054d576000855562000598565b82601f106200056857805160ff191683800117855562000598565b8280016001018555821562000598579182015b82811115620005985782518255916020019190600101906200057b565b50620005a6929150620005aa565b5090565b5b80821115620005a65760008155600101620005ab565b600082601f830112620005d2578081fd5b815160206001600160401b03821115620005f057620005f06200089b565b62000600818360051b01620007dc565b80838252828201915082860187848660071b890101111562000620578586fd5b855b858110156200068f57608080838b0312156200063c578788fd5b62000646620007b1565b83516200065381620008b1565b8152838701516200066481620008b1565b8188015260408481015190820152606080850151908201528552938501939091019060010162000622565b5090979650505050505050565b8051620006a981620008b1565b919050565b60008060008060808587031215620006c4578384fd5b84516001600160401b0380821115620006db578586fd5b818701915087601f830112620006ef578586fd5b8151818111156200070457620007046200089b565b60206200071a601f8301601f19168201620007dc565b8281528a828487010111156200072e578889fd5b885b838110156200074d57858101830151828201840152820162000730565b838111156200075e57898385840101525b5097506200076e8982016200069c565b9650505062000780604088016200069c565b9350606087015191508082111562000796578283fd5b50620007a587828801620005c1565b91505092959194509250565b604051608081016001600160401b0381118282101715620007d657620007d66200089b565b60405290565b604051601f8201601f191681016001600160401b03811182821017156200080757620008076200089b565b604052919050565b6000821982111562000825576200082562000885565b500190565b600181811c908216806200083f57607f821691505b602082108114156200086157634e487b7160e01b600052602260045260246000fd5b50919050565b60006000198214156200087e576200087e62000885565b5060010190565b634e487b7160e01b600052601160045260246000fd5b634e487b7160e01b600052604160045260246000fd5b6001600160a01b0381168114620008c757600080fd5b50565b60805160a05160c05160e0516101005161012051612fc26200091a600039600061116e01526000611d4e01526000611d9d01526000611d7801526000611cfc01526000611d250152612fc26000f3fe608060405234801561001057600080fd5b50600436106101a95760003560e01c8063715018a6116100f9578063c55dae6311610097578063dd62ed3e11610071578063dd62ed3e146103bc578063f2fde38b146103f5578063f887ea4014610408578063ffab85731461041b57600080fd5b8063c55dae631461038e578063d4c3eea0146103a1578063d505accf146103a957600080fd5b806395d89b41116100d357806395d89b411461034d5780639e281a9814610355578063a457c2d714610368578063a9059cbb1461037b57600080fd5b8063715018a61461030d5780637ecebe00146103155780638da5cb5b1461032857600080fd5b80632e63a15611610166578063392179c611610140578063392179c6146102a657806339509351146102b95780633a2056f1146102cc57806370a08231146102e457600080fd5b80632e63a15614610251578063313ce5671461028f5780633644e5151461029e57600080fd5b806306fdde03146101ae578063095ea7b3146101cc57806318160ddd146101ef5780631959a0021461020157806323b872dd146102295780632e1a7d4d1461023c575b600080fd5b6101b661042e565b6040516101c39190612ba1565b60405180910390f35b6101df6101da366004612941565b6104c0565b60405190151581526020016101c3565b6003545b6040519081526020016101c3565b61021461020f36600461273c565b6104d7565b604080519283526020830191909152016101c3565b6101df610237366004612891565b61051e565b61024f61024a3660046129cc565b6105cf565b005b61026461025f3660046129cc565b610744565b604080516001600160a01b0395861681529490931660208501529183015260608201526080016101c3565b604051601281526020016101c3565b6101f361078a565b61024f6102b436600461296c565b610799565b6101df6102c7366004612941565b610b2c565b6102d4610b68565b6040516101c39493929190612bb4565b6101f36102f236600461273c565b6001600160a01b031660009081526001602052604090205490565b61024f610ccf565b6101f361032336600461273c565b610d05565b6000546001600160a01b03165b6040516001600160a01b0390911681526020016101c3565b6101b6610d23565b61024f610363366004612941565b610d32565b6101df610376366004612941565b610d74565b6101df610389366004612941565b610e0d565b600b54610335906001600160a01b031681565b6101f3610e1a565b61024f6103b73660046128d1565b61111a565b6101f36103ca366004612859565b6001600160a01b03918216600090815260026020908152604080832093909416825291909152205490565b61024f61040336600461273c565b61127e565b600a54610335906001600160a01b031681565b61024f6104293660046129fc565b611319565b60606004805461043d90612f15565b80601f016020809104026020016040519081016040528092919081815260200182805461046990612f15565b80156104b65780601f1061048b576101008083540402835291602001916104b6565b820191906000526020600020905b81548152906001019060200180831161049957829003601f168201915b5050505050905090565b60006104cd33848461184e565b5060015b92915050565b6001600160a01b03811660009081526001602052604081205480156105195760035481610502610e1a565b61050c9190612e90565b6105169190612d82565b91505b915091565b600061052b848484611972565b6001600160a01b0384166000908152600260209081526040808320338452909152902054828110156105b55760405162461bcd60e51b815260206004820152602860248201527f45524332303a207472616e7366657220616d6f756e74206578636565647320616044820152676c6c6f77616e636560c01b60648201526084015b60405180910390fd5b6105c2853385840361184e565b60019150505b9392505050565b600260075414156105f25760405162461bcd60e51b81526004016105ac90612c78565b600260075560005b6008548110156106fc57600061060f60035490565b836008848154811061063157634e487b7160e01b600052603260045260246000fd5b90600052602060002090600402016002015461064d9190612e90565b6106579190612d82565b9050806008838154811061067b57634e487b7160e01b600052603260045260246000fd5b9060005260206000209060040201600201600082825461069b9190612eaf565b925050819055506106e93382600885815481106106c857634e487b7160e01b600052603260045260246000fd5b60009182526020909120600490910201546001600160a01b03169190611b42565b50806106f481612f4a565b9150506105fa565b506107073382611baa565b60405181815233907f884edad9ce6fa2440d8a54cc123490eb96d2768479d49ff9c7366125a94243649060200160405180910390a2506001600755565b6008818154811061075457600080fd5b600091825260209091206004909102018054600182015460028301546003909301546001600160a01b0392831694509116919084565b6000610794611cf8565b905090565b6000546001600160a01b031633146107c35760405162461bcd60e51b81526004016105ac90612c43565b600260075414156107e65760405162461bcd60e51b81526004016105ac90612c78565b600260075560005b81811015610b225760008060008086868681811061081c57634e487b7160e01b600052603260045260246000fd5b905060200281019061082e9190612caf565b61083c916004908290612d1d565b8101906108499190612758565b9350935093509350306001600160a01b031683606001516001600160a01b0316146108a95760405162461bcd60e51b815260206004820152601060248201526f24b73b30b634b2103932b1b2b4bb32b960811b60448201526064016105ac565b82516001600160a01b0316600090815260096020526040902054158015906108ed57506020808401516001600160a01b031660009081526009909152604090205415155b61092e5760405162461bcd60e51b815260206004820152601260248201527124b73b30b634b21039bbb0b8103a37b5b2b760711b60448201526064016105ac565b600a5460808401518451610950926001600160a01b0391821692911690611deb565b600a546040516312aa3caf60e01b815260009182916001600160a01b03909116906312aa3caf9061098b908990899089908990600401612b1c565b6040805180830381600087803b1580156109a457600080fd5b505af11580156109b8573d6000803e3d6000fd5b505050506040513d601f19601f820116820180604052508101906109dc9190612a46565b86516001600160a01b03166000908152600960205260409020546008805493955091935083928110610a1e57634e487b7160e01b600052603260045260246000fd5b90600052602060002090600402016002016000828254610a3e9190612eaf565b90915550506020808601516001600160a01b0316600090815260099091526040902054600880548492908110610a8457634e487b7160e01b600052603260045260246000fd5b90600052602060002090600402016002016000828254610aa49190612d45565b9250508190555084602001516001600160a01b031685600001516001600160a01b03167ffea7a9a6e25cd0bbbfa80ce0c7646e61ee5e0551b3fdaaff0642e6f6adcc72e28385604051610b01929190918252602082015260400190565b60405180910390a35050505050508080610b1a90612f4a565b9150506107ee565b5050600160075550565b3360008181526002602090815260408083206001600160a01b038716845290915281205490916104cd918590610b63908690612d45565b61184e565b60606000806060610b7761042e565b9350610b81610e1a565b9250610b8c60035490565b60085490925067ffffffffffffffff811115610bb857634e487b7160e01b600052604160045260246000fd5b604051908082528060200260200182016040528015610c0a57816020015b604080516080810182526000808252602080830182905292820181905260608201528252600019909201910181610bd65790505b50905060005b600854811015610cc85760088181548110610c3b57634e487b7160e01b600052603260045260246000fd5b600091825260209182902060408051608081018252600490930290910180546001600160a01b0390811684526001820154169383019390935260028301549082015260039091015460608201528251839083908110610caa57634e487b7160e01b600052603260045260246000fd5b60200260200101819052508080610cc090612f4a565b915050610c10565b5090919293565b6000546001600160a01b03163314610cf95760405162461bcd60e51b81526004016105ac90612c43565b610d036000611f0f565b565b6001600160a01b0381166000908152600660205260408120546104d1565b60606005805461043d90612f15565b6000546001600160a01b03163314610d5c5760405162461bcd60e51b81526004016105ac90612c43565b610d706001600160a01b0383163383611b42565b5050565b3360009081526002602090815260408083206001600160a01b038616845290915281205482811015610df65760405162461bcd60e51b815260206004820152602560248201527f45524332303a2064656372656173656420616c6c6f77616e63652062656c6f77604482015264207a65726f60d81b60648201526084016105ac565b610e03338585840361184e565b5060019392505050565b60006104cd338484611972565b6000805b6008548110156111165760088181548110610e4957634e487b7160e01b600052603260045260246000fd5b90600052602060002090600402016002015460001415610e6857611104565b600060088281548110610e8b57634e487b7160e01b600052603260045260246000fd5b906000526020600020906004020160010160009054906101000a90046001600160a01b03166001600160a01b031663feaf968c6040518163ffffffff1660e01b815260040160a06040518083038186803b158015610ee857600080fd5b505afa158015610efc573d6000803e3d6000fd5b505050506040513d601f19601f82011682018060405250810190610f209190612a69565b505050915050600060088381548110610f4957634e487b7160e01b600052603260045260246000fd5b906000526020600020906004020160010160009054906101000a90046001600160a01b03166001600160a01b031663313ce5676040518163ffffffff1660e01b815260040160206040518083038186803b158015610fa657600080fd5b505afa158015610fba573d6000803e3d6000fd5b505050506040513d601f19601f82011682018060405250810190610fde9190612ab8565b905060006008848154811061100357634e487b7160e01b600052603260045260246000fd5b6000918252602091829020600491820201546040805163313ce56760e01b815290516001600160a01b039092169363313ce56793828101939192829003018186803b15801561105157600080fd5b505afa158015611065573d6000803e3d6000fd5b505050506040513d601f19601f820116820180604052508101906110899190612ab8565b905060066110978284612d5d565b6110a19190612ec6565b6110ac90600a612de5565b600885815481106110cd57634e487b7160e01b600052603260045260246000fd5b906000526020600020906004020160020154846110ea9190612e90565b6110f49190612d82565b6110fe9086612d45565b94505050505b8061110e81612f4a565b915050610e1e565b5090565b8342111561116a5760405162461bcd60e51b815260206004820152601d60248201527f45524332305065726d69743a206578706972656420646561646c696e6500000060448201526064016105ac565b60007f00000000000000000000000000000000000000000000000000000000000000008888886111998c611f5f565b6040805160208101969096526001600160a01b0394851690860152929091166060840152608083015260a082015260c0810186905260e00160405160208183030381529060405280519060200120905060006111f482611f87565b9050600061120482878787611fd5565b9050896001600160a01b0316816001600160a01b0316146112675760405162461bcd60e51b815260206004820152601e60248201527f45524332305065726d69743a20696e76616c6964207369676e6174757265000060448201526064016105ac565b6112728a8a8a61184e565b50505050505050505050565b6000546001600160a01b031633146112a85760405162461bcd60e51b81526004016105ac90612c43565b6001600160a01b03811661130d5760405162461bcd60e51b815260206004820152602660248201527f4f776e61626c653a206e6577206f776e657220697320746865207a65726f206160448201526564647265737360d01b60648201526084016105ac565b61131681611f0f565b50565b6002600754141561133c5760405162461bcd60e51b81526004016105ac90612c78565b600260075560085481146113865760405162461bcd60e51b8152602060048201526011602482015270496e76616c69642073776170206461746160781b60448201526064016105ac565b6000611390610e1a565b600b549091506113ab906001600160a01b0316333087611ffd565b600a54600b546113c8916001600160a01b03918216911686611deb565b6040805160e081018252600080825260208201819052918101829052606081018290526080810182905260a0810182905260c08101829052819060608060005b878110156116e25788888281811061143057634e487b7160e01b600052603260045260246000fd5b90506020028101906114429190612caf565b611450916004908290612d1d565b81019061145d9190612758565b6060830151939850919650945092506001600160a01b031630146114b65760405162461bcd60e51b815260206004820152601060248201526f24b73b30b634b2103932b1b2b4bb32b960811b60448201526064016105ac565b600b5484516001600160a01b0390811691161480156115165750600881815481106114f157634e487b7160e01b600052603260045260246000fd5b600091825260209182902060049091020154908501516001600160a01b039081169116145b6115575760405162461bcd60e51b815260206004820152601260248201527124b73b30b634b21039bbb0b8103a37b5b2b760711b60448201526064016105ac565b60648a6008838154811061157b57634e487b7160e01b600052603260045260246000fd5b9060005260206000209060040201600301546115979190612e90565b6115a19190612d82565b8460800151146115e95760405162461bcd60e51b8152602060048201526013602482015272125b9d985b1a59081cddd85c08185b5bdd5b9d606a1b60448201526064016105ac565b600a546040516312aa3caf60e01b815260009182916001600160a01b03909116906312aa3caf90611624908a908a908a908a90600401612b1c565b6040805180830381600087803b15801561163d57600080fd5b505af1158015611651573d6000803e3d6000fd5b505050506040513d601f19601f820116820180604052508101906116759190612a46565b91509150816008848154811061169b57634e487b7160e01b600052603260045260246000fd5b906000526020600020906004020160020160008282546116bb9190612d45565b909155506116cb90508189612d45565b9750505080806116da90612f4a565b915050611408565b50888511156117335760405162461bcd60e51b815260206004820152601760248201527f5370656e74206d6f7265207468616e206465706f73697400000000000000000060448201526064016105ac565b8885101561175c5761175c33611749878c612eaf565b600b546001600160a01b03169190611b42565b6000611766610e1a565b90508087106117c55760405162461bcd60e51b815260206004820152602560248201527f4e65772076616c75652063616e206e6f74206c657373207468616e206f6c642060448201526476616c756560d81b60648201526084016105ac565b8087156117f757876117d660035490565b6117e08a85612eaf565b6117ea9190612e90565b6117f49190612d82565b90505b6118013382612035565b604080518881526020810183905233917f90890809c654f11d6e72a28fa60149770a0d11ec6c92319d6ceb2bb0a4ea1a15910160405180910390a250506001600755505050505050505050565b6001600160a01b0383166118b05760405162461bcd60e51b8152602060048201526024808201527f45524332303a20617070726f76652066726f6d20746865207a65726f206164646044820152637265737360e01b60648201526084016105ac565b6001600160a01b0382166119115760405162461bcd60e51b815260206004820152602260248201527f45524332303a20617070726f766520746f20746865207a65726f206164647265604482015261737360f01b60648201526084016105ac565b6001600160a01b0383811660008181526002602090815260408083209487168084529482529182902085905590518481527f8c5be1e5ebec7d5bd14f71427d1e84f3dd0314c0f7b2291e5b200ac8c7c3b925910160405180910390a3505050565b6001600160a01b0383166119d65760405162461bcd60e51b815260206004820152602560248201527f45524332303a207472616e736665722066726f6d20746865207a65726f206164604482015264647265737360d81b60648201526084016105ac565b6001600160a01b038216611a385760405162461bcd60e51b815260206004820152602360248201527f45524332303a207472616e7366657220746f20746865207a65726f206164647260448201526265737360e81b60648201526084016105ac565b6001600160a01b03831660009081526001602052604090205481811015611ab05760405162461bcd60e51b815260206004820152602660248201527f45524332303a207472616e7366657220616d6f756e7420657863656564732062604482015265616c616e636560d01b60648201526084016105ac565b6001600160a01b03808516600090815260016020526040808220858503905591851681529081208054849290611ae7908490612d45565b92505081905550826001600160a01b0316846001600160a01b03167fddf252ad1be2c89b69c2b068fc378daa952ba7f163c4a11628f55a4df523b3ef84604051611b3391815260200190565b60405180910390a35b50505050565b6040516001600160a01b038316602482015260448101829052611ba590849063a9059cbb60e01b906064015b60408051601f198184030181529190526020810180516001600160e01b03166001600160e01b031990931692909217909152612114565b505050565b6001600160a01b038216611c0a5760405162461bcd60e51b815260206004820152602160248201527f45524332303a206275726e2066726f6d20746865207a65726f206164647265736044820152607360f81b60648201526084016105ac565b6001600160a01b03821660009081526001602052604090205481811015611c7e5760405162461bcd60e51b815260206004820152602260248201527f45524332303a206275726e20616d6f756e7420657863656564732062616c616e604482015261636560f01b60648201526084016105ac565b6001600160a01b0383166000908152600160205260408120838303905560038054849290611cad908490612eaf565b90915550506040518281526000906001600160a01b038516907fddf252ad1be2c89b69c2b068fc378daa952ba7f163c4a11628f55a4df523b3ef9060200160405180910390a3505050565b60007f0000000000000000000000000000000000000000000000000000000000000000461415611d4757507f000000000000000000000000000000000000000000000000000000000000000090565b50604080517f00000000000000000000000000000000000000000000000000000000000000006020808301919091527f0000000000000000000000000000000000000000000000000000000000000000828401527f000000000000000000000000000000000000000000000000000000000000000060608301524660808301523060a0808401919091528351808403909101815260c0909201909252805191012090565b801580611e745750604051636eb1769f60e11b81523060048201526001600160a01b03838116602483015284169063dd62ed3e9060440160206040518083038186803b158015611e3a57600080fd5b505afa158015611e4e573d6000803e3d6000fd5b505050506040513d601f19601f82011682018060405250810190611e7291906129e4565b155b611edf5760405162461bcd60e51b815260206004820152603660248201527f5361666545524332303a20617070726f76652066726f6d206e6f6e2d7a65726f60448201527520746f206e6f6e2d7a65726f20616c6c6f77616e636560501b60648201526084016105ac565b6040516001600160a01b038316602482015260448101829052611ba590849063095ea7b360e01b90606401611b6e565b600080546001600160a01b038381166001600160a01b0319831681178455604051919092169283917f8be0079c531659141344cd1fd0a4f28419497f9722a3daafe3b4186f6b6457e09190a35050565b6001600160a01b03811660009081526006602052604090208054600181018255905b50919050565b60006104d1611f94611cf8565b8360405161190160f01b6020820152602281018390526042810182905260009060620160405160208183030381529060405280519060200120905092915050565b6000806000611fe6878787876121e6565b91509150611ff3816122d3565b5095945050505050565b6040516001600160a01b0380851660248301528316604482015260648101829052611b3c9085906323b872dd60e01b90608401611b6e565b6001600160a01b03821661208b5760405162461bcd60e51b815260206004820152601f60248201527f45524332303a206d696e7420746f20746865207a65726f20616464726573730060448201526064016105ac565b806003600082825461209d9190612d45565b90915550506001600160a01b038216600090815260016020526040812080548392906120ca908490612d45565b90915550506040518181526001600160a01b038316906000907fddf252ad1be2c89b69c2b068fc378daa952ba7f163c4a11628f55a4df523b3ef9060200160405180910390a35050565b6000612169826040518060400160405280602081526020017f5361666545524332303a206c6f772d6c6576656c2063616c6c206661696c6564815250856001600160a01b03166124d49092919063ffffffff16565b805190915015611ba5578080602001905181019061218791906129ac565b611ba55760405162461bcd60e51b815260206004820152602a60248201527f5361666545524332303a204552433230206f7065726174696f6e20646964206e6044820152691bdd081cdd58d8d9595960b21b60648201526084016105ac565b6000807f7fffffffffffffffffffffffffffffff5d576e7357a4501ddfe92f46681b20a083111561221d57506000905060036122ca565b8460ff16601b1415801561223557508460ff16601c14155b1561224657506000905060046122ca565b6040805160008082526020820180845289905260ff881692820192909252606081018690526080810185905260019060a0016020604051602081039080840390855afa15801561229a573d6000803e3d6000fd5b5050604051601f1901519150506001600160a01b0381166122c3576000600192509250506122ca565b9150600090505b94509492505050565b60008160048111156122f557634e487b7160e01b600052602160045260246000fd5b14156122fe5750565b600181600481111561232057634e487b7160e01b600052602160045260246000fd5b141561236e5760405162461bcd60e51b815260206004820152601860248201527f45434453413a20696e76616c6964207369676e6174757265000000000000000060448201526064016105ac565b600281600481111561239057634e487b7160e01b600052602160045260246000fd5b14156123de5760405162461bcd60e51b815260206004820152601f60248201527f45434453413a20696e76616c6964207369676e6174757265206c656e6774680060448201526064016105ac565b600381600481111561240057634e487b7160e01b600052602160045260246000fd5b14156124595760405162461bcd60e51b815260206004820152602260248201527f45434453413a20696e76616c6964207369676e6174757265202773272076616c604482015261756560f01b60648201526084016105ac565b600481600481111561247b57634e487b7160e01b600052602160045260246000fd5b14156113165760405162461bcd60e51b815260206004820152602260248201527f45434453413a20696e76616c6964207369676e6174757265202776272076616c604482015261756560f01b60648201526084016105ac565b60606124e384846000856124eb565b949350505050565b60608247101561254c5760405162461bcd60e51b815260206004820152602660248201527f416464726573733a20696e73756666696369656e742062616c616e636520666f6044820152651c8818d85b1b60d21b60648201526084016105ac565b843b61259a5760405162461bcd60e51b815260206004820152601d60248201527f416464726573733a2063616c6c20746f206e6f6e2d636f6e747261637400000060448201526064016105ac565b600080866001600160a01b031685876040516125b69190612b00565b60006040518083038185875af1925050503d80600081146125f3576040519150601f19603f3d011682016040523d82523d6000602084013e6125f8565b606091505b5091509150612608828286612613565b979650505050505050565b606083156126225750816105c8565b8251156126325782518084602001fd5b8160405162461bcd60e51b81526004016105ac9190612ba1565b60008083601f84011261265d578081fd5b50813567ffffffffffffffff811115612674578182fd5b6020830191508360208260051b850101111561268f57600080fd5b9250929050565b600082601f8301126126a6578081fd5b813567ffffffffffffffff808211156126c1576126c1612f7b565b604051601f8301601f19908116603f011681019082821181831017156126e9576126e9612f7b565b81604052838152866020858801011115612701578485fd5b8360208701602083013792830160200193909352509392505050565b805169ffffffffffffffffffff8116811461273757600080fd5b919050565b60006020828403121561274d578081fd5b81356105c881612f91565b60008060008084860361014081121561276f578384fd5b853561277a81612f91565b945060e0601f198201121561278d578384fd5b50612796612cf4565b60208601356127a481612f91565b815260408601356127b481612f91565b602082015260608601356127c781612f91565b604082015260808601356127da81612f91565b8060608301525060a0860135608082015260c086013560a082015260e086013560c08201528093505061010085013567ffffffffffffffff8082111561281e578384fd5b61282a88838901612696565b9350610120870135915080821115612840578283fd5b5061284d87828801612696565b91505092959194509250565b6000806040838503121561286b578182fd5b823561287681612f91565b9150602083013561288681612f91565b809150509250929050565b6000806000606084860312156128a5578283fd5b83356128b081612f91565b925060208401356128c081612f91565b929592945050506040919091013590565b600080600080600080600060e0888a0312156128eb578283fd5b87356128f681612f91565b9650602088013561290681612f91565b95506040880135945060608801359350608088013561292481612fa6565b9699959850939692959460a0840135945060c09093013592915050565b60008060408385031215612953578182fd5b823561295e81612f91565b946020939093013593505050565b6000806020838503121561297e578182fd5b823567ffffffffffffffff811115612994578283fd5b6129a08582860161264c565b90969095509350505050565b6000602082840312156129bd578081fd5b815180151581146105c8578182fd5b6000602082840312156129dd578081fd5b5035919050565b6000602082840312156129f5578081fd5b5051919050565b600080600060408486031215612a10578081fd5b83359250602084013567ffffffffffffffff811115612a2d578182fd5b612a398682870161264c565b9497909650939450505050565b60008060408385031215612a58578182fd5b505080516020909101519092909150565b600080600080600060a08688031215612a80578283fd5b612a898661271d565b9450602086015193506040860151925060608601519150612aac6080870161271d565b90509295509295909350565b600060208284031215612ac9578081fd5b81516105c881612fa6565b60008151808452612aec816020860160208601612ee9565b601f01601f19169290920160200192915050565b60008251612b12818460208701612ee9565b9190910192915050565b600061014060018060a01b03808816845280875116602085015280602088015116604085015280604088015116606085015280606088015116608085015250608086015160a084015260a086015160c084015260c086015160e084015280610100840152612b8c81840186612ad4565b90508281036101208401526126088185612ad4565b6020815260006105c86020830184612ad4565b60006080808352612bc781840188612ad4565b60208781860152604087818701526060868403818801528388518086528486019150848a019550875b81811015612c3157865180516001600160a01b0390811685528782015116878501528581015186850152840151848401529585019591870191600101612bf0565b50909c9b505050505050505050505050565b6020808252818101527f4f776e61626c653a2063616c6c6572206973206e6f7420746865206f776e6572604082015260600190565b6020808252601f908201527f5265656e7472616e637947756172643a207265656e7472616e742063616c6c00604082015260600190565b6000808335601e19843603018112612cc5578283fd5b83018035915067ffffffffffffffff821115612cdf578283fd5b60200191503681900382131561268f57600080fd5b60405160e0810167ffffffffffffffff81118282101715612d1757612d17612f7b565b60405290565b60008085851115612d2c578182fd5b83861115612d38578182fd5b5050820193919092039150565b60008219821115612d5857612d58612f65565b500190565b600060ff821660ff84168060ff03821115612d7a57612d7a612f65565b019392505050565b600082612d9d57634e487b7160e01b81526012600452602481fd5b500490565b600181815b80851115612ddd578160001904821115612dc357612dc3612f65565b80851615612dd057918102915b93841c9390800290612da7565b509250929050565b60006105c860ff841683600082612dfe575060016104d1565b81612e0b575060006104d1565b8160018114612e215760028114612e2b57612e47565b60019150506104d1565b60ff841115612e3c57612e3c612f65565b50506001821b6104d1565b5060208310610133831016604e8410600b8410161715612e6a575081810a6104d1565b612e748383612da2565b8060001904821115612e8857612e88612f65565b029392505050565b6000816000190483118215151615612eaa57612eaa612f65565b500290565b600082821015612ec157612ec1612f65565b500390565b600060ff821660ff841680821015612ee057612ee0612f65565b90039392505050565b60005b83811015612f04578181015183820152602001612eec565b83811115611b3c5750506000910152565b600181811c90821680612f2957607f821691505b60208210811415611f8157634e487b7160e01b600052602260045260246000fd5b6000600019821415612f5e57612f5e612f65565b5060010190565b634e487b7160e01b600052601160045260246000fd5b634e487b7160e01b600052604160045260246000fd5b6001600160a01b038116811461131657600080fd5b60ff8116811461131657600080fdfea164736f6c6343000804000a",
  "devdoc": {
    "kind": "dev",
    "methods": {
      "DOMAIN_SEPARATOR()": {
        "details": "See {IERC20Permit-DOMAIN_SEPARATOR}."
      },
      "allowance(address,address)": {
        "details": "See {IERC20-allowance}."
      },
      "approve(address,uint256)": {
        "details": "See {IERC20-approve}. Requirements: - `spender` cannot be the zero address."
      },
      "balanceOf(address)": {
        "details": "See {IERC20-balanceOf}."
      },
      "decimals()": {
        "details": "Returns the number of decimals used to get its user representation. For example, if `decimals` equals `2`, a balance of `505` tokens should be displayed to a user as `5.05` (`505 / 10 ** 2`). Tokens usually opt for a value of 18, imitating the relationship between Ether and Wei. This is the value {ERC20} uses, unless this function is overridden; NOTE: This information is only used for _display_ purposes: it in no way affects any of the arithmetic of the contract, including {IERC20-balanceOf} and {IERC20-transfer}."
      },
      "decreaseAllowance(address,uint256)": {
        "details": "Atomically decreases the allowance granted to `spender` by the caller. This is an alternative to {approve} that can be used as a mitigation for problems described in {IERC20-approve}. Emits an {Approval} event indicating the updated allowance. Requirements: - `spender` cannot be the zero address. - `spender` must have allowance for the caller of at least `subtractedValue`."
      },
      "increaseAllowance(address,uint256)": {
        "details": "Atomically increases the allowance granted to `spender` by the caller. This is an alternative to {approve} that can be used as a mitigation for problems described in {IERC20-approve}. Emits an {Approval} event indicating the updated allowance. Requirements: - `spender` cannot be the zero address."
      },
      "name()": {
        "details": "Returns the name of the token."
      },
      "nonces(address)": {
        "details": "See {IERC20Permit-nonces}."
      },
      "owner()": {
        "details": "Returns the address of the current owner."
      },
      "permit(address,address,uint256,uint256,uint8,bytes32,bytes32)": {
        "details": "See {IERC20Permit-permit}."
      },
      "renounceOwnership()": {
        "details": "Leaves the contract without owner. It will not be possible to call `onlyOwner` functions anymore. Can only be called by the current owner. NOTE: Renouncing ownership will leave the contract without an owner, thereby removing any functionality that is only available to the owner."
      },
      "symbol()": {
        "details": "Returns the symbol of the token, usually a shorter version of the name."
      },
      "totalSupply()": {
        "details": "See {IERC20-totalSupply}."
      },
      "transfer(address,uint256)": {
        "details": "See {IERC20-transfer}. Requirements: - `recipient` cannot be the zero address. - the caller must have a balance of at least `amount`."
      },
      "transferFrom(address,address,uint256)": {
        "details": "See {IERC20-transferFrom}. Emits an {Approval} event indicating the updated allowance. This is not required by the EIP. See the note at the beginning of {ERC20}. Requirements: - `sender` and `recipient` cannot be the zero address. - `sender` must have a balance of at least `amount`. - the caller must have allowance for ``sender``'s tokens of at least `amount`."
      },
      "transferOwnership(address)": {
        "details": "Transfers ownership of the contract to a new account (`newOwner`). Can only be called by the current owner."
      }
    },
    "version": 1
  },
  "userdoc": {
    "kind": "user",
    "methods": {},
    "version": 1
  },
  "storageLayout": {
    "storage": [
      {
        "astId": 7,
        "contract": "contracts/InzenFunds.sol:InzenFunds",
        "label": "_owner",
        "offset": 0,
        "slot": "0",
        "type": "t_address"
      },
      {
        "astId": 159,
        "contract": "contracts/InzenFunds.sol:InzenFunds",
        "label": "_balances",
        "offset": 0,
        "slot": "1",
        "type": "t_mapping(t_address,t_uint256)"
      },
      {
        "astId": 165,
        "contract": "contracts/InzenFunds.sol:InzenFunds",
        "label": "_allowances",
        "offset": 0,
        "slot": "2",
        "type": "t_mapping(t_address,t_mapping(t_address,t_uint256))"
      },
      {
        "astId": 167,
        "contract": "contracts/InzenFunds.sol:InzenFunds",
        "label": "_totalSupply",
        "offset": 0,
        "slot": "3",
        "type": "t_uint256"
      },
      {
        "astId": 169,
        "contract": "contracts/InzenFunds.sol:InzenFunds",
        "label": "_name",
        "offset": 0,
        "slot": "4",
        "type": "t_string_storage"
      },
      {
        "astId": 171,
        "contract": "contracts/InzenFunds.sol:InzenFunds",
        "label": "_symbol",
        "offset": 0,
        "slot": "5",
        "type": "t_string_storage"
      },
      {
        "astId": 815,
        "contract": "contracts/InzenFunds.sol:InzenFunds",
        "label": "_nonces",
        "offset": 0,
        "slot": "6",
        "type": "t_mapping(t_address,t_struct(Counter)1546_storage)"
      },
      {
        "astId": 114,
        "contract": "contracts/InzenFunds.sol:InzenFunds",
        "label": "_status",
        "offset": 0,
        "slot": "7",
        "type": "t_uint256"
      },
      {
        "astId": 2153,
        "contract": "contracts/InzenFunds.sol:InzenFunds",
        "label": "portfolio",
        "offset": 0,
        "slot": "8",
        "type": "t_array(t_struct(Assets)2149_storage)dyn_storage"
      },
      {
        "astId": 2158,
        "contract": "contracts/InzenFunds.sol:InzenFunds",
        "label": "tokenIdx",
        "offset": 0,
        "slot": "9",
        "type": "t_mapping(t_contract(ERC20)689,t_uint256)"
      },
      {
        "astId": 2161,
        "contract": "contracts/InzenFunds.sol:InzenFunds",
        "label": "router",
        "offset": 0,
        "slot": "10",
        "type": "t_contract(AggregationRouterV5Interface)2976"
      },
      {
        "astId": 2164,
        "contract": "contracts/InzenFunds.sol:InzenFunds",
        "label": "baseToken",
        "offset": 0,
        "slot": "11",
        "type": "t_contract(ERC20)689"
      }
    ],
    "types": {
      "t_address": {
        "encoding": "inplace",
        "label": "address",
        "numberOfBytes": "20"
      },
      "t_array(t_struct(Assets)2149_storage)dyn_storage": {
        "base": "t_struct(Assets)2149_storage",
        "encoding": "dynamic_array",
        "label": "struct InzenFunds.Assets[]",
        "numberOfBytes": "32"
      },
      "t_contract(AggregationRouterV5Interface)2976": {
        "encoding": "inplace",
        "label": "contract AggregationRouterV5Interface",
        "numberOfBytes": "20"
      },
      "t_contract(AggregatorV3Interface)3022": {
        "encoding": "inplace",
        "label": "contract AggregatorV3Interface",
        "numberOfBytes": "20"
      },
      "t_contract(ERC20)689": {
        "encoding": "inplace",
        "label": "contract ERC20",
        "numberOfBytes": "20"
      },
      "t_mapping(t_address,t_mapping(t_address,t_uint256))": {
        "encoding": "mapping",
        "key": "t_address",
        "label": "mapping(address => mapping(address => uint256))",
        "numberOfBytes": "32",
        "value": "t_mapping(t_address,t_uint256)"
      },
      "t_mapping(t_address,t_struct(Counter)1546_storage)": {
        "encoding": "mapping",
        "key": "t_address",
        "label": "mapping(address => struct Counters.Counter)",
        "numberOfBytes": "32",
        "value": "t_struct(Counter)1546_storage"
      },
      "t_mapping(t_address,t_uint256)": {
        "encoding": "mapping",
        "key": "t_address",
        "label": "mapping(address => uint256)",
        "numberOfBytes": "32",
        "value": "t_uint256"
      },
      "t_mapping(t_contract(ERC20)689,t_uint256)": {
        "encoding": "mapping",
        "key": "t_contract(ERC20)689",
        "label": "mapping(contract ERC20 => uint256)",
        "numberOfBytes": "32",
        "value": "t_uint256"
      },
      "t_string_storage": {
        "encoding": "bytes",
        "label": "string",
        "numberOfBytes": "32"
      },
      "t_struct(Assets)2149_storage": {
        "encoding": "inplace",
        "label": "struct InzenFunds.Assets",
        "members": [
          {
            "astId": 2141,
            "contract": "contracts/InzenFunds.sol:InzenFunds",
            "label": "token",
            "offset": 0,
            "slot": "0",
            "type": "t_contract(ERC20)689"
          },
          {
            "astId": 2144,
            "contract": "contracts/InzenFunds.sol:InzenFunds",
            "label": "priceFeed",
            "offset": 0,
            "slot": "1",
            "type": "t_contract(AggregatorV3Interface)3022"
          },
          {
            "astId": 2146,
            "contract": "contracts/InzenFunds.sol:InzenFunds",
            "label": "amount",
            "offset": 0,
            "slot": "2",
            "type": "t_uint256"
          },
          {
            "astId": 2148,
            "contract": "contracts/InzenFunds.sol:InzenFunds",
            "label": "weight",
            "offset": 0,
            "slot": "3",
            "type": "t_uint256"
          }
        ],
        "numberOfBytes": "128"
      },
      "t_struct(Counter)1546_storage": {
        "encoding": "inplace",
        "label": "struct Counters.Counter",
        "members": [
          {
            "astId": 1545,
            "contract": "contracts/InzenFunds.sol:InzenFunds",
            "label": "_value",
            "offset": 0,
            "slot": "0",
            "type": "t_uint256"
          }
        ],
        "numberOfBytes": "32"
      },
      "t_uint256": {
        "encoding": "inplace",
        "label": "uint256",
        "numberOfBytes": "32"
      }
    }
  }
}