{
  "address": "0xd6B3aD5cff2DF8058ccff509d861816633AA044b",
  "abi": [
    {
      "inputs": [
        {
          "internalType": "string",
          "name": "_name",
          "type": "string"
        },
        {
          "internalType": "contract ERC20Votes",
          "name": "_tokenAddress",
          "type": "address"
        },
        {
          "internalType": "uint256",
          "name": "_period",
          "type": "uint256"
        },
        {
          "internalType": "uint256",
          "name": "_quorum",
          "type": "uint256"
        }
      ],
      "stateMutability": "nonpayable",
      "type": "constructor"
    },
    {
      "inputs": [],
      "name": "Empty",
      "type": "error"
    },
    {
      "anonymous": false,
      "inputs": [
        {
          "indexed": true,
          "internalType": "uint256",
          "name": "proposalId",
          "type": "uint256"
        },
        {
          "indexed": false,
          "internalType": "enum EasyGovernor.EventState",
          "name": "state",
          "type": "uint8"
        },
        {
          "indexed": false,
          "internalType": "contract ERC20",
          "name": "token",
          "type": "address"
        },
        {
          "indexed": false,
          "internalType": "contract AggregatorV3Interface",
          "name": "priceFeed",
          "type": "address"
        }
      ],
      "name": "NewAsset",
      "type": "event"
    },
    {
      "anonymous": false,
      "inputs": [
        {
          "indexed": true,
          "internalType": "uint256",
          "name": "proposalId",
          "type": "uint256"
        },
        {
          "indexed": false,
          "internalType": "enum EasyGovernor.EventState",
          "name": "state",
          "type": "uint8"
        },
        {
          "indexed": false,
          "internalType": "address",
          "name": "user",
          "type": "address"
        }
      ],
      "name": "NewPortfolioEngineer",
      "type": "event"
    },
    {
      "anonymous": false,
      "inputs": [
        {
          "indexed": false,
          "internalType": "uint256",
          "name": "proposalId",
          "type": "uint256"
        }
      ],
      "name": "ProposalCanceled",
      "type": "event"
    },
    {
      "anonymous": false,
      "inputs": [
        {
          "indexed": false,
          "internalType": "uint256",
          "name": "proposalId",
          "type": "uint256"
        },
        {
          "indexed": false,
          "internalType": "address",
          "name": "proposer",
          "type": "address"
        },
        {
          "indexed": false,
          "internalType": "address[]",
          "name": "targets",
          "type": "address[]"
        },
        {
          "indexed": false,
          "internalType": "uint256[]",
          "name": "values",
          "type": "uint256[]"
        },
        {
          "indexed": false,
          "internalType": "string[]",
          "name": "signatures",
          "type": "string[]"
        },
        {
          "indexed": false,
          "internalType": "bytes[]",
          "name": "calldatas",
          "type": "bytes[]"
        },
        {
          "indexed": false,
          "internalType": "uint256",
          "name": "startBlock",
          "type": "uint256"
        },
        {
          "indexed": false,
          "internalType": "uint256",
          "name": "endBlock",
          "type": "uint256"
        },
        {
          "indexed": false,
          "internalType": "string",
          "name": "description",
          "type": "string"
        }
      ],
      "name": "ProposalCreated",
      "type": "event"
    },
    {
      "anonymous": false,
      "inputs": [
        {
          "indexed": false,
          "internalType": "uint256",
          "name": "proposalId",
          "type": "uint256"
        }
      ],
      "name": "ProposalExecuted",
      "type": "event"
    },
    {
      "anonymous": false,
      "inputs": [
        {
          "indexed": false,
          "internalType": "uint256",
          "name": "oldQuorumNumerator",
          "type": "uint256"
        },
        {
          "indexed": false,
          "internalType": "uint256",
          "name": "newQuorumNumerator",
          "type": "uint256"
        }
      ],
      "name": "QuorumNumeratorUpdated",
      "type": "event"
    },
    {
      "anonymous": false,
      "inputs": [
        {
          "indexed": true,
          "internalType": "uint256",
          "name": "proposalId",
          "type": "uint256"
        },
        {
          "indexed": false,
          "internalType": "enum EasyGovernor.EventState",
          "name": "state",
          "type": "uint8"
        },
        {
          "indexed": false,
          "internalType": "uint256[]",
          "name": "weights",
          "type": "uint256[]"
        }
      ],
      "name": "Reconfigure",
      "type": "event"
    },
    {
      "anonymous": false,
      "inputs": [
        {
          "indexed": true,
          "internalType": "uint256",
          "name": "proposalId",
          "type": "uint256"
        },
        {
          "indexed": false,
          "internalType": "enum EasyGovernor.EventState",
          "name": "state",
          "type": "uint8"
        },
        {
          "indexed": false,
          "internalType": "address",
          "name": "user",
          "type": "address"
        }
      ],
      "name": "RemovePortfolioEngineer",
      "type": "event"
    },
    {
      "anonymous": false,
      "inputs": [
        {
          "indexed": true,
          "internalType": "address",
          "name": "voter",
          "type": "address"
        },
        {
          "indexed": false,
          "internalType": "uint256",
          "name": "proposalId",
          "type": "uint256"
        },
        {
          "indexed": false,
          "internalType": "uint8",
          "name": "support",
          "type": "uint8"
        },
        {
          "indexed": false,
          "internalType": "uint256",
          "name": "weight",
          "type": "uint256"
        },
        {
          "indexed": false,
          "internalType": "string",
          "name": "reason",
          "type": "string"
        }
      ],
      "name": "VoteCast",
      "type": "event"
    },
    {
      "anonymous": false,
      "inputs": [
        {
          "indexed": true,
          "internalType": "address",
          "name": "voter",
          "type": "address"
        },
        {
          "indexed": false,
          "internalType": "uint256",
          "name": "proposalId",
          "type": "uint256"
        },
        {
          "indexed": false,
          "internalType": "uint8",
          "name": "support",
          "type": "uint8"
        },
        {
          "indexed": false,
          "internalType": "uint256",
          "name": "weight",
          "type": "uint256"
        },
        {
          "indexed": false,
          "internalType": "string",
          "name": "reason",
          "type": "string"
        },
        {
          "indexed": false,
          "internalType": "bytes",
          "name": "params",
          "type": "bytes"
        }
      ],
      "name": "VoteCastWithParams",
      "type": "event"
    },
    {
      "inputs": [],
      "name": "BALLOT_TYPEHASH",
      "outputs": [
        {
          "internalType": "bytes32",
          "name": "",
          "type": "bytes32"
        }
      ],
      "stateMutability": "view",
      "type": "function"
    },
    {
      "inputs": [],
      "name": "COUNTING_MODE",
      "outputs": [
        {
          "internalType": "string",
          "name": "",
          "type": "string"
        }
      ],
      "stateMutability": "pure",
      "type": "function"
    },
    {
      "inputs": [],
      "name": "EXTENDED_BALLOT_TYPEHASH",
      "outputs": [
        {
          "internalType": "bytes32",
          "name": "",
          "type": "bytes32"
        }
      ],
      "stateMutability": "view",
      "type": "function"
    },
    {
      "inputs": [],
      "name": "PORTFOLIO_ENGINEER_ROLE",
      "outputs": [
        {
          "internalType": "bytes32",
          "name": "",
          "type": "bytes32"
        }
      ],
      "stateMutability": "view",
      "type": "function"
    },
    {
      "inputs": [
        {
          "internalType": "uint256",
          "name": "proposalId",
          "type": "uint256"
        },
        {
          "internalType": "uint8",
          "name": "support",
          "type": "uint8"
        }
      ],
      "name": "castVote",
      "outputs": [
        {
          "internalType": "uint256",
          "name": "",
          "type": "uint256"
        }
      ],
      "stateMutability": "nonpayable",
      "type": "function"
    },
    {
      "inputs": [
        {
          "internalType": "uint256",
          "name": "proposalId",
          "type": "uint256"
        },
        {
          "internalType": "uint8",
          "name": "support",
          "type": "uint8"
        },
        {
          "internalType": "uint8",
          "name": "v",
          "type": "uint8"
        },
        {
          "internalType": "bytes32",
          "name": "r",
          "type": "bytes32"
        },
        {
          "internalType": "bytes32",
          "name": "s",
          "type": "bytes32"
        }
      ],
      "name": "castVoteBySig",
      "outputs": [
        {
          "internalType": "uint256",
          "name": "",
          "type": "uint256"
        }
      ],
      "stateMutability": "nonpayable",
      "type": "function"
    },
    {
      "inputs": [
        {
          "internalType": "uint256",
          "name": "proposalId",
          "type": "uint256"
        },
        {
          "internalType": "uint8",
          "name": "support",
          "type": "uint8"
        },
        {
          "internalType": "string",
          "name": "reason",
          "type": "string"
        }
      ],
      "name": "castVoteWithReason",
      "outputs": [
        {
          "internalType": "uint256",
          "name": "",
          "type": "uint256"
        }
      ],
      "stateMutability": "nonpayable",
      "type": "function"
    },
    {
      "inputs": [
        {
          "internalType": "uint256",
          "name": "proposalId",
          "type": "uint256"
        },
        {
          "internalType": "uint8",
          "name": "support",
          "type": "uint8"
        },
        {
          "internalType": "string",
          "name": "reason",
          "type": "string"
        },
        {
          "internalType": "bytes",
          "name": "params",
          "type": "bytes"
        }
      ],
      "name": "castVoteWithReasonAndParams",
      "outputs": [
        {
          "internalType": "uint256",
          "name": "",
          "type": "uint256"
        }
      ],
      "stateMutability": "nonpayable",
      "type": "function"
    },
    {
      "inputs": [
        {
          "internalType": "uint256",
          "name": "proposalId",
          "type": "uint256"
        },
        {
          "internalType": "uint8",
          "name": "support",
          "type": "uint8"
        },
        {
          "internalType": "string",
          "name": "reason",
          "type": "string"
        },
        {
          "internalType": "bytes",
          "name": "params",
          "type": "bytes"
        },
        {
          "internalType": "uint8",
          "name": "v",
          "type": "uint8"
        },
        {
          "internalType": "bytes32",
          "name": "r",
          "type": "bytes32"
        },
        {
          "internalType": "bytes32",
          "name": "s",
          "type": "bytes32"
        }
      ],
      "name": "castVoteWithReasonAndParamsBySig",
      "outputs": [
        {
          "internalType": "uint256",
          "name": "",
          "type": "uint256"
        }
      ],
      "stateMutability": "nonpayable",
      "type": "function"
    },
    {
      "inputs": [
        {
          "internalType": "address[]",
          "name": "targets",
          "type": "address[]"
        },
        {
          "internalType": "uint256[]",
          "name": "values",
          "type": "uint256[]"
        },
        {
          "internalType": "bytes[]",
          "name": "calldatas",
          "type": "bytes[]"
        },
        {
          "internalType": "bytes32",
          "name": "descriptionHash",
          "type": "bytes32"
        }
      ],
      "name": "execute",
      "outputs": [
        {
          "internalType": "uint256",
          "name": "",
          "type": "uint256"
        }
      ],
      "stateMutability": "payable",
      "type": "function"
    },
    {
      "inputs": [
        {
          "internalType": "contract ERC20",
          "name": "_token",
          "type": "address"
        },
        {
          "internalType": "contract AggregatorV3Interface",
          "name": "_priceFeed",
          "type": "address"
        }
      ],
      "name": "executeNewAsset",
      "outputs": [
        {
          "internalType": "uint256",
          "name": "proposalId",
          "type": "uint256"
        }
      ],
      "stateMutability": "nonpayable",
      "type": "function"
    },
    {
      "inputs": [
        {
          "internalType": "address",
          "name": "user",
          "type": "address"
        }
      ],
      "name": "executeNewPortfolioEngineer",
      "outputs": [
        {
          "internalType": "uint256",
          "name": "proposalId",
          "type": "uint256"
        }
      ],
      "stateMutability": "nonpayable",
      "type": "function"
    },
    {
      "inputs": [
        {
          "internalType": "uint256[]",
          "name": "_weights",
          "type": "uint256[]"
        }
      ],
      "name": "executeReconfigure",
      "outputs": [
        {
          "internalType": "uint256",
          "name": "proposalId",
          "type": "uint256"
        }
      ],
      "stateMutability": "nonpayable",
      "type": "function"
    },
    {
      "inputs": [
        {
          "internalType": "address",
          "name": "user",
          "type": "address"
        }
      ],
      "name": "executeRemovePortfolioEngineer",
      "outputs": [
        {
          "internalType": "uint256",
          "name": "proposalId",
          "type": "uint256"
        }
      ],
      "stateMutability": "nonpayable",
      "type": "function"
    },
    {
      "inputs": [
        {
          "internalType": "address",
          "name": "account",
          "type": "address"
        },
        {
          "internalType": "uint256",
          "name": "blockNumber",
          "type": "uint256"
        }
      ],
      "name": "getVotes",
      "outputs": [
        {
          "internalType": "uint256",
          "name": "",
          "type": "uint256"
        }
      ],
      "stateMutability": "view",
      "type": "function"
    },
    {
      "inputs": [
        {
          "internalType": "address",
          "name": "account",
          "type": "address"
        },
        {
          "internalType": "uint256",
          "name": "blockNumber",
          "type": "uint256"
        },
        {
          "internalType": "bytes",
          "name": "params",
          "type": "bytes"
        }
      ],
      "name": "getVotesWithParams",
      "outputs": [
        {
          "internalType": "uint256",
          "name": "",
          "type": "uint256"
        }
      ],
      "stateMutability": "view",
      "type": "function"
    },
    {
      "inputs": [
        {
          "internalType": "uint256",
          "name": "proposalId",
          "type": "uint256"
        },
        {
          "internalType": "address",
          "name": "account",
          "type": "address"
        }
      ],
      "name": "hasVoted",
      "outputs": [
        {
          "internalType": "bool",
          "name": "",
          "type": "bool"
        }
      ],
      "stateMutability": "view",
      "type": "function"
    },
    {
      "inputs": [
        {
          "internalType": "address[]",
          "name": "targets",
          "type": "address[]"
        },
        {
          "internalType": "uint256[]",
          "name": "values",
          "type": "uint256[]"
        },
        {
          "internalType": "bytes[]",
          "name": "calldatas",
          "type": "bytes[]"
        },
        {
          "internalType": "bytes32",
          "name": "descriptionHash",
          "type": "bytes32"
        }
      ],
      "name": "hashProposal",
      "outputs": [
        {
          "internalType": "uint256",
          "name": "",
          "type": "uint256"
        }
      ],
      "stateMutability": "pure",
      "type": "function"
    },
    {
      "inputs": [],
      "name": "name",
      "outputs": [
        {
          "internalType": "string",
          "name": "",
          "type": "string"
        }
      ],
      "stateMutability": "view",
      "type": "function"
    },
    {
      "inputs": [
        {
          "internalType": "address",
          "name": "",
          "type": "address"
        },
        {
          "internalType": "address",
          "name": "",
          "type": "address"
        },
        {
          "internalType": "uint256[]",
          "name": "",
          "type": "uint256[]"
        },
        {
          "internalType": "uint256[]",
          "name": "",
          "type": "uint256[]"
        },
        {
          "internalType": "bytes",
          "name": "",
          "type": "bytes"
        }
      ],
      "name": "onERC1155BatchReceived",
      "outputs": [
        {
          "internalType": "bytes4",
          "name": "",
          "type": "bytes4"
        }
      ],
      "stateMutability": "nonpayable",
      "type": "function"
    },
    {
      "inputs": [
        {
          "internalType": "address",
          "name": "",
          "type": "address"
        },
        {
          "internalType": "address",
          "name": "",
          "type": "address"
        },
        {
          "internalType": "uint256",
          "name": "",
          "type": "uint256"
        },
        {
          "internalType": "uint256",
          "name": "",
          "type": "uint256"
        },
        {
          "internalType": "bytes",
          "name": "",
          "type": "bytes"
        }
      ],
      "name": "onERC1155Received",
      "outputs": [
        {
          "internalType": "bytes4",
          "name": "",
          "type": "bytes4"
        }
      ],
      "stateMutability": "nonpayable",
      "type": "function"
    },
    {
      "inputs": [
        {
          "internalType": "address",
          "name": "",
          "type": "address"
        },
        {
          "internalType": "address",
          "name": "",
          "type": "address"
        },
        {
          "internalType": "uint256",
          "name": "",
          "type": "uint256"
        },
        {
          "internalType": "bytes",
          "name": "",
          "type": "bytes"
        }
      ],
      "name": "onERC721Received",
      "outputs": [
        {
          "internalType": "bytes4",
          "name": "",
          "type": "bytes4"
        }
      ],
      "stateMutability": "nonpayable",
      "type": "function"
    },
    {
      "inputs": [],
      "name": "period",
      "outputs": [
        {
          "internalType": "uint256",
          "name": "",
          "type": "uint256"
        }
      ],
      "stateMutability": "view",
      "type": "function"
    },
    {
      "inputs": [
        {
          "internalType": "uint256",
          "name": "proposalId",
          "type": "uint256"
        }
      ],
      "name": "proposalDeadline",
      "outputs": [
        {
          "internalType": "uint256",
          "name": "",
          "type": "uint256"
        }
      ],
      "stateMutability": "view",
      "type": "function"
    },
    {
      "inputs": [
        {
          "internalType": "uint256",
          "name": "proposalId",
          "type": "uint256"
        }
      ],
      "name": "proposalSnapshot",
      "outputs": [
        {
          "internalType": "uint256",
          "name": "",
          "type": "uint256"
        }
      ],
      "stateMutability": "view",
      "type": "function"
    },
    {
      "inputs": [],
      "name": "proposalThreshold",
      "outputs": [
        {
          "internalType": "uint256",
          "name": "",
          "type": "uint256"
        }
      ],
      "stateMutability": "view",
      "type": "function"
    },
    {
      "inputs": [],
      "name": "proposalTopics",
      "outputs": [
        {
          "internalType": "bytes32[]",
          "name": "topics",
          "type": "bytes32[]"
        }
      ],
      "stateMutability": "view",
      "type": "function"
    },
    {
      "inputs": [
        {
          "internalType": "uint256",
          "name": "proposalId",
          "type": "uint256"
        }
      ],
      "name": "proposalVotes",
      "outputs": [
        {
          "internalType": "uint256",
          "name": "againstVotes",
          "type": "uint256"
        },
        {
          "internalType": "uint256",
          "name": "forVotes",
          "type": "uint256"
        },
        {
          "internalType": "uint256",
          "name": "abstainVotes",
          "type": "uint256"
        }
      ],
      "stateMutability": "view",
      "type": "function"
    },
    {
      "inputs": [
        {
          "internalType": "address[]",
          "name": "targets",
          "type": "address[]"
        },
        {
          "internalType": "uint256[]",
          "name": "values",
          "type": "uint256[]"
        },
        {
          "internalType": "bytes[]",
          "name": "calldatas",
          "type": "bytes[]"
        },
        {
          "internalType": "string",
          "name": "description",
          "type": "string"
        }
      ],
      "name": "propose",
      "outputs": [
        {
          "internalType": "uint256",
          "name": "",
          "type": "uint256"
        }
      ],
      "stateMutability": "nonpayable",
      "type": "function"
    },
    {
      "inputs": [
        {
          "internalType": "contract ERC20",
          "name": "_token",
          "type": "address"
        },
        {
          "internalType": "contract AggregatorV3Interface",
          "name": "_priceFeed",
          "type": "address"
        }
      ],
      "name": "proposeNewAsset",
      "outputs": [
        {
          "internalType": "uint256",
          "name": "proposalId",
          "type": "uint256"
        }
      ],
      "stateMutability": "nonpayable",
      "type": "function"
    },
    {
      "inputs": [
        {
          "internalType": "address",
          "name": "user",
          "type": "address"
        }
      ],
      "name": "proposeNewPortfolioEngineer",
      "outputs": [
        {
          "internalType": "uint256",
          "name": "proposalId",
          "type": "uint256"
        }
      ],
      "stateMutability": "nonpayable",
      "type": "function"
    },
    {
      "inputs": [
        {
          "internalType": "uint256[]",
          "name": "_weights",
          "type": "uint256[]"
        }
      ],
      "name": "proposeReconfigure",
      "outputs": [
        {
          "internalType": "uint256",
          "name": "proposalId",
          "type": "uint256"
        }
      ],
      "stateMutability": "nonpayable",
      "type": "function"
    },
    {
      "inputs": [
        {
          "internalType": "address",
          "name": "user",
          "type": "address"
        }
      ],
      "name": "proposeRemovePortfolioEngineer",
      "outputs": [
        {
          "internalType": "uint256",
          "name": "proposalId",
          "type": "uint256"
        }
      ],
      "stateMutability": "nonpayable",
      "type": "function"
    },
    {
      "inputs": [
        {
          "internalType": "uint256",
          "name": "blockNumber",
          "type": "uint256"
        }
      ],
      "name": "quorum",
      "outputs": [
        {
          "internalType": "uint256",
          "name": "",
          "type": "uint256"
        }
      ],
      "stateMutability": "view",
      "type": "function"
    },
    {
      "inputs": [],
      "name": "quorumDenominator",
      "outputs": [
        {
          "internalType": "uint256",
          "name": "",
          "type": "uint256"
        }
      ],
      "stateMutability": "view",
      "type": "function"
    },
    {
      "inputs": [
        {
          "internalType": "uint256",
          "name": "blockNumber",
          "type": "uint256"
        }
      ],
      "name": "quorumNumerator",
      "outputs": [
        {
          "internalType": "uint256",
          "name": "",
          "type": "uint256"
        }
      ],
      "stateMutability": "view",
      "type": "function"
    },
    {
      "inputs": [],
      "name": "quorumNumerator",
      "outputs": [
        {
          "internalType": "uint256",
          "name": "",
          "type": "uint256"
        }
      ],
      "stateMutability": "view",
      "type": "function"
    },
    {
      "inputs": [
        {
          "internalType": "address",
          "name": "target",
          "type": "address"
        },
        {
          "internalType": "uint256",
          "name": "value",
          "type": "uint256"
        },
        {
          "internalType": "bytes",
          "name": "data",
          "type": "bytes"
        }
      ],
      "name": "relay",
      "outputs": [],
      "stateMutability": "payable",
      "type": "function"
    },
    {
      "inputs": [
        {
          "internalType": "uint256",
          "name": "proposalId",
          "type": "uint256"
        }
      ],
      "name": "state",
      "outputs": [
        {
          "internalType": "enum IGovernor.ProposalState",
          "name": "",
          "type": "uint8"
        }
      ],
      "stateMutability": "view",
      "type": "function"
    },
    {
      "inputs": [
        {
          "internalType": "bytes4",
          "name": "interfaceId",
          "type": "bytes4"
        }
      ],
      "name": "supportsInterface",
      "outputs": [
        {
          "internalType": "bool",
          "name": "",
          "type": "bool"
        }
      ],
      "stateMutability": "view",
      "type": "function"
    },
    {
      "inputs": [],
      "name": "token",
      "outputs": [
        {
          "internalType": "contract IVotes",
          "name": "",
          "type": "address"
        }
      ],
      "stateMutability": "view",
      "type": "function"
    },
    {
      "inputs": [
        {
          "internalType": "uint256",
          "name": "newQuorumNumerator",
          "type": "uint256"
        }
      ],
      "name": "updateQuorumNumerator",
      "outputs": [],
      "stateMutability": "nonpayable",
      "type": "function"
    },
    {
      "inputs": [],
      "name": "version",
      "outputs": [
        {
          "internalType": "string",
          "name": "",
          "type": "string"
        }
      ],
      "stateMutability": "view",
      "type": "function"
    },
    {
      "inputs": [],
      "name": "votingDelay",
      "outputs": [
        {
          "internalType": "uint256",
          "name": "",
          "type": "uint256"
        }
      ],
      "stateMutability": "pure",
      "type": "function"
    },
    {
      "inputs": [],
      "name": "votingPeriod",
      "outputs": [
        {
          "internalType": "uint256",
          "name": "",
          "type": "uint256"
        }
      ],
      "stateMutability": "view",
      "type": "function"
    },
    {
      "stateMutability": "payable",
      "type": "receive"
    }
  ],
  "transactionHash": "0xb5e5116707b270e78abbf751130d7907db3f71eb95a1a3835774bfa571e690ce",
  "args": [
    "InzenGovernor: Polygon4",
    "0x5799fFCd4F51ebd9a84259296b072467FedB25d5",
    86400,
    20
  ],
  "solcInputHash": "e29fecaa1f4ab5c7c2f3a018911be6e2",
  "bytecode": "0x6101606040523480156200001257600080fd5b506040516200466a3803806200466a8339810160408190526200003591620006ac565b80838580620000586040805180820190915260018152603160f81b602082015290565b815160209283012081519183019190912060e08290526101008190524660a0818152604080517f8b73c3c69bb8fe3d512ecc4cf759cc79239f7b179b0ffacaa9a75d522b39400f818801819052818301969096526060810194909452608080850193909352308483018190528151808603909301835260c094850190915281519190950120905291909152610120526000620000f5828262000833565b50506001600160a01b0316610140526200010f816200019b565b50506007556008805460018082019092557ff3f7a9fe364faab93b216da50a3214154f22a0a2b415b23a84c8169e8b636ee30180546001600160a01b0319166001600160a01b03939093169290921790915560098054918201815560009081527f6e1540171b6c0c960b71a7020d9f60077f6af931a8bbf590da0223dacf75c7af909101555062000927565b6064811115620002245760405162461bcd60e51b815260206004820152604360248201527f476f7665726e6f72566f74657351756f72756d4672616374696f6e3a2071756f60448201527f72756d4e756d657261746f72206f7665722071756f72756d44656e6f6d696e616064820152623a37b960e91b608482015260a4015b60405180910390fd5b60006200023062000317565b90508015801590620002425750600554155b15620002bd5760056000016040518060400160405280600063ffffffff1681526020016200027b846200034f60201b62001b1f1760201c565b6001600160e01b0390811690915282546001810184556000938452602093849020835194909301519091166401000000000263ffffffff909316929092179101555b620002d8826005620003be60201b62001b8c1790919060201c565b505060408051828152602081018490527f0553476bf02ef2726e8ce5ced78d63e26e602e4a2257b1f559418e24b4633997910160405180910390a15050565b6005546000901562000348576200033a60056200041160201b62001bc21760201c565b6001600160e01b0316905090565b5060045490565b60006001600160e01b03821115620003ba5760405162461bcd60e51b815260206004820152602760248201527f53616665436173743a2076616c756520646f65736e27742066697420696e20326044820152663234206269747360c81b60648201526084016200021b565b5090565b600080620003fb84600001620003df436200045f60201b62001c091760201c565b620003f5866200034f60201b62001b1f1760201c565b620004c6565b6001600160e01b03918216969116945092505050565b8054600090801562000455576200043d836200042f600184620008ff565b600091825260209091200190565b5464010000000090046001600160e01b031662000458565b60005b9392505050565b600063ffffffff821115620003ba5760405162461bcd60e51b815260206004820152602660248201527f53616665436173743a2076616c756520646f65736e27742066697420696e203360448201526532206269747360d01b60648201526084016200021b565b8254600090819080156200061b576000620004e8876200042f600185620008ff565b60408051808201909152905463ffffffff8082168084526401000000009092046001600160e01b0316602084015291925090871610156200056c5760405162461bcd60e51b815260206004820152601760248201527f436865636b706f696e743a20696e76616c6964206b657900000000000000000060448201526064016200021b565b805163ffffffff808816911603620005ba578462000591886200042f600186620008ff565b80546001600160e01b03929092166401000000000263ffffffff9092169190911790556200060a565b6040805180820190915263ffffffff80881682526001600160e01b0380881660208085019182528b54600181018d5560008d81529190912094519151909216640100000000029216919091179101555b602001519250839150620006719050565b50506040805180820190915263ffffffff80851682526001600160e01b0380851660208085019182528854600181018a5560008a8152918220955192519093166401000000000291909316179201919091559050815b935093915050565b634e487b7160e01b600052604160045260246000fd5b80516001600160a01b0381168114620006a757600080fd5b919050565b60008060008060808587031215620006c357600080fd5b84516001600160401b0380821115620006db57600080fd5b818701915087601f830112620006f057600080fd5b81518181111562000705576200070562000679565b604051601f8201601f19908116603f0116810190838211818310171562000730576200073062000679565b81604052828152602093508a848487010111156200074d57600080fd5b600091505b8282101562000771578482018401518183018501529083019062000752565b60008484830101528098505050506200078c8188016200068f565b60408801516060909801519699909850945050505050565b600181811c90821680620007b957607f821691505b602082108103620007da57634e487b7160e01b600052602260045260246000fd5b50919050565b601f8211156200082e57600081815260208120601f850160051c81016020861015620008095750805b601f850160051c820191505b818110156200082a5782815560010162000815565b5050505b505050565b81516001600160401b038111156200084f576200084f62000679565b6200086781620008608454620007a4565b84620007e0565b602080601f8311600181146200089f5760008415620008865750858301515b600019600386901b1c1916600185901b1785556200082a565b600085815260208120601f198616915b82811015620008d057888601518255948401946001909101908401620008af565b5085821015620008ef5787850151600019600388901b60f8161c191681555b5050505050600190811b01905550565b818103818111156200092157634e487b7160e01b600052601160045260246000fd5b92915050565b60805160a05160c05160e051610100516101205161014051613ccc6200099e600039600081816108cd01528181610c5401528181610eca01528181611a9801526125a4015260006128c201526000612911015260006128ec015260006128450152600061286f015260006128990152613ccc6000f3fe6080604052600436106102765760003560e01c806362124d931161014f578063be5e4a8f116100c1578063eb9019d41161007a578063eb9019d414610817578063ef78d4fd14610837578063f23a6e611461084d578063f3a730af14610879578063f8ce560a1461089b578063fc0c546a146108bb57600080fd5b8063be5e4a8f1461072a578063c01f9e371461074a578063c28bc2fa1461076a578063c59057e41461077d578063dd4e2ba51461079d578063deaaa7cc146107e357600080fd5b80639385742d116101135780639385742d1461069557806397c3d334146106b55780639a802a6d146106c9578063a7713a70146106e9578063b58131b014610469578063bc197c81146106fe57600080fd5b806362124d93146105f35780636644941914610613578063721aed00146106335780637b3c71d3146106555780637d5e81e21461067557600080fd5b80632d63f693116101e857806343859632116101ac57806343859632146104ca578063544ffc9c1461051457806354fd4d501461056957806356781388146105935780635f398a14146105b357806360c4247f146105d357600080fd5b80632d63f693146104155780632fe3e261146104355780633932abb1146104695780633bccf4fd1461047d5780633e4f49e61461049d57600080fd5b806306fdde031161023a57806306fdde031461033c57806308665adc1461035e57806313862c851461037e578063150b7a021461039e5780632656227d146103e257806329858df9146103f557600080fd5b806301ffc9a7146102845780630232a630146102b957806302a251a3146102e757806303420181146102fc57806306f3f9e61461031c57600080fd5b3661027f57005b005b600080fd5b34801561029057600080fd5b506102a461029f366004612dc6565b610907565b60405190151581526020015b60405180910390f35b3480156102c557600080fd5b506102d96102d4366004612e05565b610918565b6040519081526020016102b0565b3480156102f357600080fd5b506007546102d9565b34801561030857600080fd5b506102d9610317366004612f52565b6109c2565b34801561032857600080fd5b5061027d610337366004612ff8565b610aba565b34801561034857600080fd5b50610351610b2c565b6040516102b09190613061565b34801561036a57600080fd5b506102d9610379366004613102565b610bbe565b34801561038a57600080fd5b506102d9610399366004613136565b610c1e565b3480156103aa57600080fd5b506103c96103b9366004613153565b630a85bd0160e11b949350505050565b6040516001600160e01b031990911681526020016102b0565b6102d96103f03660046132a1565b610d6d565b34801561040157600080fd5b506102d9610410366004613136565b610e94565b34801561042157600080fd5b506102d9610430366004612ff8565b610fe6565b34801561044157600080fd5b506102d97fb3b3f3b703cd84ce352197dcff232b1b5d3cfb2025ce47cf04742d0651f1af8881565b34801561047557600080fd5b5060006102d9565b34801561048957600080fd5b506102d9610498366004613330565b61101d565b3480156104a957600080fd5b506104bd6104b8366004612ff8565b611093565b6040516102b09190613394565b3480156104d657600080fd5b506102a46104e53660046133ae565b60008281526006602090815260408083206001600160a01b038516845260030190915290205460ff1692915050565b34801561052057600080fd5b5061054e61052f366004612ff8565b6000908152600660205260409020805460018201546002909201549092565b604080519384526020840192909252908201526060016102b0565b34801561057557600080fd5b506040805180820190915260018152603160f81b6020820152610351565b34801561059f57600080fd5b506102d96105ae3660046133d3565b6111a2565b3480156105bf57600080fd5b506102d96105ce3660046133ff565b6111cb565b3480156105df57600080fd5b506102d96105ee366004612ff8565b611215565b3480156105ff57600080fd5b506102d961060e366004613102565b6112ac565b34801561061f57600080fd5b506102d961062e366004612e05565b611336565b34801561063f57600080fd5b5061064861139f565b6040516102b09190613482565b34801561066157600080fd5b506102d96106703660046134c6565b6114c5565b34801561068157600080fd5b506102d961069036600461351f565b611517565b3480156106a157600080fd5b506102d96106b0366004613136565b6117d2565b3480156106c157600080fd5b5060646102d9565b3480156106d557600080fd5b506102d96106e43660046135d3565b611845565b3480156106f557600080fd5b506102d961185c565b34801561070a57600080fd5b506103c961071936600461362b565b63bc197c8160e01b95945050505050565b34801561073657600080fd5b506102d9610745366004613136565b611886565b34801561075657600080fd5b506102d9610765366004612ff8565b6118f9565b61027d6107783660046136be565b611928565b34801561078957600080fd5b506102d96107983660046132a1565b611a1a565b3480156107a957600080fd5b506040805180820190915260208082527f737570706f72743d627261766f2671756f72756d3d666f722c6162737461696e90820152610351565b3480156107ef57600080fd5b506102d97f150214d74d59b7d1e90c73fc22ef3d991dd0a76b046543d4d80ab92d2a50328f81565b34801561082357600080fd5b506102d9610832366004613701565b611a54565b34801561084357600080fd5b506102d960075481565b34801561085957600080fd5b506103c961086836600461372d565b63f23a6e6160e01b95945050505050565b34801561088557600080fd5b506102d9600080516020613ca083398151915281565b3480156108a757600080fd5b506102d96108b6366004612ff8565b611a75565b3480156108c757600080fd5b506108ef7f000000000000000000000000000000000000000000000000000000000000000081565b6040516001600160a01b0390911681526020016102b0565b600061091282611c6e565b92915050565b6040516001600160a01b0380841660248301528216604482015260009061097d9063da48999760e01b906064015b60408051601f198184030181529190526020810180516001600160e01b03166001600160e01b031990931692909217909152611c93565b9050807f7f25e22a5b04e891892f9bbce70fc59b5f487b23dddb60eee1d13b359e47bea3600085856040516109b4939291906137a9565b60405180910390a292915050565b600080610a66610a5e7fb3b3f3b703cd84ce352197dcff232b1b5d3cfb2025ce47cf04742d0651f1af888c8c8c8c6040516109fe9291906137d9565b60405180910390208b80519060200120604051602001610a43959493929190948552602085019390935260ff9190911660408401526060830152608082015260a00190565b60405160208183030381529060405280519060200120611da8565b868686611df6565b9050610aac8a828b8b8b8080601f0160208091040260200160405190810160405280939291908181526020018383808284376000920191909152508d9250611e14915050565b9a9950505050505050505050565b333014610b095760405162461bcd60e51b8152602060048201526018602482015277476f7665726e6f723a206f6e6c79476f7665726e616e636560401b60448201526064015b60405180910390fd5b610b20565b80610b196002611f79565b03610b0e57505b610b2981611ff8565b50565b606060008054610b3b906137e9565b80601f0160208091040260200160405190810160405280929190818152602001828054610b67906137e9565b8015610bb45780601f10610b8957610100808354040283529160200191610bb4565b820191906000526020600020905b815481529060010190602001808311610b9757829003601f168201915b5050505050905090565b6000610bdc63ef1c48e360e01b83604051602401610946919061385e565b9050807fb5310d7955e7e03ceb732e7cec3ded7be4ea77c6aa2129f80054db7044b9fd0b600084604051610c11929190613871565b60405180910390a2919050565b604051632474521560e21b8152600080516020613ca083398151915260048201526001600160a01b0382811660248301526000917f0000000000000000000000000000000000000000000000000000000000000000909116906391d1485490604401602060405180830381865afa158015610c9d573d6000803e3d6000fd5b505050506040513d601f19601f82011682018060405250810190610cc19190613891565b15610cfd5760405162461bcd60e51b815260206004820152600c60248201526b149bdb194819dc985b9d195960a21b6044820152606401610b00565b604051600080516020613ca083398151915260248201526001600160a01b0383166044820152610d3890632f2ff15d60e01b90606401610946565b9050807fef852d3254eb0e41820d14ed67a1d5c2d163eb35f3d698328302857bf6c91242600084604051610c119291906138b3565b600080610d7c86868686611a1a565b90506000610d8982611093565b90506004816007811115610d9f57610d9f61337e565b1480610dbc57506005816007811115610dba57610dba61337e565b145b610e125760405162461bcd60e51b815260206004820152602160248201527f476f7665726e6f723a2070726f706f73616c206e6f74207375636365737366756044820152601b60fa1b6064820152608401610b00565b600082815260016020818152604092839020600201805460ff191690921790915590518381527f712ae1383f79ac853f8d882153778e0260ef8f03b504e2866e0593e04d2b291f910160405180910390a1610e708288888888612144565b610e7d82888888886121d1565b610e8a8288888888612144565b5095945050505050565b604051632474521560e21b8152600080516020613ca083398151915260048201526001600160a01b0382811660248301526000917f0000000000000000000000000000000000000000000000000000000000000000909116906391d1485490604401602060405180830381865afa158015610f13573d6000803e3d6000fd5b505050506040513d601f19601f82011682018060405250810190610f379190613891565b610f765760405162461bcd60e51b815260206004820152601060248201526f149bdb19481b9bdd0819dc985b9d195960821b6044820152606401610b00565b604051600080516020613ca083398151915260248201526001600160a01b0383166044820152610fb19063d547741f60e01b90606401610946565b9050807f52c1496ac24b59807418c3a418dafb66f269c07a55de390884ec8952660b2b0b600084604051610c119291906138b3565b60008181526001602090815260408083208151928301909152546001600160401b0316908190525b6001600160401b031692915050565b604080517f150214d74d59b7d1e90c73fc22ef3d991dd0a76b046543d4d80ab92d2a50328f602082015290810186905260ff85166060820152600090819061106b90610a5e90608001610a43565b9050611088878288604051806020016040528060008152506122c7565b979650505050505050565b6000818152600160205260408120600281015460ff16156110b75750600792915050565b6002810154610100900460ff16156110d25750600292915050565b60006110dd84610fe6565b90508060000361112f5760405162461bcd60e51b815260206004820152601d60248201527f476f7665726e6f723a20756e6b6e6f776e2070726f706f73616c2069640000006044820152606401610b00565b438110611140575060009392505050565b600061114b856118f9565b905043811061115f57506001949350505050565b611168856122f3565b8015611187575060008581526006602052604090208054600190910154115b1561119757506004949350505050565b506003949350505050565b6000803390506111c3848285604051806020016040528060008152506122c7565b949350505050565b60008033905061108887828888888080601f0160208091040260200160405190810160405280939291908181526020018383808284376000920191909152508a9250611e14915050565b60055460009080820361122c575050600454919050565b6000600561123b6001846138ef565b8154811061124b5761124b613902565b60009182526020918290206040805180820190915291015463ffffffff8116808352600160201b9091046001600160e01b031692820192909252915084106112a157602001516001600160e01b03169392505050565b6111c360058561232a565b600061130163ef1c48e360e01b836040516024016112ca919061385e565b60408051601f198184030181529190526020810180516001600160e01b03166001600160e01b0319909316929092179091526123dc565b9050807fb5310d7955e7e03ceb732e7cec3ded7be4ea77c6aa2129f80054db7044b9fd0b600184604051610c11929190613871565b6040516001600160a01b038084166024830152821660448201526000906113689063da48999760e01b906064016112ca565b9050807f7f25e22a5b04e891892f9bbce70fc59b5f487b23dddb60eee1d13b359e47bea3600185856040516109b4939291906137a9565b60408051600480825260a08201909252606091602082016080803683370190505090507fef852d3254eb0e41820d14ed67a1d5c2d163eb35f3d698328302857bf6c91242816000815181106113f6576113f6613902565b6020026020010181815250507f52c1496ac24b59807418c3a418dafb66f269c07a55de390884ec8952660b2b0b8160018151811061143657611436613902565b6020026020010181815250507fb5310d7955e7e03ceb732e7cec3ded7be4ea77c6aa2129f80054db7044b9fd0b8160028151811061147657611476613902565b6020026020010181815250507f7f25e22a5b04e891892f9bbce70fc59b5f487b23dddb60eee1d13b359e47bea3816003815181106114b6576114b6613902565b60200260200101818152505090565b60008033905061150d86828787878080601f0160208091040260200160405190810160405280939291908181526020018383808284376000920191909152506122c792505050565b9695505050505050565b600080611529336108326001436138ef565b10156115915760405162461bcd60e51b815260206004820152603160248201527f476f7665726e6f723a2070726f706f73657220766f7465732062656c6f7720706044820152701c9bdc1bdcd85b081d1a1c995cda1bdb19607a1b6064820152608401610b00565b60006115a68686868680519060200120611a1a565b905084518651146115c95760405162461bcd60e51b8152600401610b0090613918565b83518651146115ea5760405162461bcd60e51b8152600401610b0090613918565b600086511161163b5760405162461bcd60e51b815260206004820152601860248201527f476f7665726e6f723a20656d7074792070726f706f73616c00000000000000006044820152606401610b00565b600081815260016020908152604091829020825191820190925281546001600160401b031690819052156116bb5760405162461bcd60e51b815260206004820152602160248201527f476f7665726e6f723a2070726f706f73616c20616c72656164792065786973746044820152607360f81b6064820152608401610b00565b60006116cb81612513565b612513565b6116d443612513565b6116de9190613959565b905060006116ee6116c660075490565b6116f89083613959565b835467ffffffffffffffff19166001600160401b038416178455905060018301805467ffffffffffffffff19166001600160401b0383161790557f7d84a6263ae0d98d3329bd7b46bb4e8d6f98cd35a7adb45c274c8b7fd5ebd5e084338b8b8d516001600160401b0381111561177057611770612e95565b6040519080825280602002602001820160405280156117a357816020015b606081526020019060019003908161178e5790505b508c88888e6040516117bd99989796959493929190613a0e565b60405180910390a15091979650505050505050565b604051600080516020613ca083398151915260248201526001600160a01b03821660448201526000906118109063d547741f60e01b906064016112ca565b9050807f52c1496ac24b59807418c3a418dafb66f269c07a55de390884ec8952660b2b0b600184604051610c119291906138b3565b600061185284848461257b565b90505b9392505050565b6005546000901561187f576118716005611bc2565b6001600160e01b0316905090565b5060045490565b604051600080516020613ca083398151915260248201526001600160a01b03821660448201526000906118c490632f2ff15d60e01b906064016112ca565b9050807fef852d3254eb0e41820d14ed67a1d5c2d163eb35f3d698328302857bf6c91242600184604051610c119291906138b3565b60008181526001602081815260408084208151928301909152909101546001600160401b03169081905261100e565b3330146119725760405162461bcd60e51b8152602060048201526018602482015277476f7665726e6f723a206f6e6c79476f7665726e616e636560401b6044820152606401610b00565b611989565b806119826002611f79565b0361197757505b600080856001600160a01b03168585856040516119a79291906137d9565b60006040518083038185875af1925050503d80600081146119e4576040519150601f19603f3d011682016040523d82523d6000602084013e6119e9565b606091505b5091509150611a118282604051806060016040528060288152602001613c5160289139612611565b50505050505050565b600084848484604051602001611a339493929190613afd565b60408051601f19818403018152919052805160209091012095945050505050565b60006118558383611a7060408051602081019091526000815290565b61257b565b60006064611a8283611215565b604051632394e7a360e21b8152600481018590527f00000000000000000000000000000000000000000000000000000000000000006001600160a01b031690638e539e8c90602401602060405180830381865afa158015611ae7573d6000803e3d6000fd5b505050506040513d601f19601f82011682018060405250810190611b0b9190613b48565b611b159190613b61565b6109129190613b78565b60006001600160e01b03821115611b885760405162461bcd60e51b815260206004820152602760248201527f53616665436173743a2076616c756520646f65736e27742066697420696e20326044820152663234206269747360c81b6064820152608401610b00565b5090565b600080611baa84611b9c43611c09565b611ba586611b1f565b61262a565b6001600160e01b0391821693501690505b9250929050565b80546000908015611c0057611bea83611bdc6001846138ef565b600091825260209091200190565b54600160201b90046001600160e01b0316611855565b60009392505050565b600063ffffffff821115611b885760405162461bcd60e51b815260206004820152602660248201527f53616665436173743a2076616c756520646f65736e27742066697420696e203360448201526532206269747360d01b6064820152608401610b00565b60006001600160e01b031982166373e524a760e01b14806109125750610912826127cd565b604080516001808252818301909252600091829190816020015b6060815260200190600190039081611cad5790505090508281600081518110611cd857611cd8613902565b60200260200101819052506118556008805480602002602001604051908101604052809291908181526020018280548015611d3c57602002820191906000526020600020905b81546001600160a01b03168152600190910190602001808311611d1e575b50505050506009805480602002602001604051908101604052809291908181526020018280548015611d8d57602002820191906000526020600020905b815481526020019060010190808311611d79575b50505050508360405180602001604052806000815250611517565b6000610912611db5612838565b8360405161190160f01b6020820152602281018390526042810182905260009060620160405160208183030381529060405280519060200120905092915050565b6000806000611e078787878761295f565b91509150610e8a81612a23565b6000858152600160208190526040822090611e2e88611093565b6007811115611e3f57611e3f61337e565b14611e985760405162461bcd60e51b815260206004820152602360248201527f476f7665726e6f723a20766f7465206e6f742063757272656e746c792061637460448201526269766560e81b6064820152608401610b00565b604080516020810190915281546001600160401b031690819052600090611ec19088908661257b565b9050611ed08888888488612b6d565b8351600003611f2557866001600160a01b03167fb8e138887d0aa13bab447e82de9d5c1777041ecd21ca36ba824ff1e6c07ddda489888489604051611f189493929190613b9a565b60405180910390a2611088565b866001600160a01b03167fe2babfbac5889a709b63bb7f598b324e08bc5a4fb9ec647fb3cbc9ec07eb87128988848989604051611f66959493929190613bc2565b60405180910390a2979650505050505050565b6000611f948254600f81810b600160801b909204900b131590565b15611fb257604051631ed9509560e11b815260040160405180910390fd5b508054600f0b6000818152600180840160205260408220805492905583546fffffffffffffffffffffffffffffffff191692016001600160801b03169190911790915590565b606481111561207b5760405162461bcd60e51b815260206004820152604360248201527f476f7665726e6f72566f74657351756f72756d4672616374696f6e3a2071756f60448201527f72756d4e756d657261746f72206f7665722071756f72756d44656e6f6d696e616064820152623a37b960e91b608482015260a401610b00565b600061208561185c565b905080158015906120965750600554155b156120fa576040805180820190915260008152600590602081016120b984611b1f565b6001600160e01b039081169091528254600181018455600093845260209384902083519490930151909116600160201b0263ffffffff909316929092179101555b612105600583611b8c565b505060408051828152602081018490527f0553476bf02ef2726e8ce5ced78d63e26e602e4a2257b1f559418e24b4633997910160405180910390a15050565b6121ca565b84518110156121c857306001600160a01b031685828151811061216e5761216e613902565b60200260200101516001600160a01b0316036121b8576121b883828151811061219957612199613902565b6020026020010151805190602001206002612ce790919063ffffffff16565b6121c181613c08565b9050612149565b505b5050505050565b6000604051806060016040528060278152602001613c7960279139905060005b8551811015611a115760008087838151811061220f5761220f613902565b60200260200101516001600160a01b031687848151811061223257612232613902565b602002602001015187858151811061224c5761224c613902565b60200260200101516040516122619190613c21565b60006040518083038185875af1925050503d806000811461229e576040519150601f19603f3d011682016040523d82523d6000602084013e6122a3565b606091505b50915091506122b3828286612611565b505050806122c090613c08565b90506121f1565b60006122ea858585856122e560408051602081019091526000815290565b611e14565b95945050505050565b6000818152600660205260408120600281015460018201546123159190613c3d565b6123216108b685610fe6565b11159392505050565b600043821061237b5760405162461bcd60e51b815260206004820181905260248201527f436865636b706f696e74733a20626c6f636b206e6f7420796574206d696e65646044820152606401610b00565b600061238683611c09565b8454909150600061239986848385612d23565b905080156123c6576123b086611bdc6001846138ef565b54600160201b90046001600160e01b03166123c9565b60005b6001600160e01b03169695505050505050565b604080516001808252818301909252600091829190816020015b60608152602001906001900390816123f6579050509050828160008151811061242157612421613902565b6020026020010181905250611855600880548060200260200160405190810160405280929190818152602001828054801561248557602002820191906000526020600020905b81546001600160a01b03168152600190910190602001808311612467575b505050505060098054806020026020016040519081016040528092919081815260200182805480156124d657602002820191906000526020600020905b8154815260200190600101908083116124c2575b5050604080516020810190915260009052508591507fc5d2460186f7233c927e7db2dcc703c0e500b653ca82273b7bfad8045d85a4709050610d6d565b60006001600160401b03821115611b885760405162461bcd60e51b815260206004820152602660248201527f53616665436173743a2076616c756520646f65736e27742066697420696e203660448201526534206269747360d01b6064820152608401610b00565b604051630748d63560e31b81526001600160a01b038481166004830152602482018490526000917f000000000000000000000000000000000000000000000000000000000000000090911690633a46b1a890604401602060405180830381865afa1580156125ed573d6000803e3d6000fd5b505050506040513d601f19601f820116820180604052508101906118529190613b48565b60608315612620575081611855565b6118558383612d81565b82546000908190801561277057600061264887611bdc6001856138ef565b60408051808201909152905463ffffffff808216808452600160201b9092046001600160e01b0316602084015291925090871610156126c95760405162461bcd60e51b815260206004820152601760248201527f436865636b706f696e743a20696e76616c6964206b65790000000000000000006044820152606401610b00565b805163ffffffff80881691160361271157846126ea88611bdc6001866138ef565b80546001600160e01b0392909216600160201b0263ffffffff909216919091179055612760565b6040805180820190915263ffffffff80881682526001600160e01b0380881660208085019182528b54600181018d5560008d81529190912094519151909216600160201b029216919091179101555b6020015192508391506127c59050565b50506040805180820190915263ffffffff80851682526001600160e01b0380851660208085019182528854600181018a5560008a815291822095519251909316600160201b0291909316179201919091559050815b935093915050565b60006001600160e01b0319821663bf26d89760e01b14806127fe57506001600160e01b031982166379dd796f60e01b145b8061281957506001600160e01b03198216630271189760e51b145b8061091257506301ffc9a760e01b6001600160e01b0319831614610912565b6000306001600160a01b037f00000000000000000000000000000000000000000000000000000000000000001614801561289157507f000000000000000000000000000000000000000000000000000000000000000046145b156128bb57507f000000000000000000000000000000000000000000000000000000000000000090565b50604080517f00000000000000000000000000000000000000000000000000000000000000006020808301919091527f0000000000000000000000000000000000000000000000000000000000000000828401527f000000000000000000000000000000000000000000000000000000000000000060608301524660808301523060a0808401919091528351808403909101815260c0909201909252805191012090565b6000807f7fffffffffffffffffffffffffffffff5d576e7357a4501ddfe92f46681b20a08311156129965750600090506003612a1a565b6040805160008082526020820180845289905260ff881692820192909252606081018690526080810185905260019060a0016020604051602081039080840390855afa1580156129ea573d6000803e3d6000fd5b5050604051601f1901519150506001600160a01b038116612a1357600060019250925050612a1a565b9150600090505b94509492505050565b6000816004811115612a3757612a3761337e565b03612a3f5750565b6001816004811115612a5357612a5361337e565b03612aa05760405162461bcd60e51b815260206004820152601860248201527f45434453413a20696e76616c6964207369676e617475726500000000000000006044820152606401610b00565b6002816004811115612ab457612ab461337e565b03612b015760405162461bcd60e51b815260206004820152601f60248201527f45434453413a20696e76616c6964207369676e6174757265206c656e677468006044820152606401610b00565b6003816004811115612b1557612b1561337e565b03610b295760405162461bcd60e51b815260206004820152602260248201527f45434453413a20696e76616c6964207369676e6174757265202773272076616c604482015261756560f01b6064820152608401610b00565b60008581526006602090815260408083206001600160a01b0388168452600381019092529091205460ff1615612bf55760405162461bcd60e51b815260206004820152602760248201527f476f7665726e6f72566f74696e6753696d706c653a20766f746520616c726561604482015266191e4818d85cdd60ca1b6064820152608401610b00565b6001600160a01b03851660009081526003820160205260409020805460ff1916600117905560ff8416612c415782816000016000828254612c369190613c3d565b909155506121c89050565b60001960ff851601612c615782816001016000828254612c369190613c3d565b60011960ff851601612c815782816002016000828254612c369190613c3d565b60405162461bcd60e51b815260206004820152603560248201527f476f7665726e6f72566f74696e6753696d706c653a20696e76616c69642076616044820152746c756520666f7220656e756d20566f74655479706560581b6064820152608401610b00565b8154600160801b90819004600f0b6000818152600180860160205260409091209390935583546001600160801b03908116939091011602179055565b60005b81831015612d79576000612d3a8484612dab565b60008781526020902090915063ffffffff86169082015463ffffffff161115612d6557809250612d73565b612d70816001613c3d565b93505b50612d26565b509392505050565b815115612d915781518083602001fd5b8060405162461bcd60e51b8152600401610b009190613061565b6000612dba6002848418613b78565b61185590848416613c3d565b600060208284031215612dd857600080fd5b81356001600160e01b03198116811461185557600080fd5b6001600160a01b0381168114610b2957600080fd5b60008060408385031215612e1857600080fd5b8235612e2381612df0565b91506020830135612e3381612df0565b809150509250929050565b803560ff81168114612e4f57600080fd5b919050565b60008083601f840112612e6657600080fd5b5081356001600160401b03811115612e7d57600080fd5b602083019150836020828501011115611bbb57600080fd5b634e487b7160e01b600052604160045260246000fd5b604051601f8201601f191681016001600160401b0381118282101715612ed357612ed3612e95565b604052919050565b60006001600160401b03831115612ef457612ef4612e95565b612f07601f8401601f1916602001612eab565b9050828152838383011115612f1b57600080fd5b828260208301376000602084830101529392505050565b600082601f830112612f4357600080fd5b61185583833560208501612edb565b60008060008060008060008060e0898b031215612f6e57600080fd5b88359750612f7e60208a01612e3e565b965060408901356001600160401b0380821115612f9a57600080fd5b612fa68c838d01612e54565b909850965060608b0135915080821115612fbf57600080fd5b50612fcc8b828c01612f32565b945050612fdb60808a01612e3e565b925060a0890135915060c089013590509295985092959890939650565b60006020828403121561300a57600080fd5b5035919050565b60005b8381101561302c578181015183820152602001613014565b50506000910152565b6000815180845261304d816020860160208601613011565b601f01601f19169290920160200192915050565b6020815260006118556020830184613035565b60006001600160401b0382111561308d5761308d612e95565b5060051b60200190565b600082601f8301126130a857600080fd5b813560206130bd6130b883613074565b612eab565b82815260059290921b840181019181810190868411156130dc57600080fd5b8286015b848110156130f757803583529183019183016130e0565b509695505050505050565b60006020828403121561311457600080fd5b81356001600160401b0381111561312a57600080fd5b6111c384828501613097565b60006020828403121561314857600080fd5b813561185581612df0565b6000806000806080858703121561316957600080fd5b843561317481612df0565b9350602085013561318481612df0565b92506040850135915060608501356001600160401b038111156131a657600080fd5b6131b287828801612f32565b91505092959194509250565b600082601f8301126131cf57600080fd5b813560206131df6130b883613074565b82815260059290921b840181019181810190868411156131fe57600080fd5b8286015b848110156130f757803561321581612df0565b8352918301918301613202565b600082601f83011261323357600080fd5b813560206132436130b883613074565b82815260059290921b8401810191818101908684111561326257600080fd5b8286015b848110156130f75780356001600160401b038111156132855760008081fd5b6132938986838b0101612f32565b845250918301918301613266565b600080600080608085870312156132b757600080fd5b84356001600160401b03808211156132ce57600080fd5b6132da888389016131be565b955060208701359150808211156132f057600080fd5b6132fc88838901613097565b9450604087013591508082111561331257600080fd5b5061331f87828801613222565b949793965093946060013593505050565b600080600080600060a0868803121561334857600080fd5b8535945061335860208701612e3e565b935061336660408701612e3e565b94979396509394606081013594506080013592915050565b634e487b7160e01b600052602160045260246000fd5b60208101600883106133a8576133a861337e565b91905290565b600080604083850312156133c157600080fd5b823591506020830135612e3381612df0565b600080604083850312156133e657600080fd5b823591506133f660208401612e3e565b90509250929050565b60008060008060006080868803121561341757600080fd5b8535945061342760208701612e3e565b935060408601356001600160401b038082111561344357600080fd5b61344f89838a01612e54565b9095509350606088013591508082111561346857600080fd5b5061347588828901612f32565b9150509295509295909350565b6020808252825182820181905260009190848201906040850190845b818110156134ba5783518352928401929184019160010161349e565b50909695505050505050565b600080600080606085870312156134dc57600080fd5b843593506134ec60208601612e3e565b925060408501356001600160401b0381111561350757600080fd5b61351387828801612e54565b95989497509550505050565b6000806000806080858703121561353557600080fd5b84356001600160401b038082111561354c57600080fd5b613558888389016131be565b9550602087013591508082111561356e57600080fd5b61357a88838901613097565b9450604087013591508082111561359057600080fd5b61359c88838901613222565b935060608701359150808211156135b257600080fd5b508501601f810187136135c457600080fd5b6131b287823560208401612edb565b6000806000606084860312156135e857600080fd5b83356135f381612df0565b92506020840135915060408401356001600160401b0381111561361557600080fd5b61362186828701612f32565b9150509250925092565b600080600080600060a0868803121561364357600080fd5b853561364e81612df0565b9450602086013561365e81612df0565b935060408601356001600160401b038082111561367a57600080fd5b61368689838a01613097565b9450606088013591508082111561369c57600080fd5b6136a889838a01613097565b9350608088013591508082111561346857600080fd5b600080600080606085870312156136d457600080fd5b84356136df81612df0565b93506020850135925060408501356001600160401b0381111561350757600080fd5b6000806040838503121561371457600080fd5b823561371f81612df0565b946020939093013593505050565b600080600080600060a0868803121561374557600080fd5b853561375081612df0565b9450602086013561376081612df0565b9350604086013592506060860135915060808601356001600160401b0381111561378957600080fd5b61347588828901612f32565b600281106137a5576137a561337e565b9052565b606081016137b78286613795565b6001600160a01b03938416602083015291909216604090920191909152919050565b8183823760009101908152919050565b600181811c908216806137fd57607f821691505b60208210810361381d57634e487b7160e01b600052602260045260246000fd5b50919050565b600081518084526020808501945080840160005b8381101561385357815187529582019590820190600101613837565b509495945050505050565b6020815260006118556020830184613823565b61387b8184613795565b6040602082015260006118526040830184613823565b6000602082840312156138a357600080fd5b8151801515811461185557600080fd5b604081016138c18285613795565b6001600160a01b039290921660209190910152919050565b634e487b7160e01b600052601160045260246000fd5b81810381811115610912576109126138d9565b634e487b7160e01b600052603260045260246000fd5b60208082526021908201527f476f7665726e6f723a20696e76616c69642070726f706f73616c206c656e67746040820152600d60fb1b606082015260800190565b6001600160401b03818116838216019080821115613979576139796138d9565b5092915050565b600081518084526020808501945080840160005b838110156138535781516001600160a01b031687529582019590820190600101613994565b600081518084526020808501808196508360051b8101915082860160005b85811015613a015782840389526139ef848351613035565b988501989350908401906001016139d7565b5091979650505050505050565b60006101208b8352602060018060a01b038c1681850152816040850152613a378285018c613980565b91508382036060850152613a4b828b613823565b915083820360808501528189518084528284019150828160051b850101838c0160005b83811015613a9c57601f19878403018552613a8a838351613035565b94860194925090850190600101613a6e565b505086810360a0880152613ab0818c6139b9565b945050505050613acb60c08401876001600160401b03169052565b6001600160401b03851660e0840152828103610100840152613aed8185613035565b9c9b505050505050505050505050565b608081526000613b106080830187613980565b8281036020840152613b228187613823565b90508281036040840152613b3681866139b9565b91505082606083015295945050505050565b600060208284031215613b5a57600080fd5b5051919050565b8082028115828204841417610912576109126138d9565b600082613b9557634e487b7160e01b600052601260045260246000fd5b500490565b84815260ff8416602082015282604082015260806060820152600061150d6080830184613035565b85815260ff8516602082015283604082015260a060608201526000613bea60a0830185613035565b8281036080840152613bfc8185613035565b98975050505050505050565b600060018201613c1a57613c1a6138d9565b5060010190565b60008251613c33818460208701613011565b9190910192915050565b80820180821115610912576109126138d956fe476f7665726e6f723a2072656c617920726576657274656420776974686f7574206d657373616765476f7665726e6f723a2063616c6c20726576657274656420776974686f7574206d657373616765f00a4aad659dcbba275531a9827c18764184cf52c4475f08eb707c13f0854c0da164736f6c6343000811000a",
  "devdoc": {
    "errors": {
      "Empty()": [
        {
          "details": "An operation (e.g. {front}) couldn't be completed due to the queue being empty."
        }
      ]
    },
    "kind": "dev",
    "methods": {
      "COUNTING_MODE()": {
        "details": "See {IGovernor-COUNTING_MODE}."
      },
      "castVote(uint256,uint8)": {
        "details": "See {IGovernor-castVote}."
      },
      "castVoteBySig(uint256,uint8,uint8,bytes32,bytes32)": {
        "details": "See {IGovernor-castVoteBySig}."
      },
      "castVoteWithReason(uint256,uint8,string)": {
        "details": "See {IGovernor-castVoteWithReason}."
      },
      "castVoteWithReasonAndParams(uint256,uint8,string,bytes)": {
        "details": "See {IGovernor-castVoteWithReasonAndParams}."
      },
      "castVoteWithReasonAndParamsBySig(uint256,uint8,string,bytes,uint8,bytes32,bytes32)": {
        "details": "See {IGovernor-castVoteWithReasonAndParamsBySig}."
      },
      "execute(address[],uint256[],bytes[],bytes32)": {
        "details": "See {IGovernor-execute}."
      },
      "getVotes(address,uint256)": {
        "details": "See {IGovernor-getVotes}."
      },
      "getVotesWithParams(address,uint256,bytes)": {
        "details": "See {IGovernor-getVotesWithParams}."
      },
      "hasVoted(uint256,address)": {
        "details": "See {IGovernor-hasVoted}."
      },
      "hashProposal(address[],uint256[],bytes[],bytes32)": {
        "details": "See {IGovernor-hashProposal}. The proposal id is produced by hashing the ABI encoded `targets` array, the `values` array, the `calldatas` array and the descriptionHash (bytes32 which itself is the keccak256 hash of the description string). This proposal id can be produced from the proposal data which is part of the {ProposalCreated} event. It can even be computed in advance, before the proposal is submitted. Note that the chainId and the governor address are not part of the proposal id computation. Consequently, the same proposal (with same operation and same description) will have the same id if submitted on multiple governors across multiple networks. This also means that in order to execute the same operation twice (on the same governor) the proposer will have to change the description in order to avoid proposal id conflicts."
      },
      "name()": {
        "details": "See {IGovernor-name}."
      },
      "onERC1155BatchReceived(address,address,uint256[],uint256[],bytes)": {
        "details": "See {IERC1155Receiver-onERC1155BatchReceived}."
      },
      "onERC1155Received(address,address,uint256,uint256,bytes)": {
        "details": "See {IERC1155Receiver-onERC1155Received}."
      },
      "onERC721Received(address,address,uint256,bytes)": {
        "details": "See {IERC721Receiver-onERC721Received}."
      },
      "proposalDeadline(uint256)": {
        "details": "See {IGovernor-proposalDeadline}."
      },
      "proposalSnapshot(uint256)": {
        "details": "See {IGovernor-proposalSnapshot}."
      },
      "proposalThreshold()": {
        "details": "Part of the Governor Bravo's interface: _\"The number of votes required in order for a voter to become a proposer\"_."
      },
      "proposalTopics()": {
        "details": "Returns list of proposal topics to listen for"
      },
      "proposalVotes(uint256)": {
        "details": "Accessor to the internal vote counts."
      },
      "propose(address[],uint256[],bytes[],string)": {
        "details": "See {IGovernor-propose}."
      },
      "quorum(uint256)": {
        "details": "Returns the quorum for a block number, in terms of number of votes: `supply * numerator / denominator`."
      },
      "quorumDenominator()": {
        "details": "Returns the quorum denominator. Defaults to 100, but may be overridden."
      },
      "quorumNumerator()": {
        "details": "Returns the current quorum numerator. See {quorumDenominator}."
      },
      "quorumNumerator(uint256)": {
        "details": "Returns the quorum numerator at a specific block number. See {quorumDenominator}."
      },
      "relay(address,uint256,bytes)": {
        "details": "Relays a transaction or function call to an arbitrary target. In cases where the governance executor is some contract other than the governor itself, like when using a timelock, this function can be invoked in a governance proposal to recover tokens or Ether that was sent to the governor contract by mistake. Note that if the executor is simply the governor itself, use of `relay` is redundant."
      },
      "state(uint256)": {
        "details": "See {IGovernor-state}."
      },
      "updateQuorumNumerator(uint256)": {
        "details": "Changes the quorum numerator. Emits a {QuorumNumeratorUpdated} event. Requirements: - Must be called through a governance proposal. - New numerator must be smaller or equal to the denominator."
      },
      "version()": {
        "details": "See {IGovernor-version}."
      },
      "votingDelay()": {
        "details": "Delay, in number of block, between the proposal is created and the vote starts. This can be increassed to leave time for users to buy voting power, or delegate it, before the voting of a proposal starts."
      },
      "votingPeriod()": {
        "details": "Delay, in number of blocks, between the vote start and vote ends. NOTE: The {votingDelay} can delay the start of the vote. This must be considered when setting the voting duration compared to the voting delay."
      }
    },
    "version": 1
  },
  "userdoc": {
    "kind": "user",
    "methods": {
      "votingDelay()": {
        "notice": "module:user-config"
      },
      "votingPeriod()": {
        "notice": "module:user-config"
      }
    },
    "version": 1
  },
  "storageLayout": {
    "storage": [
      {
        "astId": 598,
        "contract": "contracts/InzenGovernor.sol:InzenGovernor",
        "label": "_name",
        "offset": 0,
        "slot": "0",
        "type": "t_string_storage"
      },
      {
        "astId": 603,
        "contract": "contracts/InzenGovernor.sol:InzenGovernor",
        "label": "_proposals",
        "offset": 0,
        "slot": "1",
        "type": "t_mapping(t_uint256,t_struct(ProposalCore)596_storage)"
      },
      {
        "astId": 606,
        "contract": "contracts/InzenGovernor.sol:InzenGovernor",
        "label": "_governanceCall",
        "offset": 0,
        "slot": "2",
        "type": "t_struct(Bytes32Deque)9840_storage"
      },
      {
        "astId": 2425,
        "contract": "contracts/InzenGovernor.sol:InzenGovernor",
        "label": "_quorumNumerator",
        "offset": 0,
        "slot": "4",
        "type": "t_uint256"
      },
      {
        "astId": 2428,
        "contract": "contracts/InzenGovernor.sol:InzenGovernor",
        "label": "_quorumNumeratorHistory",
        "offset": 0,
        "slot": "5",
        "type": "t_struct(History)5021_storage"
      },
      {
        "astId": 2169,
        "contract": "contracts/InzenGovernor.sol:InzenGovernor",
        "label": "_proposalVotes",
        "offset": 0,
        "slot": "6",
        "type": "t_mapping(t_uint256,t_struct(ProposalVote)2164_storage)"
      },
      {
        "astId": 11884,
        "contract": "contracts/InzenGovernor.sol:InzenGovernor",
        "label": "period",
        "offset": 0,
        "slot": "7",
        "type": "t_uint256"
      },
      {
        "astId": 11887,
        "contract": "contracts/InzenGovernor.sol:InzenGovernor",
        "label": "_defaultTargets",
        "offset": 0,
        "slot": "8",
        "type": "t_array(t_address)dyn_storage"
      },
      {
        "astId": 11890,
        "contract": "contracts/InzenGovernor.sol:InzenGovernor",
        "label": "_defaultValues",
        "offset": 0,
        "slot": "9",
        "type": "t_array(t_uint256)dyn_storage"
      }
    ],
    "types": {
      "t_address": {
        "encoding": "inplace",
        "label": "address",
        "numberOfBytes": "20"
      },
      "t_array(t_address)dyn_storage": {
        "base": "t_address",
        "encoding": "dynamic_array",
        "label": "address[]",
        "numberOfBytes": "32"
      },
      "t_array(t_struct(Checkpoint)5026_storage)dyn_storage": {
        "base": "t_struct(Checkpoint)5026_storage",
        "encoding": "dynamic_array",
        "label": "struct Checkpoints.Checkpoint[]",
        "numberOfBytes": "32"
      },
      "t_array(t_uint256)dyn_storage": {
        "base": "t_uint256",
        "encoding": "dynamic_array",
        "label": "uint256[]",
        "numberOfBytes": "32"
      },
      "t_bool": {
        "encoding": "inplace",
        "label": "bool",
        "numberOfBytes": "1"
      },
      "t_bytes32": {
        "encoding": "inplace",
        "label": "bytes32",
        "numberOfBytes": "32"
      },
      "t_int128": {
        "encoding": "inplace",
        "label": "int128",
        "numberOfBytes": "16"
      },
      "t_mapping(t_address,t_bool)": {
        "encoding": "mapping",
        "key": "t_address",
        "label": "mapping(address => bool)",
        "numberOfBytes": "32",
        "value": "t_bool"
      },
      "t_mapping(t_int128,t_bytes32)": {
        "encoding": "mapping",
        "key": "t_int128",
        "label": "mapping(int128 => bytes32)",
        "numberOfBytes": "32",
        "value": "t_bytes32"
      },
      "t_mapping(t_uint256,t_struct(ProposalCore)596_storage)": {
        "encoding": "mapping",
        "key": "t_uint256",
        "label": "mapping(uint256 => struct Governor.ProposalCore)",
        "numberOfBytes": "32",
        "value": "t_struct(ProposalCore)596_storage"
      },
      "t_mapping(t_uint256,t_struct(ProposalVote)2164_storage)": {
        "encoding": "mapping",
        "key": "t_uint256",
        "label": "mapping(uint256 => struct GovernorCountingSimple.ProposalVote)",
        "numberOfBytes": "32",
        "value": "t_struct(ProposalVote)2164_storage"
      },
      "t_string_storage": {
        "encoding": "bytes",
        "label": "string",
        "numberOfBytes": "32"
      },
      "t_struct(BlockNumber)6761_storage": {
        "encoding": "inplace",
        "label": "struct Timers.BlockNumber",
        "members": [
          {
            "astId": 6760,
            "contract": "contracts/InzenGovernor.sol:InzenGovernor",
            "label": "_deadline",
            "offset": 0,
            "slot": "0",
            "type": "t_uint64"
          }
        ],
        "numberOfBytes": "32"
      },
      "t_struct(Bytes32Deque)9840_storage": {
        "encoding": "inplace",
        "label": "struct DoubleEndedQueue.Bytes32Deque",
        "members": [
          {
            "astId": 9833,
            "contract": "contracts/InzenGovernor.sol:InzenGovernor",
            "label": "_begin",
            "offset": 0,
            "slot": "0",
            "type": "t_int128"
          },
          {
            "astId": 9835,
            "contract": "contracts/InzenGovernor.sol:InzenGovernor",
            "label": "_end",
            "offset": 16,
            "slot": "0",
            "type": "t_int128"
          },
          {
            "astId": 9839,
            "contract": "contracts/InzenGovernor.sol:InzenGovernor",
            "label": "_data",
            "offset": 0,
            "slot": "1",
            "type": "t_mapping(t_int128,t_bytes32)"
          }
        ],
        "numberOfBytes": "64"
      },
      "t_struct(Checkpoint)5026_storage": {
        "encoding": "inplace",
        "label": "struct Checkpoints.Checkpoint",
        "members": [
          {
            "astId": 5023,
            "contract": "contracts/InzenGovernor.sol:InzenGovernor",
            "label": "_blockNumber",
            "offset": 0,
            "slot": "0",
            "type": "t_uint32"
          },
          {
            "astId": 5025,
            "contract": "contracts/InzenGovernor.sol:InzenGovernor",
            "label": "_value",
            "offset": 4,
            "slot": "0",
            "type": "t_uint224"
          }
        ],
        "numberOfBytes": "32"
      },
      "t_struct(History)5021_storage": {
        "encoding": "inplace",
        "label": "struct Checkpoints.History",
        "members": [
          {
            "astId": 5020,
            "contract": "contracts/InzenGovernor.sol:InzenGovernor",
            "label": "_checkpoints",
            "offset": 0,
            "slot": "0",
            "type": "t_array(t_struct(Checkpoint)5026_storage)dyn_storage"
          }
        ],
        "numberOfBytes": "32"
      },
      "t_struct(ProposalCore)596_storage": {
        "encoding": "inplace",
        "label": "struct Governor.ProposalCore",
        "members": [
          {
            "astId": 588,
            "contract": "contracts/InzenGovernor.sol:InzenGovernor",
            "label": "voteStart",
            "offset": 0,
            "slot": "0",
            "type": "t_struct(BlockNumber)6761_storage"
          },
          {
            "astId": 591,
            "contract": "contracts/InzenGovernor.sol:InzenGovernor",
            "label": "voteEnd",
            "offset": 0,
            "slot": "1",
            "type": "t_struct(BlockNumber)6761_storage"
          },
          {
            "astId": 593,
            "contract": "contracts/InzenGovernor.sol:InzenGovernor",
            "label": "executed",
            "offset": 0,
            "slot": "2",
            "type": "t_bool"
          },
          {
            "astId": 595,
            "contract": "contracts/InzenGovernor.sol:InzenGovernor",
            "label": "canceled",
            "offset": 1,
            "slot": "2",
            "type": "t_bool"
          }
        ],
        "numberOfBytes": "96"
      },
      "t_struct(ProposalVote)2164_storage": {
        "encoding": "inplace",
        "label": "struct GovernorCountingSimple.ProposalVote",
        "members": [
          {
            "astId": 2155,
            "contract": "contracts/InzenGovernor.sol:InzenGovernor",
            "label": "againstVotes",
            "offset": 0,
            "slot": "0",
            "type": "t_uint256"
          },
          {
            "astId": 2157,
            "contract": "contracts/InzenGovernor.sol:InzenGovernor",
            "label": "forVotes",
            "offset": 0,
            "slot": "1",
            "type": "t_uint256"
          },
          {
            "astId": 2159,
            "contract": "contracts/InzenGovernor.sol:InzenGovernor",
            "label": "abstainVotes",
            "offset": 0,
            "slot": "2",
            "type": "t_uint256"
          },
          {
            "astId": 2163,
            "contract": "contracts/InzenGovernor.sol:InzenGovernor",
            "label": "hasVoted",
            "offset": 0,
            "slot": "3",
            "type": "t_mapping(t_address,t_bool)"
          }
        ],
        "numberOfBytes": "128"
      },
      "t_uint224": {
        "encoding": "inplace",
        "label": "uint224",
        "numberOfBytes": "28"
      },
      "t_uint256": {
        "encoding": "inplace",
        "label": "uint256",
        "numberOfBytes": "32"
      },
      "t_uint32": {
        "encoding": "inplace",
        "label": "uint32",
        "numberOfBytes": "4"
      },
      "t_uint64": {
        "encoding": "inplace",
        "label": "uint64",
        "numberOfBytes": "8"
      }
    }
  }
}