{
  "address": "0xa7697fc2655ffBe5b0B0e2102C11845bF9A6B49a",
  "abi": [
    {
      "inputs": [
        {
          "internalType": "string",
          "name": "_name",
          "type": "string"
        },
        {
          "internalType": "contract ERC20",
          "name": "_baseToken",
          "type": "address"
        },
        {
          "internalType": "contract AggregationRouterV5Interface",
          "name": "_router",
          "type": "address"
        },
        {
          "components": [
            {
              "internalType": "contract ERC20",
              "name": "token",
              "type": "address"
            },
            {
              "internalType": "contract AggregatorV3Interface",
              "name": "priceFeed",
              "type": "address"
            },
            {
              "internalType": "uint256",
              "name": "amount",
              "type": "uint256"
            },
            {
              "internalType": "uint256",
              "name": "weight",
              "type": "uint256"
            }
          ],
          "internalType": "struct InzenFunds.Assets[]",
          "name": "_portfolio",
          "type": "tuple[]"
        }
      ],
      "stateMutability": "nonpayable",
      "type": "constructor"
    },
    {
      "anonymous": false,
      "inputs": [
        {
          "indexed": true,
          "internalType": "address",
          "name": "owner",
          "type": "address"
        },
        {
          "indexed": true,
          "internalType": "address",
          "name": "spender",
          "type": "address"
        },
        {
          "indexed": false,
          "internalType": "uint256",
          "name": "value",
          "type": "uint256"
        }
      ],
      "name": "Approval",
      "type": "event"
    },
    {
      "anonymous": false,
      "inputs": [
        {
          "indexed": true,
          "internalType": "address",
          "name": "user",
          "type": "address"
        },
        {
          "indexed": false,
          "internalType": "uint256",
          "name": "baseAmount",
          "type": "uint256"
        },
        {
          "indexed": false,
          "internalType": "uint256",
          "name": "mintAmount",
          "type": "uint256"
        }
      ],
      "name": "Deposit",
      "type": "event"
    },
    {
      "anonymous": false,
      "inputs": [
        {
          "indexed": true,
          "internalType": "address",
          "name": "previousOwner",
          "type": "address"
        },
        {
          "indexed": true,
          "internalType": "address",
          "name": "newOwner",
          "type": "address"
        }
      ],
      "name": "OwnershipTransferred",
      "type": "event"
    },
    {
      "anonymous": false,
      "inputs": [
        {
          "indexed": true,
          "internalType": "contract ERC20",
          "name": "fromToken",
          "type": "address"
        },
        {
          "indexed": true,
          "internalType": "contract ERC20",
          "name": "toToken",
          "type": "address"
        },
        {
          "indexed": false,
          "internalType": "uint256",
          "name": "fromAmount",
          "type": "uint256"
        },
        {
          "indexed": false,
          "internalType": "uint256",
          "name": "toAmount",
          "type": "uint256"
        }
      ],
      "name": "Rebalance",
      "type": "event"
    },
    {
      "anonymous": false,
      "inputs": [
        {
          "indexed": true,
          "internalType": "address",
          "name": "from",
          "type": "address"
        },
        {
          "indexed": true,
          "internalType": "address",
          "name": "to",
          "type": "address"
        },
        {
          "indexed": false,
          "internalType": "uint256",
          "name": "value",
          "type": "uint256"
        }
      ],
      "name": "Transfer",
      "type": "event"
    },
    {
      "anonymous": false,
      "inputs": [
        {
          "indexed": true,
          "internalType": "address",
          "name": "user",
          "type": "address"
        },
        {
          "indexed": false,
          "internalType": "uint256",
          "name": "burnAmount",
          "type": "uint256"
        }
      ],
      "name": "Withdraw",
      "type": "event"
    },
    {
      "inputs": [],
      "name": "DOMAIN_SEPARATOR",
      "outputs": [
        {
          "internalType": "bytes32",
          "name": "",
          "type": "bytes32"
        }
      ],
      "stateMutability": "view",
      "type": "function"
    },
    {
      "inputs": [
        {
          "internalType": "address",
          "name": "owner",
          "type": "address"
        },
        {
          "internalType": "address",
          "name": "spender",
          "type": "address"
        }
      ],
      "name": "allowance",
      "outputs": [
        {
          "internalType": "uint256",
          "name": "",
          "type": "uint256"
        }
      ],
      "stateMutability": "view",
      "type": "function"
    },
    {
      "inputs": [
        {
          "internalType": "address",
          "name": "spender",
          "type": "address"
        },
        {
          "internalType": "uint256",
          "name": "amount",
          "type": "uint256"
        }
      ],
      "name": "approve",
      "outputs": [
        {
          "internalType": "bool",
          "name": "",
          "type": "bool"
        }
      ],
      "stateMutability": "nonpayable",
      "type": "function"
    },
    {
      "inputs": [
        {
          "internalType": "address",
          "name": "account",
          "type": "address"
        }
      ],
      "name": "balanceOf",
      "outputs": [
        {
          "internalType": "uint256",
          "name": "",
          "type": "uint256"
        }
      ],
      "stateMutability": "view",
      "type": "function"
    },
    {
      "inputs": [],
      "name": "baseToken",
      "outputs": [
        {
          "internalType": "contract ERC20",
          "name": "",
          "type": "address"
        }
      ],
      "stateMutability": "view",
      "type": "function"
    },
    {
      "inputs": [],
      "name": "decimals",
      "outputs": [
        {
          "internalType": "uint8",
          "name": "",
          "type": "uint8"
        }
      ],
      "stateMutability": "view",
      "type": "function"
    },
    {
      "inputs": [
        {
          "internalType": "address",
          "name": "spender",
          "type": "address"
        },
        {
          "internalType": "uint256",
          "name": "subtractedValue",
          "type": "uint256"
        }
      ],
      "name": "decreaseAllowance",
      "outputs": [
        {
          "internalType": "bool",
          "name": "",
          "type": "bool"
        }
      ],
      "stateMutability": "nonpayable",
      "type": "function"
    },
    {
      "inputs": [
        {
          "internalType": "uint256",
          "name": "_amount",
          "type": "uint256"
        },
        {
          "internalType": "bytes[]",
          "name": "_swapdata",
          "type": "bytes[]"
        }
      ],
      "name": "deposit",
      "outputs": [],
      "stateMutability": "nonpayable",
      "type": "function"
    },
    {
      "inputs": [
        {
          "internalType": "address",
          "name": "spender",
          "type": "address"
        },
        {
          "internalType": "uint256",
          "name": "addedValue",
          "type": "uint256"
        }
      ],
      "name": "increaseAllowance",
      "outputs": [
        {
          "internalType": "bool",
          "name": "",
          "type": "bool"
        }
      ],
      "stateMutability": "nonpayable",
      "type": "function"
    },
    {
      "inputs": [],
      "name": "name",
      "outputs": [
        {
          "internalType": "string",
          "name": "",
          "type": "string"
        }
      ],
      "stateMutability": "view",
      "type": "function"
    },
    {
      "inputs": [
        {
          "internalType": "address",
          "name": "owner",
          "type": "address"
        }
      ],
      "name": "nonces",
      "outputs": [
        {
          "internalType": "uint256",
          "name": "",
          "type": "uint256"
        }
      ],
      "stateMutability": "view",
      "type": "function"
    },
    {
      "inputs": [],
      "name": "overview",
      "outputs": [
        {
          "internalType": "string",
          "name": "fundName",
          "type": "string"
        },
        {
          "internalType": "uint256",
          "name": "usdValue",
          "type": "uint256"
        },
        {
          "internalType": "uint256",
          "name": "tokenSupply",
          "type": "uint256"
        },
        {
          "components": [
            {
              "internalType": "contract ERC20",
              "name": "token",
              "type": "address"
            },
            {
              "internalType": "contract AggregatorV3Interface",
              "name": "priceFeed",
              "type": "address"
            },
            {
              "internalType": "uint256",
              "name": "amount",
              "type": "uint256"
            },
            {
              "internalType": "uint256",
              "name": "weight",
              "type": "uint256"
            }
          ],
          "internalType": "struct InzenFunds.Assets[]",
          "name": "assets",
          "type": "tuple[]"
        }
      ],
      "stateMutability": "view",
      "type": "function"
    },
    {
      "inputs": [],
      "name": "owner",
      "outputs": [
        {
          "internalType": "address",
          "name": "",
          "type": "address"
        }
      ],
      "stateMutability": "view",
      "type": "function"
    },
    {
      "inputs": [
        {
          "internalType": "address",
          "name": "owner",
          "type": "address"
        },
        {
          "internalType": "address",
          "name": "spender",
          "type": "address"
        },
        {
          "internalType": "uint256",
          "name": "value",
          "type": "uint256"
        },
        {
          "internalType": "uint256",
          "name": "deadline",
          "type": "uint256"
        },
        {
          "internalType": "uint8",
          "name": "v",
          "type": "uint8"
        },
        {
          "internalType": "bytes32",
          "name": "r",
          "type": "bytes32"
        },
        {
          "internalType": "bytes32",
          "name": "s",
          "type": "bytes32"
        }
      ],
      "name": "permit",
      "outputs": [],
      "stateMutability": "nonpayable",
      "type": "function"
    },
    {
      "inputs": [
        {
          "internalType": "uint256",
          "name": "",
          "type": "uint256"
        }
      ],
      "name": "portfolio",
      "outputs": [
        {
          "internalType": "contract ERC20",
          "name": "token",
          "type": "address"
        },
        {
          "internalType": "contract AggregatorV3Interface",
          "name": "priceFeed",
          "type": "address"
        },
        {
          "internalType": "uint256",
          "name": "amount",
          "type": "uint256"
        },
        {
          "internalType": "uint256",
          "name": "weight",
          "type": "uint256"
        }
      ],
      "stateMutability": "view",
      "type": "function"
    },
    {
      "inputs": [
        {
          "internalType": "bytes[]",
          "name": "_swapdata",
          "type": "bytes[]"
        }
      ],
      "name": "rebalance",
      "outputs": [],
      "stateMutability": "nonpayable",
      "type": "function"
    },
    {
      "inputs": [],
      "name": "renounceOwnership",
      "outputs": [],
      "stateMutability": "nonpayable",
      "type": "function"
    },
    {
      "inputs": [],
      "name": "router",
      "outputs": [
        {
          "internalType": "contract AggregationRouterV5Interface",
          "name": "",
          "type": "address"
        }
      ],
      "stateMutability": "view",
      "type": "function"
    },
    {
      "inputs": [],
      "name": "symbol",
      "outputs": [
        {
          "internalType": "string",
          "name": "",
          "type": "string"
        }
      ],
      "stateMutability": "view",
      "type": "function"
    },
    {
      "inputs": [],
      "name": "totalSupply",
      "outputs": [
        {
          "internalType": "uint256",
          "name": "",
          "type": "uint256"
        }
      ],
      "stateMutability": "view",
      "type": "function"
    },
    {
      "inputs": [],
      "name": "totalValue",
      "outputs": [
        {
          "internalType": "uint256",
          "name": "total",
          "type": "uint256"
        }
      ],
      "stateMutability": "view",
      "type": "function"
    },
    {
      "inputs": [
        {
          "internalType": "address",
          "name": "recipient",
          "type": "address"
        },
        {
          "internalType": "uint256",
          "name": "amount",
          "type": "uint256"
        }
      ],
      "name": "transfer",
      "outputs": [
        {
          "internalType": "bool",
          "name": "",
          "type": "bool"
        }
      ],
      "stateMutability": "nonpayable",
      "type": "function"
    },
    {
      "inputs": [
        {
          "internalType": "address",
          "name": "sender",
          "type": "address"
        },
        {
          "internalType": "address",
          "name": "recipient",
          "type": "address"
        },
        {
          "internalType": "uint256",
          "name": "amount",
          "type": "uint256"
        }
      ],
      "name": "transferFrom",
      "outputs": [
        {
          "internalType": "bool",
          "name": "",
          "type": "bool"
        }
      ],
      "stateMutability": "nonpayable",
      "type": "function"
    },
    {
      "inputs": [
        {
          "internalType": "address",
          "name": "newOwner",
          "type": "address"
        }
      ],
      "name": "transferOwnership",
      "outputs": [],
      "stateMutability": "nonpayable",
      "type": "function"
    },
    {
      "inputs": [
        {
          "internalType": "address",
          "name": "user",
          "type": "address"
        }
      ],
      "name": "userInfo",
      "outputs": [
        {
          "internalType": "uint256",
          "name": "usdValue",
          "type": "uint256"
        },
        {
          "internalType": "uint256",
          "name": "tokenBalance",
          "type": "uint256"
        }
      ],
      "stateMutability": "view",
      "type": "function"
    },
    {
      "inputs": [
        {
          "internalType": "uint256",
          "name": "_burnAmount",
          "type": "uint256"
        }
      ],
      "name": "withdraw",
      "outputs": [],
      "stateMutability": "nonpayable",
      "type": "function"
    },
    {
      "inputs": [
        {
          "internalType": "contract ERC20",
          "name": "_token",
          "type": "address"
        },
        {
          "internalType": "uint256",
          "name": "_amount",
          "type": "uint256"
        }
      ],
      "name": "withdrawToken",
      "outputs": [],
      "stateMutability": "nonpayable",
      "type": "function"
    }
  ],
  "transactionHash": "0xc918c9dfe051dcab9a95be8744d462ac451da3dc51271c7a94748a75886085b3",
  "args": [
    "Inzen: Test4",
    "0x2791Bca1f2de4661ED88A30C99A7a9449Aa84174",
    "0x1111111254EEB25477B68fb85Ed929f73A960582",
    [
      [
        "0x1BFD67037B42Cf73acF2047067bd4F2C47D9BfD6",
        "0xc907E116054Ad103354f2D350FD2514433D57F6f",
        0,
        25
      ],
      [
        "0x7ceB23fD6bC0adD59E62ac25578270cFf1b9f619",
        "0xF9680D99D6C9589e2a93a78A04A279e509205945",
        0,
        25
      ],
      [
        "0x2C89bbc92BD86F8075d1DEcc58C7F4E0107f286b",
        "0xe01eA2fbd8D76ee323FbEd03eB9a8625EC981A10",
        0,
        25
      ],
      [
        "0x0d500B1d8E8eF31E21C99d1Db9A6444d3ADf1270",
        "0x327e23A4855b6F663a28c5161541d69Af8973302",
        0,
        25
      ]
    ]
  ],
  "solcInputHash": "e6416f9b9102d37f7bfd18f0713bba2d",
  "bytecode": "0x6101406040527f6e71edae12b1b97f4d1f60370fef10105fa2faae0126114a169c64845d6126c9610120523480156200003757600080fd5b50604051620038a6380380620038a68339810160408190526200005a91620006ae565b8380604051806040016040528060018152602001603160f81b815250866040518060400160405280600381526020016224ad2360e91b815250620000ad620000a7620004c760201b60201c565b620004cb565b8151620000c29060049060208501906200051b565b508051620000d89060059060208401906200051b565b5050825160208085019190912083518483012060c082815260e08290524660a0818152604080517f8b73c3c69bb8fe3d512ecc4cf759cc79239f7b179b0ffacaa9a75d522b39400f81890181905281830188905260608201879052608082019490945230818401528151808203909301835290930190925281519190940120919350919060805261010052505060016007555050600b80546001600160a01b038087166001600160a01b031992831617909255600a805492861692909116919091179055506000805b8251811015620004695760096000848381518110620001d057634e487b7160e01b600052603260045260246000fd5b6020026020010151600001516001600160a01b03166001600160a01b0316815260200190815260200160002054600014620002455760405162461bcd60e51b815260206004820152601060248201526f111d5c1b1a58d85d195908185cdcd95d60821b60448201526064015b60405180910390fd5b8281815181106200026657634e487b7160e01b600052603260045260246000fd5b602090810291909101015151600b546001600160a01b03908116911614801590620002bd57506000838281518110620002af57634e487b7160e01b600052603260045260246000fd5b602002602001015160600151115b8015620002f65750828181518110620002e657634e487b7160e01b600052603260045260246000fd5b6020026020010151604001516000145b620003345760405162461bcd60e51b815260206004820152600d60248201526c125b9d985b1a5908185cdcd95d609a1b60448201526064016200023c565b60088382815181106200035757634e487b7160e01b600052603260045260246000fd5b6020908102919091018101518254600181810185556000948552838520835160049093020180546001600160a01b039384166001600160a01b03199182161782559484015191810180549290931691909416179055604081015160028301556060015160039091015583518291600991869084908110620003e857634e487b7160e01b600052603260045260246000fd5b6020026020010151600001516001600160a01b03166001600160a01b03168152602001908152602001600020819055508281815181106200043957634e487b7160e01b600052603260045260246000fd5b602002602001015160600151826200045291906200080f565b915080620004608162000867565b915050620001a1565b5080606414620004bc5760405162461bcd60e51b815260206004820152601560248201527f496e76616c69642061737365742077656967687473000000000000000000000060448201526064016200023c565b5050505050620008ca565b3390565b600080546001600160a01b038381166001600160a01b0319831681178455604051919092169283917f8be0079c531659141344cd1fd0a4f28419497f9722a3daafe3b4186f6b6457e09190a35050565b82805462000529906200082a565b90600052602060002090601f0160209004810192826200054d576000855562000598565b82601f106200056857805160ff191683800117855562000598565b8280016001018555821562000598579182015b82811115620005985782518255916020019190600101906200057b565b50620005a6929150620005aa565b5090565b5b80821115620005a65760008155600101620005ab565b600082601f830112620005d2578081fd5b815160206001600160401b03821115620005f057620005f06200089b565b62000600818360051b01620007dc565b80838252828201915082860187848660071b890101111562000620578586fd5b855b858110156200068f57608080838b0312156200063c578788fd5b62000646620007b1565b83516200065381620008b1565b8152838701516200066481620008b1565b8188015260408481015190820152606080850151908201528552938501939091019060010162000622565b5090979650505050505050565b8051620006a981620008b1565b919050565b60008060008060808587031215620006c4578384fd5b84516001600160401b0380821115620006db578586fd5b818701915087601f830112620006ef578586fd5b8151818111156200070457620007046200089b565b60206200071a601f8301601f19168201620007dc565b8281528a828487010111156200072e578889fd5b885b838110156200074d57858101830151828201840152820162000730565b838111156200075e57898385840101525b5097506200076e8982016200069c565b9650505062000780604088016200069c565b9350606087015191508082111562000796578283fd5b50620007a587828801620005c1565b91505092959194509250565b604051608081016001600160401b0381118282101715620007d657620007d66200089b565b60405290565b604051601f8201601f191681016001600160401b03811182821017156200080757620008076200089b565b604052919050565b6000821982111562000825576200082562000885565b500190565b600181811c908216806200083f57607f821691505b602082108114156200086157634e487b7160e01b600052602260045260246000fd5b50919050565b60006000198214156200087e576200087e62000885565b5060010190565b634e487b7160e01b600052601160045260246000fd5b634e487b7160e01b600052604160045260246000fd5b6001600160a01b0381168114620008c757600080fd5b50565b60805160a05160c05160e0516101005161012051612f8c6200091a600039600061116701526000611d1801526000611d6701526000611d4201526000611cc601526000611cef0152612f8c6000f3fe608060405234801561001057600080fd5b50600436106101a95760003560e01c8063715018a6116100f9578063c55dae6311610097578063dd62ed3e11610071578063dd62ed3e146103bc578063f2fde38b146103f5578063f887ea4014610408578063ffab85731461041b57600080fd5b8063c55dae631461038e578063d4c3eea0146103a1578063d505accf146103a957600080fd5b806395d89b41116100d357806395d89b411461034d5780639e281a9814610355578063a457c2d714610368578063a9059cbb1461037b57600080fd5b8063715018a61461030d5780637ecebe00146103155780638da5cb5b1461032857600080fd5b80632e63a15611610166578063392179c611610140578063392179c6146102a657806339509351146102b95780633a2056f1146102cc57806370a08231146102e457600080fd5b80632e63a15614610251578063313ce5671461028f5780633644e5151461029e57600080fd5b806306fdde03146101ae578063095ea7b3146101cc57806318160ddd146101ef5780631959a0021461020157806323b872dd146102295780632e1a7d4d1461023c575b600080fd5b6101b661042e565b6040516101c39190612b6b565b60405180910390f35b6101df6101da36600461290b565b6104c0565b60405190151581526020016101c3565b6003545b6040519081526020016101c3565b61021461020f366004612706565b6104d7565b604080519283526020830191909152016101c3565b6101df61023736600461285b565b610517565b61024f61024a366004612996565b6105c8565b005b61026461025f366004612996565b61073d565b604080516001600160a01b0395861681529490931660208501529183015260608201526080016101c3565b604051601281526020016101c3565b6101f3610783565b61024f6102b4366004612936565b610792565b6101df6102c736600461290b565b610b25565b6102d4610b61565b6040516101c39493929190612b7e565b6101f36102f2366004612706565b6001600160a01b031660009081526001602052604090205490565b61024f610cc8565b6101f3610323366004612706565b610cfe565b6000546001600160a01b03165b6040516001600160a01b0390911681526020016101c3565b6101b6610d1c565b61024f61036336600461290b565b610d2b565b6101df61037636600461290b565b610d6d565b6101df61038936600461290b565b610e06565b600b54610335906001600160a01b031681565b6101f3610e13565b61024f6103b736600461289b565b611113565b6101f36103ca366004612823565b6001600160a01b03918216600090815260026020908152604080832093909416825291909152205490565b61024f610403366004612706565b611277565b600a54610335906001600160a01b031681565b61024f6104293660046129c6565b611312565b60606004805461043d90612edf565b80601f016020809104026020016040519081016040528092919081815260200182805461046990612edf565b80156104b65780601f1061048b576101008083540402835291602001916104b6565b820191906000526020600020905b81548152906001019060200180831161049957829003601f168201915b5050505050905090565b60006104cd338484611818565b5060015b92915050565b6001600160a01b038116600090815260016020526040812054600354816104fc610e13565b6105069190612e5a565b6105109190612d4c565b9150915091565b600061052484848461193c565b6001600160a01b0384166000908152600260209081526040808320338452909152902054828110156105ae5760405162461bcd60e51b815260206004820152602860248201527f45524332303a207472616e7366657220616d6f756e74206578636565647320616044820152676c6c6f77616e636560c01b60648201526084015b60405180910390fd5b6105bb8533858403611818565b60019150505b9392505050565b600260075414156105eb5760405162461bcd60e51b81526004016105a590612c42565b600260075560005b6008548110156106f557600061060860035490565b836008848154811061062a57634e487b7160e01b600052603260045260246000fd5b9060005260206000209060040201600201546106469190612e5a565b6106509190612d4c565b9050806008838154811061067457634e487b7160e01b600052603260045260246000fd5b906000526020600020906004020160020160008282546106949190612e79565b925050819055506106e23382600885815481106106c157634e487b7160e01b600052603260045260246000fd5b60009182526020909120600490910201546001600160a01b03169190611b0c565b50806106ed81612f14565b9150506105f3565b506107003382611b74565b60405181815233907f884edad9ce6fa2440d8a54cc123490eb96d2768479d49ff9c7366125a94243649060200160405180910390a2506001600755565b6008818154811061074d57600080fd5b600091825260209091206004909102018054600182015460028301546003909301546001600160a01b0392831694509116919084565b600061078d611cc2565b905090565b6000546001600160a01b031633146107bc5760405162461bcd60e51b81526004016105a590612c0d565b600260075414156107df5760405162461bcd60e51b81526004016105a590612c42565b600260075560005b81811015610b1b5760008060008086868681811061081557634e487b7160e01b600052603260045260246000fd5b90506020028101906108279190612c79565b610835916004908290612ce7565b8101906108429190612722565b9350935093509350306001600160a01b031683606001516001600160a01b0316146108a25760405162461bcd60e51b815260206004820152601060248201526f24b73b30b634b2103932b1b2b4bb32b960811b60448201526064016105a5565b82516001600160a01b0316600090815260096020526040902054158015906108e657506020808401516001600160a01b031660009081526009909152604090205415155b6109275760405162461bcd60e51b815260206004820152601260248201527124b73b30b634b21039bbb0b8103a37b5b2b760711b60448201526064016105a5565b600a5460808401518451610949926001600160a01b0391821692911690611db5565b600a546040516312aa3caf60e01b815260009182916001600160a01b03909116906312aa3caf90610984908990899089908990600401612ae6565b6040805180830381600087803b15801561099d57600080fd5b505af11580156109b1573d6000803e3d6000fd5b505050506040513d601f19601f820116820180604052508101906109d59190612a10565b86516001600160a01b03166000908152600960205260409020546008805493955091935083928110610a1757634e487b7160e01b600052603260045260246000fd5b90600052602060002090600402016002016000828254610a379190612e79565b90915550506020808601516001600160a01b0316600090815260099091526040902054600880548492908110610a7d57634e487b7160e01b600052603260045260246000fd5b90600052602060002090600402016002016000828254610a9d9190612d0f565b9250508190555084602001516001600160a01b031685600001516001600160a01b03167ffea7a9a6e25cd0bbbfa80ce0c7646e61ee5e0551b3fdaaff0642e6f6adcc72e28385604051610afa929190918252602082015260400190565b60405180910390a35050505050508080610b1390612f14565b9150506107e7565b5050600160075550565b3360008181526002602090815260408083206001600160a01b038716845290915281205490916104cd918590610b5c908690612d0f565b611818565b60606000806060610b7061042e565b9350610b7a610e13565b9250610b8560035490565b60085490925067ffffffffffffffff811115610bb157634e487b7160e01b600052604160045260246000fd5b604051908082528060200260200182016040528015610c0357816020015b604080516080810182526000808252602080830182905292820181905260608201528252600019909201910181610bcf5790505b50905060005b600854811015610cc15760088181548110610c3457634e487b7160e01b600052603260045260246000fd5b600091825260209182902060408051608081018252600490930290910180546001600160a01b0390811684526001820154169383019390935260028301549082015260039091015460608201528251839083908110610ca357634e487b7160e01b600052603260045260246000fd5b60200260200101819052508080610cb990612f14565b915050610c09565b5090919293565b6000546001600160a01b03163314610cf25760405162461bcd60e51b81526004016105a590612c0d565b610cfc6000611ed9565b565b6001600160a01b0381166000908152600660205260408120546104d1565b60606005805461043d90612edf565b6000546001600160a01b03163314610d555760405162461bcd60e51b81526004016105a590612c0d565b610d696001600160a01b0383163383611b0c565b5050565b3360009081526002602090815260408083206001600160a01b038616845290915281205482811015610def5760405162461bcd60e51b815260206004820152602560248201527f45524332303a2064656372656173656420616c6c6f77616e63652062656c6f77604482015264207a65726f60d81b60648201526084016105a5565b610dfc3385858403611818565b5060019392505050565b60006104cd33848461193c565b6000805b60085481101561110f5760088181548110610e4257634e487b7160e01b600052603260045260246000fd5b90600052602060002090600402016002015460001415610e61576110fd565b600060088281548110610e8457634e487b7160e01b600052603260045260246000fd5b906000526020600020906004020160010160009054906101000a90046001600160a01b03166001600160a01b031663feaf968c6040518163ffffffff1660e01b815260040160a06040518083038186803b158015610ee157600080fd5b505afa158015610ef5573d6000803e3d6000fd5b505050506040513d601f19601f82011682018060405250810190610f199190612a33565b505050915050600060088381548110610f4257634e487b7160e01b600052603260045260246000fd5b906000526020600020906004020160010160009054906101000a90046001600160a01b03166001600160a01b031663313ce5676040518163ffffffff1660e01b815260040160206040518083038186803b158015610f9f57600080fd5b505afa158015610fb3573d6000803e3d6000fd5b505050506040513d601f19601f82011682018060405250810190610fd79190612a82565b9050600060088481548110610ffc57634e487b7160e01b600052603260045260246000fd5b6000918252602091829020600491820201546040805163313ce56760e01b815290516001600160a01b039092169363313ce56793828101939192829003018186803b15801561104a57600080fd5b505afa15801561105e573d6000803e3d6000fd5b505050506040513d601f19601f820116820180604052508101906110829190612a82565b905060126110908284612d27565b61109a9190612e90565b6110a590600a612daf565b600885815481106110c657634e487b7160e01b600052603260045260246000fd5b906000526020600020906004020160020154846110e39190612e5a565b6110ed9190612d4c565b6110f79086612d0f565b94505050505b8061110781612f14565b915050610e17565b5090565b834211156111635760405162461bcd60e51b815260206004820152601d60248201527f45524332305065726d69743a206578706972656420646561646c696e6500000060448201526064016105a5565b60007f00000000000000000000000000000000000000000000000000000000000000008888886111928c611f29565b6040805160208101969096526001600160a01b0394851690860152929091166060840152608083015260a082015260c0810186905260e00160405160208183030381529060405280519060200120905060006111ed82611f51565b905060006111fd82878787611f9f565b9050896001600160a01b0316816001600160a01b0316146112605760405162461bcd60e51b815260206004820152601e60248201527f45524332305065726d69743a20696e76616c6964207369676e6174757265000060448201526064016105a5565b61126b8a8a8a611818565b50505050505050505050565b6000546001600160a01b031633146112a15760405162461bcd60e51b81526004016105a590612c0d565b6001600160a01b0381166113065760405162461bcd60e51b815260206004820152602660248201527f4f776e61626c653a206e6577206f776e657220697320746865207a65726f206160448201526564647265737360d01b60648201526084016105a5565b61130f81611ed9565b50565b600260075414156113355760405162461bcd60e51b81526004016105a590612c42565b6002600755600854811461137f5760405162461bcd60e51b8152602060048201526011602482015270496e76616c69642073776170206461746160781b60448201526064016105a5565b6000611389610e13565b600b549091506113a4906001600160a01b0316333087611fc7565b600a54600b546113c1916001600160a01b03918216911686611db5565b6000805b838110156116b0576000806000808888868181106113f357634e487b7160e01b600052603260045260246000fd5b90506020028101906114059190612c79565b611413916004908290612ce7565b8101906114209190612722565b9350935093509350306001600160a01b031683606001516001600160a01b0316146114805760405162461bcd60e51b815260206004820152601060248201526f24b73b30b634b2103932b1b2b4bb32b960811b60448201526064016105a5565b600b5483516001600160a01b0390811691161480156114e05750600885815481106114bb57634e487b7160e01b600052603260045260246000fd5b600091825260209182902060049091020154908401516001600160a01b039081169116145b6115215760405162461bcd60e51b815260206004820152601260248201527124b73b30b634b21039bbb0b8103a37b5b2b760711b60448201526064016105a5565b60648a6008878154811061154557634e487b7160e01b600052603260045260246000fd5b9060005260206000209060040201600301546115619190612e5a565b61156b9190612d4c565b8360800151146115b35760405162461bcd60e51b8152602060048201526013602482015272125b9d985b1a59081cddd85c08185b5bdd5b9d606a1b60448201526064016105a5565b600a546040516312aa3caf60e01b815260009182916001600160a01b03909116906312aa3caf906115ee908990899089908990600401612ae6565b6040805180830381600087803b15801561160757600080fd5b505af115801561161b573d6000803e3d6000fd5b505050506040513d601f19601f8201168201806040525081019061163f9190612a10565b91509150816008888154811061166557634e487b7160e01b600052603260045260246000fd5b906000526020600020906004020160020160008282546116859190612d0f565b9091555061169590508189612d0f565b975050505050505080806116a890612f14565b9150506113c5565b50848111156117015760405162461bcd60e51b815260206004820152601760248201527f5370656e74206d6f7265207468616e206465706f73697400000000000000000060448201526064016105a5565b8481101561172a5761172a336117178388612e79565b600b546001600160a01b03169190611b0c565b6000611734610e13565b90508083106117935760405162461bcd60e51b815260206004820152602560248201527f4e65772076616c75652063616e206e6f74206c657373207468616e206f6c642060448201526476616c756560d81b60648201526084016105a5565b8083156117c557836117a460035490565b6117ae8685612e79565b6117b89190612e5a565b6117c29190612d4c565b90505b6117cf3382611fff565b604080518481526020810183905233917f90890809c654f11d6e72a28fa60149770a0d11ec6c92319d6ceb2bb0a4ea1a15910160405180910390a2505060016007555050505050565b6001600160a01b03831661187a5760405162461bcd60e51b8152602060048201526024808201527f45524332303a20617070726f76652066726f6d20746865207a65726f206164646044820152637265737360e01b60648201526084016105a5565b6001600160a01b0382166118db5760405162461bcd60e51b815260206004820152602260248201527f45524332303a20617070726f766520746f20746865207a65726f206164647265604482015261737360f01b60648201526084016105a5565b6001600160a01b0383811660008181526002602090815260408083209487168084529482529182902085905590518481527f8c5be1e5ebec7d5bd14f71427d1e84f3dd0314c0f7b2291e5b200ac8c7c3b925910160405180910390a3505050565b6001600160a01b0383166119a05760405162461bcd60e51b815260206004820152602560248201527f45524332303a207472616e736665722066726f6d20746865207a65726f206164604482015264647265737360d81b60648201526084016105a5565b6001600160a01b038216611a025760405162461bcd60e51b815260206004820152602360248201527f45524332303a207472616e7366657220746f20746865207a65726f206164647260448201526265737360e81b60648201526084016105a5565b6001600160a01b03831660009081526001602052604090205481811015611a7a5760405162461bcd60e51b815260206004820152602660248201527f45524332303a207472616e7366657220616d6f756e7420657863656564732062604482015265616c616e636560d01b60648201526084016105a5565b6001600160a01b03808516600090815260016020526040808220858503905591851681529081208054849290611ab1908490612d0f565b92505081905550826001600160a01b0316846001600160a01b03167fddf252ad1be2c89b69c2b068fc378daa952ba7f163c4a11628f55a4df523b3ef84604051611afd91815260200190565b60405180910390a35b50505050565b6040516001600160a01b038316602482015260448101829052611b6f90849063a9059cbb60e01b906064015b60408051601f198184030181529190526020810180516001600160e01b03166001600160e01b0319909316929092179091526120de565b505050565b6001600160a01b038216611bd45760405162461bcd60e51b815260206004820152602160248201527f45524332303a206275726e2066726f6d20746865207a65726f206164647265736044820152607360f81b60648201526084016105a5565b6001600160a01b03821660009081526001602052604090205481811015611c485760405162461bcd60e51b815260206004820152602260248201527f45524332303a206275726e20616d6f756e7420657863656564732062616c616e604482015261636560f01b60648201526084016105a5565b6001600160a01b0383166000908152600160205260408120838303905560038054849290611c77908490612e79565b90915550506040518281526000906001600160a01b038516907fddf252ad1be2c89b69c2b068fc378daa952ba7f163c4a11628f55a4df523b3ef9060200160405180910390a3505050565b60007f0000000000000000000000000000000000000000000000000000000000000000461415611d1157507f000000000000000000000000000000000000000000000000000000000000000090565b50604080517f00000000000000000000000000000000000000000000000000000000000000006020808301919091527f0000000000000000000000000000000000000000000000000000000000000000828401527f000000000000000000000000000000000000000000000000000000000000000060608301524660808301523060a0808401919091528351808403909101815260c0909201909252805191012090565b801580611e3e5750604051636eb1769f60e11b81523060048201526001600160a01b03838116602483015284169063dd62ed3e9060440160206040518083038186803b158015611e0457600080fd5b505afa158015611e18573d6000803e3d6000fd5b505050506040513d601f19601f82011682018060405250810190611e3c91906129ae565b155b611ea95760405162461bcd60e51b815260206004820152603660248201527f5361666545524332303a20617070726f76652066726f6d206e6f6e2d7a65726f60448201527520746f206e6f6e2d7a65726f20616c6c6f77616e636560501b60648201526084016105a5565b6040516001600160a01b038316602482015260448101829052611b6f90849063095ea7b360e01b90606401611b38565b600080546001600160a01b038381166001600160a01b0319831681178455604051919092169283917f8be0079c531659141344cd1fd0a4f28419497f9722a3daafe3b4186f6b6457e09190a35050565b6001600160a01b03811660009081526006602052604090208054600181018255905b50919050565b60006104d1611f5e611cc2565b8360405161190160f01b6020820152602281018390526042810182905260009060620160405160208183030381529060405280519060200120905092915050565b6000806000611fb0878787876121b0565b91509150611fbd8161229d565b5095945050505050565b6040516001600160a01b0380851660248301528316604482015260648101829052611b069085906323b872dd60e01b90608401611b38565b6001600160a01b0382166120555760405162461bcd60e51b815260206004820152601f60248201527f45524332303a206d696e7420746f20746865207a65726f20616464726573730060448201526064016105a5565b80600360008282546120679190612d0f565b90915550506001600160a01b03821660009081526001602052604081208054839290612094908490612d0f565b90915550506040518181526001600160a01b038316906000907fddf252ad1be2c89b69c2b068fc378daa952ba7f163c4a11628f55a4df523b3ef9060200160405180910390a35050565b6000612133826040518060400160405280602081526020017f5361666545524332303a206c6f772d6c6576656c2063616c6c206661696c6564815250856001600160a01b031661249e9092919063ffffffff16565b805190915015611b6f57808060200190518101906121519190612976565b611b6f5760405162461bcd60e51b815260206004820152602a60248201527f5361666545524332303a204552433230206f7065726174696f6e20646964206e6044820152691bdd081cdd58d8d9595960b21b60648201526084016105a5565b6000807f7fffffffffffffffffffffffffffffff5d576e7357a4501ddfe92f46681b20a08311156121e75750600090506003612294565b8460ff16601b141580156121ff57508460ff16601c14155b156122105750600090506004612294565b6040805160008082526020820180845289905260ff881692820192909252606081018690526080810185905260019060a0016020604051602081039080840390855afa158015612264573d6000803e3d6000fd5b5050604051601f1901519150506001600160a01b03811661228d57600060019250925050612294565b9150600090505b94509492505050565b60008160048111156122bf57634e487b7160e01b600052602160045260246000fd5b14156122c85750565b60018160048111156122ea57634e487b7160e01b600052602160045260246000fd5b14156123385760405162461bcd60e51b815260206004820152601860248201527f45434453413a20696e76616c6964207369676e6174757265000000000000000060448201526064016105a5565b600281600481111561235a57634e487b7160e01b600052602160045260246000fd5b14156123a85760405162461bcd60e51b815260206004820152601f60248201527f45434453413a20696e76616c6964207369676e6174757265206c656e6774680060448201526064016105a5565b60038160048111156123ca57634e487b7160e01b600052602160045260246000fd5b14156124235760405162461bcd60e51b815260206004820152602260248201527f45434453413a20696e76616c6964207369676e6174757265202773272076616c604482015261756560f01b60648201526084016105a5565b600481600481111561244557634e487b7160e01b600052602160045260246000fd5b141561130f5760405162461bcd60e51b815260206004820152602260248201527f45434453413a20696e76616c6964207369676e6174757265202776272076616c604482015261756560f01b60648201526084016105a5565b60606124ad84846000856124b5565b949350505050565b6060824710156125165760405162461bcd60e51b815260206004820152602660248201527f416464726573733a20696e73756666696369656e742062616c616e636520666f6044820152651c8818d85b1b60d21b60648201526084016105a5565b843b6125645760405162461bcd60e51b815260206004820152601d60248201527f416464726573733a2063616c6c20746f206e6f6e2d636f6e747261637400000060448201526064016105a5565b600080866001600160a01b031685876040516125809190612aca565b60006040518083038185875af1925050503d80600081146125bd576040519150601f19603f3d011682016040523d82523d6000602084013e6125c2565b606091505b50915091506125d28282866125dd565b979650505050505050565b606083156125ec5750816105c1565b8251156125fc5782518084602001fd5b8160405162461bcd60e51b81526004016105a59190612b6b565b60008083601f840112612627578081fd5b50813567ffffffffffffffff81111561263e578182fd5b6020830191508360208260051b850101111561265957600080fd5b9250929050565b600082601f830112612670578081fd5b813567ffffffffffffffff8082111561268b5761268b612f45565b604051601f8301601f19908116603f011681019082821181831017156126b3576126b3612f45565b816040528381528660208588010111156126cb578485fd5b8360208701602083013792830160200193909352509392505050565b805169ffffffffffffffffffff8116811461270157600080fd5b919050565b600060208284031215612717578081fd5b81356105c181612f5b565b600080600080848603610140811215612739578384fd5b853561274481612f5b565b945060e0601f1982011215612757578384fd5b50612760612cbe565b602086013561276e81612f5b565b8152604086013561277e81612f5b565b6020820152606086013561279181612f5b565b604082015260808601356127a481612f5b565b8060608301525060a0860135608082015260c086013560a082015260e086013560c08201528093505061010085013567ffffffffffffffff808211156127e8578384fd5b6127f488838901612660565b935061012087013591508082111561280a578283fd5b5061281787828801612660565b91505092959194509250565b60008060408385031215612835578182fd5b823561284081612f5b565b9150602083013561285081612f5b565b809150509250929050565b60008060006060848603121561286f578283fd5b833561287a81612f5b565b9250602084013561288a81612f5b565b929592945050506040919091013590565b600080600080600080600060e0888a0312156128b5578283fd5b87356128c081612f5b565b965060208801356128d081612f5b565b9550604088013594506060880135935060808801356128ee81612f70565b9699959850939692959460a0840135945060c09093013592915050565b6000806040838503121561291d578182fd5b823561292881612f5b565b946020939093013593505050565b60008060208385031215612948578182fd5b823567ffffffffffffffff81111561295e578283fd5b61296a85828601612616565b90969095509350505050565b600060208284031215612987578081fd5b815180151581146105c1578182fd5b6000602082840312156129a7578081fd5b5035919050565b6000602082840312156129bf578081fd5b5051919050565b6000806000604084860312156129da578081fd5b83359250602084013567ffffffffffffffff8111156129f7578182fd5b612a0386828701612616565b9497909650939450505050565b60008060408385031215612a22578182fd5b505080516020909101519092909150565b600080600080600060a08688031215612a4a578283fd5b612a53866126e7565b9450602086015193506040860151925060608601519150612a76608087016126e7565b90509295509295909350565b600060208284031215612a93578081fd5b81516105c181612f70565b60008151808452612ab6816020860160208601612eb3565b601f01601f19169290920160200192915050565b60008251612adc818460208701612eb3565b9190910192915050565b600061014060018060a01b03808816845280875116602085015280602088015116604085015280604088015116606085015280606088015116608085015250608086015160a084015260a086015160c084015260c086015160e084015280610100840152612b5681840186612a9e565b90508281036101208401526125d28185612a9e565b6020815260006105c16020830184612a9e565b60006080808352612b9181840188612a9e565b60208781860152604087818701526060868403818801528388518086528486019150848a019550875b81811015612bfb57865180516001600160a01b0390811685528782015116878501528581015186850152840151848401529585019591870191600101612bba565b50909c9b505050505050505050505050565b6020808252818101527f4f776e61626c653a2063616c6c6572206973206e6f7420746865206f776e6572604082015260600190565b6020808252601f908201527f5265656e7472616e637947756172643a207265656e7472616e742063616c6c00604082015260600190565b6000808335601e19843603018112612c8f578283fd5b83018035915067ffffffffffffffff821115612ca9578283fd5b60200191503681900382131561265957600080fd5b60405160e0810167ffffffffffffffff81118282101715612ce157612ce1612f45565b60405290565b60008085851115612cf6578182fd5b83861115612d02578182fd5b5050820193919092039150565b60008219821115612d2257612d22612f2f565b500190565b600060ff821660ff84168060ff03821115612d4457612d44612f2f565b019392505050565b600082612d6757634e487b7160e01b81526012600452602481fd5b500490565b600181815b80851115612da7578160001904821115612d8d57612d8d612f2f565b80851615612d9a57918102915b93841c9390800290612d71565b509250929050565b60006105c160ff841683600082612dc8575060016104d1565b81612dd5575060006104d1565b8160018114612deb5760028114612df557612e11565b60019150506104d1565b60ff841115612e0657612e06612f2f565b50506001821b6104d1565b5060208310610133831016604e8410600b8410161715612e34575081810a6104d1565b612e3e8383612d6c565b8060001904821115612e5257612e52612f2f565b029392505050565b6000816000190483118215151615612e7457612e74612f2f565b500290565b600082821015612e8b57612e8b612f2f565b500390565b600060ff821660ff841680821015612eaa57612eaa612f2f565b90039392505050565b60005b83811015612ece578181015183820152602001612eb6565b83811115611b065750506000910152565b600181811c90821680612ef357607f821691505b60208210811415611f4b57634e487b7160e01b600052602260045260246000fd5b6000600019821415612f2857612f28612f2f565b5060010190565b634e487b7160e01b600052601160045260246000fd5b634e487b7160e01b600052604160045260246000fd5b6001600160a01b038116811461130f57600080fd5b60ff8116811461130f57600080fdfea164736f6c6343000804000a",
  "devdoc": {
    "kind": "dev",
    "methods": {
      "DOMAIN_SEPARATOR()": {
        "details": "See {IERC20Permit-DOMAIN_SEPARATOR}."
      },
      "allowance(address,address)": {
        "details": "See {IERC20-allowance}."
      },
      "approve(address,uint256)": {
        "details": "See {IERC20-approve}. Requirements: - `spender` cannot be the zero address."
      },
      "balanceOf(address)": {
        "details": "See {IERC20-balanceOf}."
      },
      "decimals()": {
        "details": "Returns the number of decimals used to get its user representation. For example, if `decimals` equals `2`, a balance of `505` tokens should be displayed to a user as `5.05` (`505 / 10 ** 2`). Tokens usually opt for a value of 18, imitating the relationship between Ether and Wei. This is the value {ERC20} uses, unless this function is overridden; NOTE: This information is only used for _display_ purposes: it in no way affects any of the arithmetic of the contract, including {IERC20-balanceOf} and {IERC20-transfer}."
      },
      "decreaseAllowance(address,uint256)": {
        "details": "Atomically decreases the allowance granted to `spender` by the caller. This is an alternative to {approve} that can be used as a mitigation for problems described in {IERC20-approve}. Emits an {Approval} event indicating the updated allowance. Requirements: - `spender` cannot be the zero address. - `spender` must have allowance for the caller of at least `subtractedValue`."
      },
      "increaseAllowance(address,uint256)": {
        "details": "Atomically increases the allowance granted to `spender` by the caller. This is an alternative to {approve} that can be used as a mitigation for problems described in {IERC20-approve}. Emits an {Approval} event indicating the updated allowance. Requirements: - `spender` cannot be the zero address."
      },
      "name()": {
        "details": "Returns the name of the token."
      },
      "nonces(address)": {
        "details": "See {IERC20Permit-nonces}."
      },
      "owner()": {
        "details": "Returns the address of the current owner."
      },
      "permit(address,address,uint256,uint256,uint8,bytes32,bytes32)": {
        "details": "See {IERC20Permit-permit}."
      },
      "renounceOwnership()": {
        "details": "Leaves the contract without owner. It will not be possible to call `onlyOwner` functions anymore. Can only be called by the current owner. NOTE: Renouncing ownership will leave the contract without an owner, thereby removing any functionality that is only available to the owner."
      },
      "symbol()": {
        "details": "Returns the symbol of the token, usually a shorter version of the name."
      },
      "totalSupply()": {
        "details": "See {IERC20-totalSupply}."
      },
      "transfer(address,uint256)": {
        "details": "See {IERC20-transfer}. Requirements: - `recipient` cannot be the zero address. - the caller must have a balance of at least `amount`."
      },
      "transferFrom(address,address,uint256)": {
        "details": "See {IERC20-transferFrom}. Emits an {Approval} event indicating the updated allowance. This is not required by the EIP. See the note at the beginning of {ERC20}. Requirements: - `sender` and `recipient` cannot be the zero address. - `sender` must have a balance of at least `amount`. - the caller must have allowance for ``sender``'s tokens of at least `amount`."
      },
      "transferOwnership(address)": {
        "details": "Transfers ownership of the contract to a new account (`newOwner`). Can only be called by the current owner."
      }
    },
    "version": 1
  },
  "userdoc": {
    "kind": "user",
    "methods": {},
    "version": 1
  },
  "storageLayout": {
    "storage": [
      {
        "astId": 7,
        "contract": "contracts/InzenFunds.sol:InzenFunds",
        "label": "_owner",
        "offset": 0,
        "slot": "0",
        "type": "t_address"
      },
      {
        "astId": 159,
        "contract": "contracts/InzenFunds.sol:InzenFunds",
        "label": "_balances",
        "offset": 0,
        "slot": "1",
        "type": "t_mapping(t_address,t_uint256)"
      },
      {
        "astId": 165,
        "contract": "contracts/InzenFunds.sol:InzenFunds",
        "label": "_allowances",
        "offset": 0,
        "slot": "2",
        "type": "t_mapping(t_address,t_mapping(t_address,t_uint256))"
      },
      {
        "astId": 167,
        "contract": "contracts/InzenFunds.sol:InzenFunds",
        "label": "_totalSupply",
        "offset": 0,
        "slot": "3",
        "type": "t_uint256"
      },
      {
        "astId": 169,
        "contract": "contracts/InzenFunds.sol:InzenFunds",
        "label": "_name",
        "offset": 0,
        "slot": "4",
        "type": "t_string_storage"
      },
      {
        "astId": 171,
        "contract": "contracts/InzenFunds.sol:InzenFunds",
        "label": "_symbol",
        "offset": 0,
        "slot": "5",
        "type": "t_string_storage"
      },
      {
        "astId": 815,
        "contract": "contracts/InzenFunds.sol:InzenFunds",
        "label": "_nonces",
        "offset": 0,
        "slot": "6",
        "type": "t_mapping(t_address,t_struct(Counter)1546_storage)"
      },
      {
        "astId": 114,
        "contract": "contracts/InzenFunds.sol:InzenFunds",
        "label": "_status",
        "offset": 0,
        "slot": "7",
        "type": "t_uint256"
      },
      {
        "astId": 2153,
        "contract": "contracts/InzenFunds.sol:InzenFunds",
        "label": "portfolio",
        "offset": 0,
        "slot": "8",
        "type": "t_array(t_struct(Assets)2149_storage)dyn_storage"
      },
      {
        "astId": 2158,
        "contract": "contracts/InzenFunds.sol:InzenFunds",
        "label": "tokenIdx",
        "offset": 0,
        "slot": "9",
        "type": "t_mapping(t_contract(ERC20)689,t_uint256)"
      },
      {
        "astId": 2161,
        "contract": "contracts/InzenFunds.sol:InzenFunds",
        "label": "router",
        "offset": 0,
        "slot": "10",
        "type": "t_contract(AggregationRouterV5Interface)2959"
      },
      {
        "astId": 2164,
        "contract": "contracts/InzenFunds.sol:InzenFunds",
        "label": "baseToken",
        "offset": 0,
        "slot": "11",
        "type": "t_contract(ERC20)689"
      }
    ],
    "types": {
      "t_address": {
        "encoding": "inplace",
        "label": "address",
        "numberOfBytes": "20"
      },
      "t_array(t_struct(Assets)2149_storage)dyn_storage": {
        "base": "t_struct(Assets)2149_storage",
        "encoding": "dynamic_array",
        "label": "struct InzenFunds.Assets[]",
        "numberOfBytes": "32"
      },
      "t_contract(AggregationRouterV5Interface)2959": {
        "encoding": "inplace",
        "label": "contract AggregationRouterV5Interface",
        "numberOfBytes": "20"
      },
      "t_contract(AggregatorV3Interface)3005": {
        "encoding": "inplace",
        "label": "contract AggregatorV3Interface",
        "numberOfBytes": "20"
      },
      "t_contract(ERC20)689": {
        "encoding": "inplace",
        "label": "contract ERC20",
        "numberOfBytes": "20"
      },
      "t_mapping(t_address,t_mapping(t_address,t_uint256))": {
        "encoding": "mapping",
        "key": "t_address",
        "label": "mapping(address => mapping(address => uint256))",
        "numberOfBytes": "32",
        "value": "t_mapping(t_address,t_uint256)"
      },
      "t_mapping(t_address,t_struct(Counter)1546_storage)": {
        "encoding": "mapping",
        "key": "t_address",
        "label": "mapping(address => struct Counters.Counter)",
        "numberOfBytes": "32",
        "value": "t_struct(Counter)1546_storage"
      },
      "t_mapping(t_address,t_uint256)": {
        "encoding": "mapping",
        "key": "t_address",
        "label": "mapping(address => uint256)",
        "numberOfBytes": "32",
        "value": "t_uint256"
      },
      "t_mapping(t_contract(ERC20)689,t_uint256)": {
        "encoding": "mapping",
        "key": "t_contract(ERC20)689",
        "label": "mapping(contract ERC20 => uint256)",
        "numberOfBytes": "32",
        "value": "t_uint256"
      },
      "t_string_storage": {
        "encoding": "bytes",
        "label": "string",
        "numberOfBytes": "32"
      },
      "t_struct(Assets)2149_storage": {
        "encoding": "inplace",
        "label": "struct InzenFunds.Assets",
        "members": [
          {
            "astId": 2141,
            "contract": "contracts/InzenFunds.sol:InzenFunds",
            "label": "token",
            "offset": 0,
            "slot": "0",
            "type": "t_contract(ERC20)689"
          },
          {
            "astId": 2144,
            "contract": "contracts/InzenFunds.sol:InzenFunds",
            "label": "priceFeed",
            "offset": 0,
            "slot": "1",
            "type": "t_contract(AggregatorV3Interface)3005"
          },
          {
            "astId": 2146,
            "contract": "contracts/InzenFunds.sol:InzenFunds",
            "label": "amount",
            "offset": 0,
            "slot": "2",
            "type": "t_uint256"
          },
          {
            "astId": 2148,
            "contract": "contracts/InzenFunds.sol:InzenFunds",
            "label": "weight",
            "offset": 0,
            "slot": "3",
            "type": "t_uint256"
          }
        ],
        "numberOfBytes": "128"
      },
      "t_struct(Counter)1546_storage": {
        "encoding": "inplace",
        "label": "struct Counters.Counter",
        "members": [
          {
            "astId": 1545,
            "contract": "contracts/InzenFunds.sol:InzenFunds",
            "label": "_value",
            "offset": 0,
            "slot": "0",
            "type": "t_uint256"
          }
        ],
        "numberOfBytes": "32"
      },
      "t_uint256": {
        "encoding": "inplace",
        "label": "uint256",
        "numberOfBytes": "32"
      }
    }
  }
}