{
  "address": "0xf69d9Ec735A507BA41Df5DA549fcA8dd8937cEbe",
  "abi": [
    {
      "inputs": [
        {
          "internalType": "contract IERC20",
          "name": "_baseToken",
          "type": "address"
        },
        {
          "internalType": "contract AggregationRouterV5Interface",
          "name": "_router",
          "type": "address"
        },
        {
          "components": [
            {
              "internalType": "contract IERC20",
              "name": "token",
              "type": "address"
            },
            {
              "internalType": "contract AggregatorV3Interface",
              "name": "priceFeed",
              "type": "address"
            },
            {
              "internalType": "uint256",
              "name": "amount",
              "type": "uint256"
            },
            {
              "internalType": "uint256",
              "name": "weight",
              "type": "uint256"
            }
          ],
          "internalType": "struct InzenFunds.Items[]",
          "name": "_portfolio",
          "type": "tuple[]"
        }
      ],
      "stateMutability": "nonpayable",
      "type": "constructor"
    },
    {
      "anonymous": false,
      "inputs": [
        {
          "indexed": true,
          "internalType": "address",
          "name": "previousOwner",
          "type": "address"
        },
        {
          "indexed": true,
          "internalType": "address",
          "name": "newOwner",
          "type": "address"
        }
      ],
      "name": "OwnershipTransferred",
      "type": "event"
    },
    {
      "inputs": [],
      "name": "MAX_INT",
      "outputs": [
        {
          "internalType": "uint256",
          "name": "",
          "type": "uint256"
        }
      ],
      "stateMutability": "view",
      "type": "function"
    },
    {
      "inputs": [],
      "name": "baseToken",
      "outputs": [
        {
          "internalType": "contract IERC20",
          "name": "",
          "type": "address"
        }
      ],
      "stateMutability": "view",
      "type": "function"
    },
    {
      "inputs": [
        {
          "internalType": "bytes",
          "name": "_txdata",
          "type": "bytes"
        }
      ],
      "name": "decode",
      "outputs": [
        {
          "internalType": "address",
          "name": "executor",
          "type": "address"
        },
        {
          "components": [
            {
              "internalType": "contract IERC20",
              "name": "srcToken",
              "type": "address"
            },
            {
              "internalType": "contract IERC20",
              "name": "dstToken",
              "type": "address"
            },
            {
              "internalType": "address payable",
              "name": "srcReceiver",
              "type": "address"
            },
            {
              "internalType": "address payable",
              "name": "dstReceiver",
              "type": "address"
            },
            {
              "internalType": "uint256",
              "name": "amount",
              "type": "uint256"
            },
            {
              "internalType": "uint256",
              "name": "minReturnAmount",
              "type": "uint256"
            },
            {
              "internalType": "uint256",
              "name": "flags",
              "type": "uint256"
            }
          ],
          "internalType": "struct AggregationRouterV5Interface.SwapDescription",
          "name": "desc",
          "type": "tuple"
        },
        {
          "internalType": "bytes",
          "name": "permit",
          "type": "bytes"
        },
        {
          "internalType": "bytes",
          "name": "data",
          "type": "bytes"
        }
      ],
      "stateMutability": "pure",
      "type": "function"
    },
    {
      "inputs": [
        {
          "internalType": "uint256",
          "name": "_amount",
          "type": "uint256"
        },
        {
          "internalType": "bytes[]",
          "name": "_swapdata",
          "type": "bytes[]"
        }
      ],
      "name": "deposit",
      "outputs": [],
      "stateMutability": "nonpayable",
      "type": "function"
    },
    {
      "inputs": [],
      "name": "owner",
      "outputs": [
        {
          "internalType": "address",
          "name": "",
          "type": "address"
        }
      ],
      "stateMutability": "view",
      "type": "function"
    },
    {
      "inputs": [
        {
          "internalType": "uint256",
          "name": "",
          "type": "uint256"
        }
      ],
      "name": "portfolio",
      "outputs": [
        {
          "internalType": "contract IERC20",
          "name": "token",
          "type": "address"
        },
        {
          "internalType": "contract AggregatorV3Interface",
          "name": "priceFeed",
          "type": "address"
        },
        {
          "internalType": "uint256",
          "name": "amount",
          "type": "uint256"
        },
        {
          "internalType": "uint256",
          "name": "weight",
          "type": "uint256"
        }
      ],
      "stateMutability": "view",
      "type": "function"
    },
    {
      "inputs": [],
      "name": "renounceOwnership",
      "outputs": [],
      "stateMutability": "nonpayable",
      "type": "function"
    },
    {
      "inputs": [],
      "name": "router",
      "outputs": [
        {
          "internalType": "contract AggregationRouterV5Interface",
          "name": "",
          "type": "address"
        }
      ],
      "stateMutability": "view",
      "type": "function"
    },
    {
      "inputs": [],
      "name": "totalValue",
      "outputs": [
        {
          "internalType": "uint256",
          "name": "",
          "type": "uint256"
        }
      ],
      "stateMutability": "view",
      "type": "function"
    },
    {
      "inputs": [
        {
          "internalType": "address",
          "name": "newOwner",
          "type": "address"
        }
      ],
      "name": "transferOwnership",
      "outputs": [],
      "stateMutability": "nonpayable",
      "type": "function"
    },
    {
      "inputs": [
        {
          "internalType": "contract IERC20",
          "name": "_token",
          "type": "address"
        },
        {
          "internalType": "uint256",
          "name": "_amount",
          "type": "uint256"
        }
      ],
      "name": "withdrawToken",
      "outputs": [],
      "stateMutability": "nonpayable",
      "type": "function"
    }
  ],
  "transactionHash": "0xf6772f67337e221871be9992213608a89f5745fd9ef2f73f49519124e724a223",
  "args": [
    "0x2791Bca1f2de4661ED88A30C99A7a9449Aa84174",
    "0x1111111254EEB25477B68fb85Ed929f73A960582",
    [
      [
        "0x7ceB23fD6bC0adD59E62ac25578270cFf1b9f619",
        "0xF9680D99D6C9589e2a93a78A04A279e509205945",
        0,
        25
      ],
      [
        "0x3BA4c387f786bFEE076A58914F5Bd38d668B42c3",
        "0x82a6c4AF830caa6c97bb504425f6A66165C2c26e",
        0,
        25
      ],
      [
        "0x0000000000000000000000000000000000001010",
        "0x327e23A4855b6F663a28c5161541d69Af8973302",
        0,
        25
      ],
      [
        "0x2791Bca1f2de4661ED88A30C99A7a9449Aa84174",
        "0xfE4A8cc5b5B2366C1B58Bea3858e81843581b2F7",
        0,
        25
      ]
    ]
  ],
  "solcInputHash": "7bdbc2ea462e62872a69f7df995def1e",
  "bytecode": "0x60806040523480156200001157600080fd5b506040516200152938038062001529833981016040819052620000349162000204565b6200003f33620001b4565b600380546001600160a01b038086166001600160a01b03199283161790925560028054928516929091169190911790556000805b825181101562000160576001838281518110620000a057634e487b7160e01b600052603260045260246000fd5b602090810291909101810151825460018082018555600094855293839020825160049092020180546001600160a01b03199081166001600160a01b039384161782559383015194810180549094169490911693909317909155604081015160028301556060015160039091015582518390829081106200013057634e487b7160e01b600052603260045260246000fd5b6020026020010151606001518262000149919062000392565b9150806200015781620003ad565b91505062000073565b5080606414620001aa5760405162461bcd60e51b8152602060048201526011602482015270496e76616c696420706f7274666f6c696f60781b604482015260640160405180910390fd5b5050505062000410565b600080546001600160a01b038381166001600160a01b0319831681178455604051919092169283917f8be0079c531659141344cd1fd0a4f28419497f9722a3daafe3b4186f6b6457e09190a35050565b600080600060608085870312156200021a578384fd5b84516200022781620003f7565b809450506020808601516200023c81620003f7565b604087810151919550906001600160401b03808211156200025b578586fd5b818901915089601f8301126200026f578586fd5b815181811115620002845762000284620003e1565b62000294858260051b016200035f565b8181528581019250838601600783901b850187018d1015620002b4578889fd5b8894505b828510156200032257608080828f031215620002d257898afd5b620002dc62000334565b8251620002e981620003f7565b815282890151620002fa81620003f7565b818a01528288015188820152898301518a8201528552600195909501949387019301620002b8565b50809750505050505050509250925092565b604051608081016001600160401b0381118282101715620003595762000359620003e1565b60405290565b604051601f8201601f191681016001600160401b03811182821017156200038a576200038a620003e1565b604052919050565b60008219821115620003a857620003a8620003cb565b500190565b6000600019821415620003c457620003c4620003cb565b5060010190565b634e487b7160e01b600052601160045260246000fd5b634e487b7160e01b600052604160045260246000fd5b6001600160a01b03811681146200040d57600080fd5b50565b61110980620004206000396000f3fe608060405234801561001057600080fd5b50600436106100a95760003560e01c8063c55dae6311610071578063c55dae631461014a578063d4c3eea01461015d578063e5c5e9a314610165578063f2fde38b14610188578063f887ea401461019b578063ffab8573146101ae57600080fd5b8063098d3228146100ae5780632e63a156146100ca578063715018a6146101085780638da5cb5b146101125780639e281a9814610137575b600080fd5b6100b760001981565b6040519081526020015b60405180910390f35b6100dd6100d8366004610d76565b6101c1565b604080516001600160a01b0395861681529490931660208501529183015260608201526080016100c1565b610110610207565b005b6000546001600160a01b03165b6040516001600160a01b0390911681526020016100c1565b610110610145366004610d4b565b610246565b60035461011f906001600160a01b031681565b6100b7610288565b610178610173366004610cde565b6103f9565b6040516100c19493929190610eda565b610110610196366004610ba1565b61045e565b60025461011f906001600160a01b031681565b6101106101bc366004610da6565b6104f9565b600181815481106101d157600080fd5b600091825260209091206004909102018054600182015460028301546003909301546001600160a01b0392831694509116919084565b6000546001600160a01b0316331461023a5760405162461bcd60e51b815260040161023190610f72565b60405180910390fd5b61024460006105da565b565b6000546001600160a01b031633146102705760405162461bcd60e51b815260040161023190610f72565b6102846001600160a01b038316338361062a565b5050565b600080805b6001548110156103f357600181815481106102b857634e487b7160e01b600052603260045260246000fd5b906000526020600020906004020160020154600014156102d7576103e1565b6000600182815481106102fa57634e487b7160e01b600052603260045260246000fd5b906000526020600020906004020160010160009054906101000a90046001600160a01b03166001600160a01b031663feaf968c6040518163ffffffff1660e01b815260040160a06040518083038186803b15801561035757600080fd5b505afa15801561036b573d6000803e3d6000fd5b505050506040513d601f19601f8201168201806040525081019061038f9190610e43565b505050915050600182815481106103b657634e487b7160e01b600052603260045260246000fd5b906000526020600020906004020160020154816103d39190611055565b6103dd908461103d565b9250505b806103eb816110a0565b91505061028d565b50919050565b6040805160e081018252600080825260208201819052918101829052606081018290526080810182905260a0810182905260c081018290526060806104418560048189611015565b81019061044e9190610bbd565b9299919850965090945092505050565b6000546001600160a01b031633146104885760405162461bcd60e51b815260040161023190610f72565b6001600160a01b0381166104ed5760405162461bcd60e51b815260206004820152602660248201527f4f776e61626c653a206e6577206f776e657220697320746865207a65726f206160448201526564647265737360d01b6064820152608401610231565b6104f6816105da565b50565b600354610511906001600160a01b0316333086610692565b60025460035461052e916001600160a01b039182169116856106ca565b60005b818110156105d457600061057584848481811061055e57634e487b7160e01b600052603260045260246000fd5b90506020028101906105709190610fa7565b6107ee565b509050806001838154811061059a57634e487b7160e01b600052603260045260246000fd5b906000526020600020906004020160020160008282546105ba919061103d565b909155508291506105cc9050816110a0565b915050610531565b50505050565b600080546001600160a01b038381166001600160a01b0319831681178455604051919092169283917f8be0079c531659141344cd1fd0a4f28419497f9722a3daafe3b4186f6b6457e09190a35050565b6040516001600160a01b03831660248201526044810182905261068d90849063a9059cbb60e01b906064015b60408051601f198184030181529190526020810180516001600160e01b03166001600160e01b0319909316929092179091526108af565b505050565b6040516001600160a01b03808516602483015283166044820152606481018290526105d49085906323b872dd60e01b90608401610656565b8015806107535750604051636eb1769f60e11b81523060048201526001600160a01b03838116602483015284169063dd62ed3e9060440160206040518083038186803b15801561071957600080fd5b505afa15801561072d573d6000803e3d6000fd5b505050506040513d601f19601f820116820180604052508101906107519190610d8e565b155b6107be5760405162461bcd60e51b815260206004820152603660248201527f5361666545524332303a20617070726f76652066726f6d206e6f6e2d7a65726f60448201527520746f206e6f6e2d7a65726f20616c6c6f77616e636560501b6064820152608401610231565b6040516001600160a01b03831660248201526044810182905261068d90849063095ea7b360e01b90606401610656565b60008080808080610802876004818b611015565b81019061080f9190610bbd565b6002546040516312aa3caf60e01b815294985092965090945092506001600160a01b0316906312aa3caf9061084e908790879087908790600401610eda565b6040805180830381600087803b15801561086757600080fd5b505af115801561087b573d6000803e3d6000fd5b505050506040513d601f19601f8201168201806040525081019061089f9190610e20565b95509550505050505b9250929050565b6000610904826040518060400160405280602081526020017f5361666545524332303a206c6f772d6c6576656c2063616c6c206661696c6564815250856001600160a01b03166109819092919063ffffffff16565b80519091501561068d57808060200190518101906109229190610cbe565b61068d5760405162461bcd60e51b815260206004820152602a60248201527f5361666545524332303a204552433230206f7065726174696f6e20646964206e6044820152691bdd081cdd58d8d9595960b21b6064820152608401610231565b6060610990848460008561099a565b90505b9392505050565b6060824710156109fb5760405162461bcd60e51b815260206004820152602660248201527f416464726573733a20696e73756666696369656e742062616c616e636520666f6044820152651c8818d85b1b60d21b6064820152608401610231565b843b610a495760405162461bcd60e51b815260206004820152601d60248201527f416464726573733a2063616c6c20746f206e6f6e2d636f6e74726163740000006044820152606401610231565b600080866001600160a01b03168587604051610a659190610ebe565b60006040518083038185875af1925050503d8060008114610aa2576040519150601f19603f3d011682016040523d82523d6000602084013e610aa7565b606091505b5091509150610ab7828286610ac2565b979650505050505050565b60608315610ad1575081610993565b825115610ae15782518084602001fd5b8160405162461bcd60e51b81526004016102319190610f5f565b600082601f830112610b0b578081fd5b813567ffffffffffffffff80821115610b2657610b266110d1565b604051601f8301601f19908116603f01168101908282118183101715610b4e57610b4e6110d1565b81604052838152866020858801011115610b66578485fd5b8360208701602083013792830160200193909352509392505050565b805169ffffffffffffffffffff81168114610b9c57600080fd5b919050565b600060208284031215610bb2578081fd5b8135610993816110e7565b600080600080848603610140811215610bd4578384fd5b8535610bdf816110e7565b945060e0601f1982011215610bf2578384fd5b50610bfb610fec565b6020860135610c09816110e7565b81526040860135610c19816110e7565b60208201526060860135610c2c816110e7565b60408201526080860135610c3f816110e7565b8060608301525060a0860135608082015260c086013560a082015260e086013560c08201528093505061010085013567ffffffffffffffff80821115610c83578384fd5b610c8f88838901610afb565b9350610120870135915080821115610ca5578283fd5b50610cb287828801610afb565b91505092959194509250565b600060208284031215610ccf578081fd5b81518015158114610993578182fd5b60008060208385031215610cf0578182fd5b823567ffffffffffffffff80821115610d07578384fd5b818501915085601f830112610d1a578384fd5b813581811115610d28578485fd5b866020828501011115610d39578485fd5b60209290920196919550909350505050565b60008060408385031215610d5d578182fd5b8235610d68816110e7565b946020939093013593505050565b600060208284031215610d87578081fd5b5035919050565b600060208284031215610d9f578081fd5b5051919050565b600080600060408486031215610dba578283fd5b83359250602084013567ffffffffffffffff80821115610dd8578384fd5b818601915086601f830112610deb578384fd5b813581811115610df9578485fd5b8760208260051b8501011115610e0d578485fd5b6020830194508093505050509250925092565b60008060408385031215610e32578182fd5b505080516020909101519092909150565b600080600080600060a08688031215610e5a578081fd5b610e6386610b82565b9450602086015193506040860151925060608601519150610e8660808701610b82565b90509295509295909350565b60008151808452610eaa816020860160208601611074565b601f01601f19169290920160200192915050565b60008251610ed0818460208701611074565b9190910192915050565b600061014060018060a01b03808816845280875116602085015280602088015116604085015280604088015116606085015280606088015116608085015250608086015160a084015260a086015160c084015260c086015160e084015280610100840152610f4a81840186610e92565b9050828103610120840152610ab78185610e92565b6020815260006109936020830184610e92565b6020808252818101527f4f776e61626c653a2063616c6c6572206973206e6f7420746865206f776e6572604082015260600190565b6000808335601e19843603018112610fbd578283fd5b83018035915067ffffffffffffffff821115610fd7578283fd5b6020019150368190038213156108a857600080fd5b60405160e0810167ffffffffffffffff8111828210171561100f5761100f6110d1565b60405290565b60008085851115611024578182fd5b83861115611030578182fd5b5050820193919092039150565b60008219821115611050576110506110bb565b500190565b600081600019048311821515161561106f5761106f6110bb565b500290565b60005b8381101561108f578181015183820152602001611077565b838111156105d45750506000910152565b60006000198214156110b4576110b46110bb565b5060010190565b634e487b7160e01b600052601160045260246000fd5b634e487b7160e01b600052604160045260246000fd5b6001600160a01b03811681146104f657600080fdfea164736f6c6343000804000a",
  "devdoc": {
    "kind": "dev",
    "methods": {
      "owner()": {
        "details": "Returns the address of the current owner."
      },
      "renounceOwnership()": {
        "details": "Leaves the contract without owner. It will not be possible to call `onlyOwner` functions anymore. Can only be called by the current owner. NOTE: Renouncing ownership will leave the contract without an owner, thereby removing any functionality that is only available to the owner."
      },
      "transferOwnership(address)": {
        "details": "Transfers ownership of the contract to a new account (`newOwner`). Can only be called by the current owner."
      }
    },
    "version": 1
  },
  "userdoc": {
    "kind": "user",
    "methods": {},
    "version": 1
  },
  "storageLayout": {
    "storage": [
      {
        "astId": 7,
        "contract": "contracts/InzenFunds.sol:InzenFunds",
        "label": "_owner",
        "offset": 0,
        "slot": "0",
        "type": "t_address"
      },
      {
        "astId": 1330,
        "contract": "contracts/InzenFunds.sol:InzenFunds",
        "label": "portfolio",
        "offset": 0,
        "slot": "1",
        "type": "t_array(t_struct(Items)1326_storage)dyn_storage"
      },
      {
        "astId": 1333,
        "contract": "contracts/InzenFunds.sol:InzenFunds",
        "label": "router",
        "offset": 0,
        "slot": "2",
        "type": "t_contract(AggregationRouterV5Interface)1647"
      },
      {
        "astId": 1336,
        "contract": "contracts/InzenFunds.sol:InzenFunds",
        "label": "baseToken",
        "offset": 0,
        "slot": "3",
        "type": "t_contract(IERC20)727"
      }
    ],
    "types": {
      "t_address": {
        "encoding": "inplace",
        "label": "address",
        "numberOfBytes": "20"
      },
      "t_array(t_struct(Items)1326_storage)dyn_storage": {
        "base": "t_struct(Items)1326_storage",
        "encoding": "dynamic_array",
        "label": "struct InzenFunds.Items[]",
        "numberOfBytes": "32"
      },
      "t_contract(AggregationRouterV5Interface)1647": {
        "encoding": "inplace",
        "label": "contract AggregationRouterV5Interface",
        "numberOfBytes": "20"
      },
      "t_contract(AggregatorV3Interface)1693": {
        "encoding": "inplace",
        "label": "contract AggregatorV3Interface",
        "numberOfBytes": "20"
      },
      "t_contract(IERC20)727": {
        "encoding": "inplace",
        "label": "contract IERC20",
        "numberOfBytes": "20"
      },
      "t_struct(Items)1326_storage": {
        "encoding": "inplace",
        "label": "struct InzenFunds.Items",
        "members": [
          {
            "astId": 1318,
            "contract": "contracts/InzenFunds.sol:InzenFunds",
            "label": "token",
            "offset": 0,
            "slot": "0",
            "type": "t_contract(IERC20)727"
          },
          {
            "astId": 1321,
            "contract": "contracts/InzenFunds.sol:InzenFunds",
            "label": "priceFeed",
            "offset": 0,
            "slot": "1",
            "type": "t_contract(AggregatorV3Interface)1693"
          },
          {
            "astId": 1323,
            "contract": "contracts/InzenFunds.sol:InzenFunds",
            "label": "amount",
            "offset": 0,
            "slot": "2",
            "type": "t_uint256"
          },
          {
            "astId": 1325,
            "contract": "contracts/InzenFunds.sol:InzenFunds",
            "label": "weight",
            "offset": 0,
            "slot": "3",
            "type": "t_uint256"
          }
        ],
        "numberOfBytes": "128"
      },
      "t_uint256": {
        "encoding": "inplace",
        "label": "uint256",
        "numberOfBytes": "32"
      }
    }
  }
}